{"contracts/ContestFactory.sol":{"ContestFactory":{"abi":[{"inputs":[{"internalType":"address","name":"_depeToken","type":"address"},{"internalType":"address","name":"_platformWallet","type":"address"}],"stateMutability":"nonpayable","type":"constructor"},{"anonymous":false,"inputs":[{"indexed":true,"internalType":"uint256","name":"contestId","type":"uint256"},{"indexed":true,"internalType":"address","name":"contestAddress","type":"address"},{"indexed":true,"internalType":"address","name":"creator","type":"address"},{"indexed":false,"internalType":"uint256","name":"memePoolAmount","type":"uint256"},{"indexed":false,"internalType":"uint256","name":"minEntriesRequired","type":"uint256"},{"indexed":false,"internalType":"uint256","name":"duration","type":"uint256"}],"name":"ContestCreated","type":"event"},{"anonymous":false,"inputs":[{"indexed":true,"internalType":"uint256","name":"contestId","type":"uint256"},{"indexed":false,"internalType":"uint256","name":"amount","type":"uint256"}],"name":"ContestFeeCollected","type":"event"},{"anonymous":false,"inputs":[{"indexed":false,"internalType":"uint256","name":"oldPrice","type":"uint256"},{"indexed":false,"internalType":"uint256","name":"newPrice","type":"uint256"}],"name":"DEPEPriceUpdated","type":"event"},{"anonymous":false,"inputs":[{"indexed":false,"internalType":"uint256","name":"oldMin","type":"uint256"},{"indexed":false,"internalType":"uint256","name":"newMin","type":"uint256"}],"name":"MinPoolUpdated","type":"event"},{"anonymous":false,"inputs":[{"indexed":true,"internalType":"address","name":"previousOwner","type":"address"},{"indexed":true,"internalType":"address","name":"newOwner","type":"address"}],"name":"OwnershipTransferred","type":"event"},{"anonymous":false,"inputs":[{"indexed":false,"internalType":"address","name":"account","type":"address"}],"name":"Paused","type":"event"},{"anonymous":false,"inputs":[{"indexed":true,"internalType":"address","name":"oldWallet","type":"address"},{"indexed":true,"internalType":"address","name":"newWallet","type":"address"}],"name":"PlatformWalletUpdated","type":"event"},{"anonymous":false,"inputs":[{"indexed":false,"internalType":"address","name":"account","type":"address"}],"name":"Unpaused","type":"event"},{"inputs":[],"name":"MAX_CONTEST_DURATION","outputs":[{"internalType":"uint256","name":"","type":"uint256"}],"stateMutability":"view","type":"function"},{"inputs":[],"name":"MIN_CONTEST_DURATION","outputs":[{"internalType":"uint256","name":"","type":"uint256"}],"stateMutability":"view","type":"function"},{"inputs":[],"name":"PLATFORM_FEE_BPS","outputs":[{"internalType":"uint256","name":"","type":"uint256"}],"stateMutability":"view","type":"function"},{"inputs":[{"internalType":"uint256","name":"poolAmount","type":"uint256"}],"name":"calculatePlatformFee","outputs":[{"internalType":"uint256","name":"platformFee","type":"uint256"}],"stateMutability":"pure","type":"function"},{"inputs":[{"internalType":"uint256","name":"","type":"uint256"}],"name":"contests","outputs":[{"internalType":"address","name":"","type":"address"}],"stateMutability":"view","type":"function"},{"inputs":[{"internalType":"uint256","name":"memePoolAmount","type":"uint256"},{"internalType":"uint256","name":"minEntriesRequired","type":"uint256"},{"internalType":"uint256","name":"duration","type":"uint256"},{"internalType":"string","name":"title","type":"string"},{"internalType":"string","name":"description","type":"string"}],"name":"createContest","outputs":[{"internalType":"address","name":"contestAddress","type":"address"}],"stateMutability":"nonpayable","type":"function"},{"inputs":[],"name":"depePriceUSD","outputs":[{"internalType":"uint256","name":"","type":"uint256"}],"stateMutability":"view","type":"function"},{"inputs":[],"name":"depeToken","outputs":[{"internalType":"address","name":"","type":"address"}],"stateMutability":"view","type":"function"},{"inputs":[{"internalType":"uint256","name":"amount","type":"uint256"}],"name":"emergencyWithdraw","outputs":[],"stateMutability":"nonpayable","type":"function"},{"inputs":[{"internalType":"uint256","name":"contestId","type":"uint256"}],"name":"getContest","outputs":[{"internalType":"address","name":"contestAddress","type":"address"}],"stateMutability":"view","type":"function"},{"inputs":[],"name":"getContestCount","outputs":[{"internalType":"uint256","name":"count","type":"uint256"}],"stateMutability":"view","type":"function"},{"inputs":[],"name":"getFactoryInfo","outputs":[{"internalType":"uint256","name":"factoryTotalContests","type":"uint256"},{"internalType":"uint256","name":"factoryMinPoolUSD","type":"uint256"},{"internalType":"uint256","name":"factoryDepePriceUSD","type":"uint256"},{"internalType":"uint256","name":"factoryPlatformFeeBPS","type":"uint256"}],"stateMutability":"view","type":"function"},{"inputs":[],"name":"getMinPoolAmount","outputs":[{"internalType":"uint256","name":"","type":"uint256"}],"stateMutability":"view","type":"function"},{"inputs":[{"internalType":"address","name":"user","type":"address"}],"name":"getUserContests","outputs":[{"internalType":"uint256[]","name":"contestIds","type":"uint256[]"}],"stateMutability":"view","type":"function"},{"inputs":[],"name":"minPoolDEPE","outputs":[{"internalType":"uint256","name":"","type":"uint256"}],"stateMutability":"view","type":"function"},{"inputs":[],"name":"owner","outputs":[{"internalType":"address","name":"","type":"address"}],"stateMutability":"view","type":"function"},{"inputs":[],"name":"pause","outputs":[],"stateMutability":"nonpayable","type":"function"},{"inputs":[],"name":"paused","outputs":[{"internalType":"bool","name":"","type":"bool"}],"stateMutability":"view","type":"function"},{"inputs":[],"name":"platformWallet","outputs":[{"internalType":"address","name":"","type":"address"}],"stateMutability":"view","type":"function"},{"inputs":[],"name":"renounceOwnership","outputs":[],"stateMutability":"nonpayable","type":"function"},{"inputs":[],"name":"totalContests","outputs":[{"internalType":"uint256","name":"","type":"uint256"}],"stateMutability":"view","type":"function"},{"inputs":[{"internalType":"address","name":"newOwner","type":"address"}],"name":"transferOwnership","outputs":[],"stateMutability":"nonpayable","type":"function"},{"inputs":[],"name":"unpause","outputs":[],"stateMutability":"nonpayable","type":"function"},{"inputs":[{"internalType":"uint256","name":"_depePriceUSD","type":"uint256"}],"name":"updateDEPEPrice","outputs":[],"stateMutability":"nonpayable","type":"function"},{"inputs":[{"internalType":"uint256","name":"_minPoolDEPE","type":"uint256"}],"name":"updateMinPoolDEPE","outputs":[],"stateMutability":"nonpayable","type":"function"},{"inputs":[{"internalType":"address","name":"_platformWallet","type":"address"}],"name":"updatePlatformWallet","outputs":[],"stateMutability":"nonpayable","type":"function"},{"inputs":[{"internalType":"address","name":"","type":"address"},{"internalType":"uint256","name":"","type":"uint256"}],"name":"userContests","outputs":[{"internalType":"uint256","name":"","type":"uint256"}],"stateMutability":"view","type":"function"}],"evm":{"bytecode":{"linkReferences":{},"object":"608060405269d3c21bcecceda10000006004556604f94ae6af80006008553480156200002a57600080fd5b5060405162004d9838038062004d988339810160408190526200004d91620001de565b620000583362000171565b600180556002805460ff191690556001600160a01b038216620000cd5760405162461bcd60e51b815260206004820152602260248201527f436f6e74657374466163746f72793a20496e76616c6964204445504520746f6b60448201526132b760f11b60648201526084015b60405180910390fd5b6001600160a01b038116620001355760405162461bcd60e51b815260206004820152602760248201527f436f6e74657374466163746f72793a20496e76616c696420706c6174666f726d604482015266081dd85b1b195d60ca1b6064820152608401620000c4565b60028054610100600160a81b0319166101006001600160a01b0394851602179055600380546001600160a01b0319169190921617905562000216565b600080546001600160a01b038381166001600160a01b0319831681178455604051919092169283917f8be0079c531659141344cd1fd0a4f28419497f9722a3daafe3b4186f6b6457e09190a35050565b80516001600160a01b0381168114620001d957600080fd5b919050565b60008060408385031215620001f257600080fd5b620001fd83620001c1565b91506200020d60208401620001c1565b90509250929050565b614b7280620002266000396000f3fe60806040523480156200001157600080fd5b5060043610620001cc5760003560e01c8063782be8dd116200010d5780639d7ed73811620000a3578063afad27d4116200007a578063afad27d414620003a9578063be28377a14620003c0578063f2fde38b14620003e6578063fa2af9da14620003fd57600080fd5b80639d7ed738146200035c578063a0b556721462000388578063ada4ef30146200039257600080fd5b80638456cb5911620000e45780638456cb59146200031e5780638da5cb5b1462000328578063904b9f72146200033a57806392f83bc2146200035157600080fd5b8063782be8dd14620002a85780637eb938a314620002d557806380246e4e146200030757600080fd5b80633f4ba83a11620001835780635ad3bd7c116200015a5780635ad3bd7c14620002755780635c975abb146200027e57806364c3c1661462000295578063715018a6146200029e57600080fd5b80633f4ba83a146200024a5780635312ea8e1462000254578063539aa77f146200026b57600080fd5b80630cbab4f714620001d157806311cf23b514620001fb57806315df7cf9146200021457806317b561ae146200022b5780632089988f14620002355780632a7f27621462000240575b600080fd5b620001e8620001e23660046200124e565b62000411565b6040519081526020015b60405180910390f35b620002126200020c3660046200124e565b62000435565b005b620001e86200022536600462001285565b620004db565b620001e860055481565b620001e86201518081565b620001e860085481565b620002126200050d565b62000212620002653660046200124e565b62000523565b620001e86103e881565b600454620001e8565b60025460ff166040519015158152602001620001f2565b600554620001e8565b6200021262000642565b6005546004546008546103e8604080519485526020850193909352918301526060820152608001620001f2565b600254620002ee9061010090046001600160a01b031681565b6040516001600160a01b039091168152602001620001f2565b62000212620003183660046200124e565b62000658565b6200021262000707565b6000546001600160a01b0316620002ee565b620002ee6200034b3660046200124e565b6200071b565b620001e862093a8081565b620002ee6200036d3660046200124e565b6006602052600090815260409020546001600160a01b031681565b620001e860045481565b62000212620003a3366004620012b2565b6200079b565b620002ee620003ba3660046200137b565b62000851565b620003d7620003d1366004620012b2565b62000ee9565b604051620001f2919062001403565b62000212620003f7366004620012b2565b62000f57565b600354620002ee906001600160a01b031681565b60006200042f61271062000428846103e862000fd3565b9062000fe8565b92915050565b6200043f62000ff6565b60008111620004955760405162461bcd60e51b815260206004820152601d60248201527f436f6e74657374466163746f72793a20496e76616c696420707269636500000060448201526064015b60405180910390fd5b600880549082905560408051828152602081018490527feaf078f1d5c2b260e96e4857071e22e5ba4fb9c3e4d8ca543d6674d4ef3f711891015b60405180910390a15050565b60076020528160005260406000208181548110620004f857600080fd5b90600052602060002001600091509150505481565b6200051762000ff6565b6200052162001052565b565b6200052d62000ff6565b62000537620010a6565b6002546001600160a01b036101009091041663a9059cbb620005616000546001600160a01b031690565b6040516001600160e01b031960e084901b1681526001600160a01b039091166004820152602481018490526044016020604051808303816000875af1158015620005af573d6000803e3d6000fd5b505050506040513d601f19601f82011682018060405250810190620005d5919062001449565b620006355760405162461bcd60e51b815260206004820152602960248201527f436f6e74657374466163746f72793a20456d657267656e637920776974686472604482015268185dc819985a5b195960ba1b60648201526084016200048c565b6200063f60018055565b50565b6200064c62000ff6565b62000521600062001101565b6200066262000ff6565b60008111620006c85760405162461bcd60e51b815260206004820152602b60248201527f436f6e74657374466163746f72793a20496e76616c6964206d696e696d756d2060448201526a1c1bdbdb08185b5bdd5b9d60aa1b60648201526084016200048c565b600480549082905560408051828152602081018490527fcad838ab7e525524e3a341fd264419475f0149f5bf93dd492e0c10595d0f61e69101620004cf565b6200071162000ff6565b6200052162001151565b600060055482106200077f5760405162461bcd60e51b815260206004820152602660248201527f436f6e74657374466163746f72793a20436f6e7465737420646f6573206e6f7460448201526508195e1a5cdd60d21b60648201526084016200048c565b506000908152600660205260409020546001600160a01b031690565b620007a562000ff6565b806001600160a01b038116620007fe5760405162461bcd60e51b815260206004820152601f60248201527f436f6e74657374466163746f72793a20496e76616c696420616464726573730060448201526064016200048c565b600380546001600160a01b038481166001600160a01b0319831681179093556040519116919082907ff84f6b525c89a18c80bbbc0c62a7eb5390956d6b8432ab067b49963a98f8c38f90600090a3505050565b60006200085d620010a6565b6200086762001191565b8560008111620008ca5760405162461bcd60e51b815260206004820152602760248201527f436f6e74657374466163746f72793a20416d6f756e74206d75737420626520706044820152666f73697469766560c81b60648201526084016200048c565b60018610158015620008de57506103e88611155b620009385760405162461bcd60e51b815260206004820152602360248201527f436f6e74657374466163746f72793a20496e76616c6964206d696e20656e747260448201526269657360e81b60648201526084016200048c565b6201518085101580156200094f575062093a808511155b6200099d5760405162461bcd60e51b815260206004820181905260248201527f436f6e74657374466163746f72793a20496e76616c6964206475726174696f6e60448201526064016200048c565b60008451118015620009b1575060c8845111155b620009ff5760405162461bcd60e51b815260206004820152601d60248201527f436f6e74657374466163746f72793a20496e76616c6964207469746c6500000060448201526064016200048c565b6101f48351111562000a605760405162461bcd60e51b8152602060048201526024808201527f436f6e74657374466163746f72793a204465736372697074696f6e20746f6f206044820152636c6f6e6760e01b60648201526084016200048c565b60045487101562000ac75760405162461bcd60e51b815260206004820152602a60248201527f436f6e74657374466163746f72793a20506f6f6c2062656c6f77206d696e696d604482015269756d20314d204445504560b01b60648201526084016200048c565b600062000ade612710620004288a6103e862000fd3565b9050600062000aee8983620011d9565b6002546040516323b872dd60e01b8152336004820152306024820152604481018c905291925061010090046001600160a01b0316906323b872dd906064016020604051808303816000875af115801562000b4c573d6000803e3d6000fd5b505050506040513d601f19601f8201168201806040525081019062000b72919062001449565b62000bc05760405162461bcd60e51b815260206004820152601f60248201527f436f6e74657374466163746f72793a205472616e73666572206661696c65640060448201526064016200048c565b811562000cab5760025460035460405163a9059cbb60e01b81526001600160a01b03918216600482015260248101859052610100909204169063a9059cbb906044016020604051808303816000875af115801562000c22573d6000803e3d6000fd5b505050506040513d601f19601f8201168201806040525081019062000c48919062001449565b62000cab5760405162461bcd60e51b815260206004820152602c60248201527f436f6e74657374466163746f72793a20506c6174666f726d206665652074726160448201526b1b9cd9995c8819985a5b195960a21b60648201526084016200048c565b6000600260019054906101000a90046001600160a01b031633838b8b8b8b60405162000cd79062001240565b62000ce99796959493929190620014b5565b604051809103906000f08015801562000d06573d6000803e3d6000fd5b5060025460405163a9059cbb60e01b81526001600160a01b038084166004830152602482018690529293506101009091049091169063a9059cbb906044016020604051808303816000875af115801562000d64573d6000803e3d6000fd5b505050506040513d601f19601f8201168201806040525081019062000d8a919062001449565b62000de75760405162461bcd60e51b815260206004820152602660248201527f436f6e74657374466163746f72793a20436f6e746573742066756e64696e672060448201526519985a5b195960d21b60648201526084016200048c565b60058054600081815260066020908152604080832080546001600160a01b0319166001600160a01b03881617905533835260078252822080546001818101835591845291909220018290559154909162000e429190620011e7565b60055560408051848152602081018c90529081018a905233906001600160a01b0384169083907f07c851f5c6a4e6f4afbed9a67c5daef4bc200867e239c64d2c711cfb851f6a5d9060600160405180910390a4807f0b44d21d6aa5e66a69a34e93fd05973ece923106133b622b45e63c9d37cbef538560405162000ec891815260200190565b60405180910390a250935050505062000ee060018055565b95945050505050565b6001600160a01b03811660009081526007602090815260409182902080548351818402810184019094528084526060939283018282801562000f4b57602002820191906000526020600020905b81548152602001906001019080831162000f36575b50505050509050919050565b62000f6162000ff6565b6001600160a01b03811662000fc85760405162461bcd60e51b815260206004820152602660248201527f4f776e61626c653a206e6577206f776e657220697320746865207a65726f206160448201526564647265737360d01b60648201526084016200048c565b6200063f8162001101565b600062000fe182846200152c565b9392505050565b600062000fe1828462001546565b6000546001600160a01b03163314620005215760405162461bcd60e51b815260206004820181905260248201527f4f776e61626c653a2063616c6c6572206973206e6f7420746865206f776e657260448201526064016200048c565b6200105c620011f5565b6002805460ff191690557f5db9ee0a495bf2e6ff9c91a7834c1ba4fdd244a5e8aa4e537bd38aeae4b073aa335b6040516001600160a01b03909116815260200160405180910390a1565b600260015403620010fa5760405162461bcd60e51b815260206004820152601f60248201527f5265656e7472616e637947756172643a207265656e7472616e742063616c6c0060448201526064016200048c565b6002600155565b600080546001600160a01b038381166001600160a01b0319831681178455604051919092169283917f8be0079c531659141344cd1fd0a4f28419497f9722a3daafe3b4186f6b6457e09190a35050565b6200115b62001191565b6002805460ff191660011790557f62e78cea01bee320cd4e420270b5ea74000d11b0c9f74754ebdbfc544b05a258620010893390565b60025460ff1615620005215760405162461bcd60e51b815260206004820152601060248201526f14185d5cd8589b194e881c185d5cd95960821b60448201526064016200048c565b600062000fe1828462001569565b600062000fe182846200157f565b60025460ff16620005215760405162461bcd60e51b815260206004820152601460248201527314185d5cd8589b194e881b9bdd081c185d5cd95960621b60448201526064016200048c565b6135a7806200159683390190565b6000602082840312156200126157600080fd5b5035919050565b80356001600160a01b03811681146200128057600080fd5b919050565b600080604083850312156200129957600080fd5b620012a48362001268565b946020939093013593505050565b600060208284031215620012c557600080fd5b62000fe18262001268565b634e487b7160e01b600052604160045260246000fd5b600082601f830112620012f857600080fd5b813567ffffffffffffffff80821115620013165762001316620012d0565b604051601f8301601f19908116603f01168101908282118183101715620013415762001341620012d0565b816040528381528660208588010111156200135b57600080fd5b836020870160208301376000602085830101528094505050505092915050565b600080600080600060a086880312156200139457600080fd5b853594506020860135935060408601359250606086013567ffffffffffffffff80821115620013c257600080fd5b620013d089838a01620012e6565b93506080880135915080821115620013e757600080fd5b50620013f688828901620012e6565b9150509295509295909350565b6020808252825182820181905260009190848201906040850190845b818110156200143d578351835292840192918401916001016200141f565b50909695505050505050565b6000602082840312156200145c57600080fd5b8151801515811462000fe157600080fd5b6000815180845260005b81811015620014955760208185018101518683018201520162001477565b506000602082860101526020601f19601f83011685010191505092915050565b600060018060a01b03808a16835280891660208401525086604083015285606083015284608083015260e060a0830152620014f460e08301856200146d565b82810360c08401526200150881856200146d565b9a9950505050505050505050565b634e487b7160e01b600052601160045260246000fd5b80820281158282048414176200042f576200042f62001516565b6000826200156457634e487b7160e01b600052601260045260246000fd5b500490565b818103818111156200042f576200042f62001516565b808201808211156200042f576200042f6200151656fe60806040526604f94ae6af80006019553480156200001c57600080fd5b50604051620035a7380380620035a78339810160408190526200003f91620004a8565b6200004a3362000343565b600180556002805460ff191690556001600160a01b038716620000c05760405162461bcd60e51b815260206004820152602360248201527f436f6e74657374496e7374616e63653a20496e76616c6964204445504520746f60448201526235b2b760e91b60648201526084015b60405180910390fd5b6001600160a01b038616620001185760405162461bcd60e51b815260206004820181905260248201527f436f6e74657374496e7374616e63653a20496e76616c69642063726561746f726044820152606401620000b7565b600085116200017c5760405162461bcd60e51b815260206004820152602960248201527f436f6e74657374496e7374616e63653a20496e76616c6964206d656d6520706f6044820152681bdb08185b5bdd5b9d60ba1b6064820152608401620000b7565b6001841015620001db5760405162461bcd60e51b8152602060048201526024808201527f436f6e74657374496e7374616e63653a20496e76616c6964206d696e20656e746044820152637269657360e01b6064820152608401620000b7565b60008311620002375760405162461bcd60e51b815260206004820152602160248201527f436f6e74657374496e7374616e63653a20496e76616c6964206475726174696f6044820152603760f91b6064820152608401620000b7565b60028054610100600160a81b0319166101006001600160a01b038a81169190910291909117909155600380546001600160a01b031916918816919091179055600485905560068490556007839055600a620002938382620005e5565b50600b620002a28282620005e5565b506000620002bf6064620002b886603c62000393565b90620003aa565b9050620002cd4282620003b8565b600855620002dc4285620003b8565b600955600c805460ff1916905560408051878152602081018790529081018590526001600160a01b038816907f0e88e8c4fee89d9778b8507f3cce3a1f8d3ee7c1707b40dd29178f53aec760b99060600160405180910390a250505050505050506200071a565b600080546001600160a01b038381166001600160a01b0319831681178455604051919092169283917f8be0079c531659141344cd1fd0a4f28419497f9722a3daafe3b4186f6b6457e09190a35050565b6000620003a18284620006c7565b90505b92915050565b6000620003a18284620006e1565b6000620003a1828462000704565b80516001600160a01b0381168114620003de57600080fd5b919050565b634e487b7160e01b600052604160045260246000fd5b600082601f8301126200040b57600080fd5b81516001600160401b0380821115620004285762000428620003e3565b604051601f8301601f19908116603f01168101908282118183101715620004535762000453620003e3565b816040528381526020925086838588010111156200047057600080fd5b600091505b8382101562000494578582018301518183018401529082019062000475565b600093810190920192909252949350505050565b600080600080600080600060e0888a031215620004c457600080fd5b620004cf88620003c6565b9650620004df60208901620003c6565b604089015160608a015160808b015160a08c0151939950919750955093506001600160401b03808211156200051357600080fd5b620005218b838c01620003f9565b935060c08a01519150808211156200053857600080fd5b50620005478a828b01620003f9565b91505092959891949750929550565b600181811c908216806200056b57607f821691505b6020821081036200058c57634e487b7160e01b600052602260045260246000fd5b50919050565b601f821115620005e057600081815260208120601f850160051c81016020861015620005bb5750805b601f850160051c820191505b81811015620005dc57828155600101620005c7565b5050505b505050565b81516001600160401b03811115620006015762000601620003e3565b620006198162000612845462000556565b8462000592565b602080601f831160018114620006515760008415620006385750858301515b600019600386901b1c1916600185901b178555620005dc565b600085815260208120601f198616915b82811015620006825788860151825594840194600190910190840162000661565b5085821015620006a15787850151600019600388901b60f8161c191681555b5050505050600190811b01905550565b634e487b7160e01b600052601160045260246000fd5b8082028115828204841417620003a457620003a4620006b1565b600082620006ff57634e487b7160e01b600052601260045260246000fd5b500490565b80820180821115620003a457620003a4620006b1565b612e7d806200072a6000396000f3fe608060405234801561001057600080fd5b50600436106102a05760003560e01c80638da5cb5b11610167578063b5d5b5fa116100ce578063e22f93c211610087578063e22f93c214610607578063e3eb3b6f14610646578063ed3c7dca1461064f578063f2fde38b14610658578063f9c551151461066b578063fc857d521461067457600080fd5b8063b5d5b5fa146105b2578063d46f96ed146105c5578063d51defe3146105d8578063d629b0b7146105e1578063d6573cdb146105f0578063d7b48503146105f857600080fd5b8063a643a3d511610120578063a643a3d514610515578063a6e582a114610528578063a7b8614d14610548578063ad73349e1461055b578063b1c9fe6e14610585578063b384abef1461059f57600080fd5b80638da5cb5b146104cb5780639b7e0180146104dc5780639c1454d4146104ef5780639c83fcf6146104fc5780639cb8106014610504578063a300e2241461050d57600080fd5b80635c975abb1161020b5780637b0472f0116101c45780637b0472f0146104505780637c2d4577146104635780637eb938a314610483578063842e29811461049b5780638456cb59146104bb57806388caa509146104c357600080fd5b80635c975abb146103e157806364791196146103ec5780636ec02be91461042f5780636f4a2cd014610438578063715018a6146104405780637284e4161461044857600080fd5b806334b6d0811161025d57806334b6d081146103555780633e8686cc1461035d5780633f4ba83a1461037d57806342545825146103855780634a79d50c146103c357806358ef7454146103d857600080fd5b806302d05d3f146102a5578063036ee850146102d557806311cf23b5146102ec5780632a7f2762146103015780632be5bf4c1461030a5780633384c80614610335575b600080fd5b6003546102b8906001600160a01b031681565b6040516001600160a01b0390911681526020015b60405180910390f35b6102de60095481565b6040519081526020016102cc565b6102ff6102fa36600461258d565b610694565b005b6102de60195481565b6102de6103183660046125c2565b601560209081526000928352604080842090915290825290205481565b6102de6103433660046125ec565b60136020526000908152604090205481565b6102ff6106f6565b61037061036b36600461258d565b6108e2565b6040516102cc919061264d565b6102ff610c38565b6103b36103933660046125c2565b601260209081526000928352604080842090915290825290205460ff1681565b60405190151581526020016102cc565b6103cb610c48565b6040516102cc9190612739565b6102de60065481565b60025460ff166103b3565b600354600454600554600654600d54600c546008546009546017546018546040516102cc9a6001600160a01b0316999897969560ff908116959493921690612784565b6102de600d5481565b6102ff610cd6565b6102ff610fa2565b6103cb610fb4565b6102ff61045e3660046127e9565b610fc1565b61047661047136600461258d565b611314565b6040516102cc919061280b565b6002546102b89061010090046001600160a01b031681565b6104ae6104a93660046125ec565b6113b6565b6040516102cc919061287a565b6102ff611422565b6102de605a81565b6000546001600160a01b03166102b8565b6102de6104ea3660046125c2565b611432565b6018546103b39060ff1681565b6102de601481565b6102de60075481565b6102ff611463565b6102ff610523366004612961565b6116a8565b6102de61053636600461258d565b60106020526000908152604090205481565b6104ae6105563660046125ec565b611966565b61056e61056936600461258d565b6119d0565b6040516102cc9b9a99989796959493929190612a0e565b600c546105929060ff1681565b6040516102cc9190612aaa565b6102ff6105ad3660046127e9565b611c53565b6102de6105c03660046125c2565b6120c2565b6103b36105d33660046125c2565b6120de565b6102de60175481565b6102de670de0b6b3a764000081565b6102de605081565b6102de678ac7230489e8000081565b61061a6106153660046127e9565b61210c565b604080516001600160a01b039095168552602085019390935291830152151560608201526080016102cc565b6102de60045481565b6102de60055481565b6102ff6106663660046125ec565b61215f565b6102de60085481565b6102de61068236600461258d565b60116020526000908152604090205481565b61069c6121d5565b600081116106f15760405162461bcd60e51b815260206004820152601e60248201527f436f6e74657374496e7374616e63653a20496e76616c6964207072696365000060448201526064015b60405180910390fd5b601955565b6003546001600160a01b031633146107205760405162461bcd60e51b81526004016106e890612ab8565b6000600c5460ff1660038111156107395761073961274c565b146107565760405162461bcd60e51b81526004016106e890612afd565b6008544210156107bc5760405162461bcd60e51b815260206004820152602b60248201527f436f6e74657374496e7374616e63653a205375626d697373696f6e207068617360448201526a19481b9bdd08195b99195960aa1b60648201526084016106e8565b600654600d541061081357600c805460ff191660019081179091556040517feeb345fea22465c927333e05d324ee5b476597701d8be7e5d9aacc60e7aefbaf916108099160009190612b45565b60405180910390a1565b600c805460ff19166003179055604051600181527fc87f3801dde012630e385a9936c4228b5817c67d8fd74705bc5bcf5c40e8f5169060200160405180910390a1600454156108e0576002546003546004805460405163a9059cbb60e01b81526001600160a01b03938416928101929092526024820152610100909204169063a9059cbb906044016020604051808303816000875af11580156108ba573d6000803e3d6000fd5b505050506040513d601f19601f820116820180604052508101906108de9190612b60565b505b565b61094a60405180610160016040528060006001600160a01b031681526020016060815260200160608152602001606081526020016060815260200160008152602001600081526020016000815260200160008152602001600015158152602001600081525090565b6000828152600e602052604090206009015460ff1661097b5760405162461bcd60e51b81526004016106e890612b82565b6000828152600e60209081526040918290208251610160810190935280546001600160a01b0316835260018101805491928401916109b890612bcc565b80601f01602080910402602001604051908101604052809291908181526020018280546109e490612bcc565b8015610a315780601f10610a0657610100808354040283529160200191610a31565b820191906000526020600020905b815481529060010190602001808311610a1457829003601f168201915b50505050508152602001600282018054610a4a90612bcc565b80601f0160208091040260200160405190810160405280929190818152602001828054610a7690612bcc565b8015610ac35780601f10610a9857610100808354040283529160200191610ac3565b820191906000526020600020905b815481529060010190602001808311610aa657829003601f168201915b50505050508152602001600382018054610adc90612bcc565b80601f0160208091040260200160405190810160405280929190818152602001828054610b0890612bcc565b8015610b555780601f10610b2a57610100808354040283529160200191610b55565b820191906000526020600020905b815481529060010190602001808311610b3857829003601f168201915b50505050508152602001600482018054610b6e90612bcc565b80601f0160208091040260200160405190810160405280929190818152602001828054610b9a90612bcc565b8015610be75780601f10610bbc57610100808354040283529160200191610be7565b820191906000526020600020905b815481529060010190602001808311610bca57829003601f168201915b505050918352505060058201546020820152600682015460408201526007820154606082015260088201546080820152600982015460ff16151560a0820152600a9091015460c09091015292915050565b610c406121d5565b6108e061222f565b600a8054610c5590612bcc565b80601f0160208091040260200160405190810160405280929190818152602001828054610c8190612bcc565b8015610cce5780601f10610ca357610100808354040283529160200191610cce565b820191906000526020600020905b815481529060010190602001808311610cb157829003601f168201915b505050505081565b6002600c5460ff166003811115610cef57610cef61274c565b14610d475760405162461bcd60e51b815260206004820152602260248201527f436f6e74657374496e7374616e63653a20436f6e74657374206e6f7420656e64604482015261195960f21b60648201526084016106e8565b60185460ff1615610daf5760405162461bcd60e51b815260206004820152602c60248201527f436f6e74657374496e7374616e63653a205265776172647320616c726561647960448201526b08191a5cdd1c9a589d5d195960a21b60648201526084016106e8565b6018805460ff19166001179055600454600090610dda90606490610dd490600a612281565b90612294565b90506000610df3826004546122a090919063ffffffff16565b90508015610e8b576002546017546000908152600e60205260409081902054905163a9059cbb60e01b81526001600160a01b03918216600482015260248101849052610100909204169063a9059cbb906044016020604051808303816000875af1158015610e65573d6000803e3d6000fd5b505050506040513d601f19601f82011682018060405250810190610e899190612b60565b505b6000610ea86064610dd4601460055461228190919063ffffffff16565b90506000610ec1826005546122a090919063ffffffff16565b90508115610f495760025460035460405163a9059cbb60e01b81526001600160a01b03918216600482015260248101859052610100909204169063a9059cbb906044016020604051808303816000875af1158015610f23573d6000803e3d6000fd5b505050506040513d601f19601f82011682018060405250810190610f479190612b60565b505b8015610f5857610f58816122ac565b60175460408051858152602081018590529081018390527ff05b0b8458b89503ca56b18429a7b1ecd2f7f2d6d5eba936da3791b6b078bc789060600160405180910390a250505050565b610faa6121d5565b6108e0600061240c565b600b8054610c5590612bcc565b6000600c5460ff166003811115610fda57610fda61274c565b14610ff75760405162461bcd60e51b81526004016106e890612afd565b6008544211156110195760405162461bcd60e51b81526004016106e890612c06565b6000828152600e6020526040902060090154829060ff1661104c5760405162461bcd60e51b81526004016106e890612b82565b61105461245c565b600082116110b25760405162461bcd60e51b815260206004820152602560248201527f436f6e74657374496e7374616e63653a20496e76616c6964207374616b6520616044820152641b5bdd5b9d60da1b60648201526084016106e8565b6002546040516323b872dd60e01b8152336004820152306024820152604481018490526101009091046001600160a01b0316906323b872dd906064016020604051808303816000875af115801561110d573d6000803e3d6000fd5b505050506040513d601f19601f820116820180604052508101906111319190612b60565b61118c5760405162461bcd60e51b815260206004820152602660248201527f436f6e74657374496e7374616e63653a205374616b65207472616e736665722060448201526519985a5b195960d21b60648201526084016106e8565b60008381526014602090815260408083208151608081018352338082528185018881524283860190815260608401888152855460018082018855968a52888a209551600490910290950180546001600160a01b0319166001600160a01b039096169590951785559151948401949094559251600283015591516003909101805460ff191691151591909117905583526015825280832086845290915290205461123590836124b5565b3360008181526015602090815260408083208884528252808320949094559181526016825282812080546001818101835591835283832001879055868252600e9092529190912060070154611289916124b5565b6000848152600e602052604090206007810191909155600801546112ad90836124b5565b6000848152600e60205260409020600801556005546112cc90836124b5565b600555604051828152339084907fdf10bb3bcdbed673d1617ae247e30a091bd3041df07c5df494ebd136f0f118d09060200160405180910390a361130f60018055565b505050565b606060146000838152602001908152602001600020805480602002602001604051908101604052809291908181526020016000905b828210156113ab576000848152602090819020604080516080810182526004860290920180546001600160a01b03168352600180820154848601526002820154928401929092526003015460ff16151560608301529083529092019101611349565b505050509050919050565b6001600160a01b03811660009081526016602090815260409182902080548351818402810184019094528084526060939283018282801561141657602002820191906000526020600020905b815481526020019060010190808311611402575b50505050509050919050565b61142a6121d5565b6108e06124c1565b600f602052816000526040600020818154811061144e57600080fd5b90600052602060002001600091509150505481565b6003546001600160a01b0316331461148d5760405162461bcd60e51b81526004016106e890612ab8565b6001600c5460ff1660038111156114a6576114a661274c565b146114c35760405162461bcd60e51b81526004016106e890612c51565b6009544210156115255760405162461bcd60e51b815260206004820152602760248201527f436f6e74657374496e7374616e63653a20566f74696e67207068617365206e6f6044820152661d08195b99195960ca1b60648201526084016106e8565b600d546000036115d657600c805460ff19166003179055604051600281527fc87f3801dde012630e385a9936c4228b5817c67d8fd74705bc5bcf5c40e8f5169060200160405180910390a1600454156108e0576002546003546004805460405163a9059cbb60e01b81526001600160a01b03938416928101929092526024820152610100909204169063a9059cbb906044016020604051808303816000875af11580156108ba573d6000803e3d6000fd5b60008060005b600d54811015611623576000818152601060205260409020548310156116115760008181526010602052604090205492509050805b8061161b81612cab565b9150506115dc565b506017819055600c805460ff1916600217905560405181907f7668f8223572b282777e316054ad01ee7917fadb1089878da343cdc075b34b8990600090a27feeb345fea22465c927333e05d324ee5b476597701d8be7e5d9aacc60e7aefbaf60016002604051611694929190612b45565b60405180910390a16116a4610cd6565b5050565b6000600c5460ff1660038111156116c1576116c161274c565b146116de5760405162461bcd60e51b81526004016106e890612afd565b6008544211156117005760405162461bcd60e51b81526004016106e890612c06565b61170861245c565b60008451116117635760405162461bcd60e51b815260206004820152602160248201527f436f6e74657374496e7374616e63653a20496e76616c6964206d656d652055526044820152601360fa1b60648201526084016106e8565b60008351116117bf5760405162461bcd60e51b815260206004820152602260248201527f436f6e74657374496e7374616e63653a20496e76616c6964206d656d65207479604482015261706560f01b60648201526084016106e8565b600d54604080516101608101825233815260208082018881528284018890526060830187905260808301869052600060a0840181905260c0840181905260e0840181905261010084018190526001610120850181905242610140860152868252600e90935293909320825181546001600160a01b0319166001600160a01b039091161781559251919291908201906118579082612d12565b506040820151600282019061186c9082612d12565b50606082015160038201906118819082612d12565b50608082015160048201906118969082612d12565b5060a0820151600582015560c0820151600682015560e08201516007820155610100820151600882015561012082015160098201805460ff191691151591909117905561014090910151600a90910155336000908152600f6020908152604082208054600181810183559184529190922001829055600d54611917916124b5565b600d55604051339082907f3ee1452bcd5c79ab4eaca13d45c93cb39ad840132de7455b5a98e622d1913cf29061194e908990612739565b60405180910390a35061196060018055565b50505050565b6001600160a01b0381166000908152600f602090815260409182902080548351818402810184019094528084526060939283018282801561141657602002820191906000526020600020908154815260200190600101908083116114025750505050509050919050565b600e60205260009081526040902080546001820180546001600160a01b0390921692916119fc90612bcc565b80601f0160208091040260200160405190810160405280929190818152602001828054611a2890612bcc565b8015611a755780601f10611a4a57610100808354040283529160200191611a75565b820191906000526020600020905b815481529060010190602001808311611a5857829003601f168201915b505050505090806002018054611a8a90612bcc565b80601f0160208091040260200160405190810160405280929190818152602001828054611ab690612bcc565b8015611b035780601f10611ad857610100808354040283529160200191611b03565b820191906000526020600020905b815481529060010190602001808311611ae657829003601f168201915b505050505090806003018054611b1890612bcc565b80601f0160208091040260200160405190810160405280929190818152602001828054611b4490612bcc565b8015611b915780601f10611b6657610100808354040283529160200191611b91565b820191906000526020600020905b815481529060010190602001808311611b7457829003601f168201915b505050505090806004018054611ba690612bcc565b80601f0160208091040260200160405190810160405280929190818152602001828054611bd290612bcc565b8015611c1f5780601f10611bf457610100808354040283529160200191611c1f565b820191906000526020600020905b815481529060010190602001808311611c0257829003601f168201915b50505060058401546006850154600786015460088701546009880154600a90980154969793969295509093509160ff16908b565b6001600c5460ff166003811115611c6c57611c6c61274c565b14611c895760405162461bcd60e51b81526004016106e890612c51565b600954421115611ceb5760405162461bcd60e51b815260206004820152602760248201527f436f6e74657374496e7374616e63653a20566f74696e6720646561646c696e65604482015266081c185cdcd95960ca1b60648201526084016106e8565b6000828152600e6020526040902060090154829060ff16611d1e5760405162461bcd60e51b81526004016106e890612b82565b611d2661245c565b601954600090611d4290610dd4670de0b6b3a764000080612281565b905080831015611da05760405162461bcd60e51b8152602060048201526024808201527f436f6e74657374496e7374616e63653a20566f746520616d6f756e7420746f6f604482015263206c6f7760e01b60648201526084016106e8565b601954600090611dc490610dd4678ac7230489e80000670de0b6b3a7640000612281565b905080841115611e245760405162461bcd60e51b815260206004820152602560248201527f436f6e74657374496e7374616e63653a20566f746520616d6f756e7420746f6f604482015264040d0d2ced60db1b60648201526084016106e8565b33600090815260126020908152604080832088845290915290205460ff1615611eaa5760405162461bcd60e51b815260206004820152603260248201527f436f6e74657374496e7374616e63653a20416c726561647920766f746564206660448201527137b9103a3434b99039bab136b4b9b9b4b7b760711b60648201526084016106e8565b6002546040516323b872dd60e01b8152336004820152306024820152604481018690526101009091046001600160a01b0316906323b872dd906064016020604051808303816000875af1158015611f05573d6000803e3d6000fd5b505050506040513d601f19601f82011682018060405250810190611f299190612b60565b611f835760405162461bcd60e51b815260206004820152602560248201527f436f6e74657374496e7374616e63653a20566f7465207472616e736665722066604482015264185a5b195960da1b60648201526084016106e8565b3360009081526012602090815260408083208884528252808320805460ff19166001908117909155601090925290912054611fbd916124b5565b600086815260106020908152604080832093909355601190522054611fe290856124b5565b60008681526011602090815260408083209390935533825260139052205461200a90856124b5565b3360009081526013602052604090205560055461202790856124b5565b60059081556000868152600e6020526040902001546120479060016124b5565b6000868152600e6020526040902060058101919091556006015461206b90856124b5565b6000868152600e60209081526040918290206006019290925551858152339187917f2acce567deca3aabf56327adbb4524bd5318936eaefa69e3a5208ffda0cfec09910160405180910390a3505061130f60018055565b6016602052816000526040600020818154811061144e57600080fd5b6001600160a01b038216600090815260126020908152604080832084845290915290205460ff165b92915050565b6014602052816000526040600020818154811061212857600080fd5b600091825260209091206004909102018054600182015460028301546003909301546001600160a01b039092169450925060ff1684565b6121676121d5565b6001600160a01b0381166121cc5760405162461bcd60e51b815260206004820152602660248201527f4f776e61626c653a206e6577206f776e657220697320746865207a65726f206160448201526564647265737360d01b60648201526084016106e8565b6108de8161240c565b6000546001600160a01b031633146108e05760405162461bcd60e51b815260206004820181905260248201527f4f776e61626c653a2063616c6c6572206973206e6f7420746865206f776e657260448201526064016106e8565b6122376124fe565b6002805460ff191690557f5db9ee0a495bf2e6ff9c91a7834c1ba4fdd244a5e8aa4e537bd38aeae4b073aa335b6040516001600160a01b03909116815260200160405180910390a1565b600061228d8284612dd2565b9392505050565b600061228d8284612de9565b600061228d8284612e0b565b601754600090815260146020526040812090805b8254811015612313576122ff8382815481106122de576122de612e1e565b906000526020600020906004020160010154836124b590919063ffffffff16565b91508061230b81612cab565b9150506122c0565b5060005b825481101561196057600083828154811061233457612334612e1e565b90600052602060002090600402019050600061236184610dd484600101548961228190919063ffffffff16565b905080156123f757600254825460405163a9059cbb60e01b81526001600160a01b03918216600482015260248101849052610100909204169063a9059cbb906044016020604051808303816000875af11580156123c2573d6000803e3d6000fd5b505050506040513d601f19601f820116820180604052508101906123e69190612b60565b5060038201805460ff191660011790555b5050808061240490612cab565b915050612317565b600080546001600160a01b038381166001600160a01b0319831681178455604051919092169283917f8be0079c531659141344cd1fd0a4f28419497f9722a3daafe3b4186f6b6457e09190a35050565b6002600154036124ae5760405162461bcd60e51b815260206004820152601f60248201527f5265656e7472616e637947756172643a207265656e7472616e742063616c6c0060448201526064016106e8565b6002600155565b600061228d8284612e34565b6124c9612547565b6002805460ff191660011790557f62e78cea01bee320cd4e420270b5ea74000d11b0c9f74754ebdbfc544b05a2586122643390565b60025460ff166108e05760405162461bcd60e51b815260206004820152601460248201527314185d5cd8589b194e881b9bdd081c185d5cd95960621b60448201526064016106e8565b60025460ff16156108e05760405162461bcd60e51b815260206004820152601060248201526f14185d5cd8589b194e881c185d5cd95960821b60448201526064016106e8565b60006020828403121561259f57600080fd5b5035919050565b80356001600160a01b03811681146125bd57600080fd5b919050565b600080604083850312156125d557600080fd5b6125de836125a6565b946020939093013593505050565b6000602082840312156125fe57600080fd5b61228d826125a6565b6000815180845260005b8181101561262d57602081850181015186830182015201612611565b506000602082860101526020601f19601f83011685010191505092915050565b602081526126676020820183516001600160a01b03169052565b60006020830151610160806040850152612685610180850183612607565b91506040850151601f19808685030160608701526126a38483612607565b935060608701519150808685030160808701526126c08483612607565b935060808701519150808685030160a0870152506126de8382612607565b92505060a085015160c085015260c085015160e085015260e08501516101008181870152808701519150506101208181870152808701519150506101406127288187018315159052565b959095015193019290925250919050565b60208152600061228d6020830184612607565b634e487b7160e01b600052602160045260246000fd5b6004811061278057634e487b7160e01b600052602160045260246000fd5b9052565b6001600160a01b038b168152602081018a905260408101899052606081018890526080810187905261014081016127be60a0830188612762565b8560c08301528460e0830152836101008301528215156101208301529b9a5050505050505050505050565b600080604083850312156127fc57600080fd5b50508035926020909101359150565b602080825282518282018190526000919060409081850190868401855b8281101561286d57815180516001600160a01b031685528681015187860152858101518686015260609081015115159085015260809093019290850190600101612828565b5091979650505050505050565b6020808252825182820181905260009190848201906040850190845b818110156128b257835183529284019291840191600101612896565b50909695505050505050565b634e487b7160e01b600052604160045260246000fd5b600082601f8301126128e557600080fd5b813567ffffffffffffffff80821115612900576129006128be565b604051601f8301601f19908116603f01168101908282118183101715612928576129286128be565b8160405283815286602085880101111561294157600080fd5b836020870160208301376000602085830101528094505050505092915050565b6000806000806080858703121561297757600080fd5b843567ffffffffffffffff8082111561298f57600080fd5b61299b888389016128d4565b955060208701359150808211156129b157600080fd5b6129bd888389016128d4565b945060408701359150808211156129d357600080fd5b6129df888389016128d4565b935060608701359150808211156129f557600080fd5b50612a02878288016128d4565b91505092959194509250565b6001600160a01b038c16815261016060208201819052600090612a338382018e612607565b90508281036040840152612a47818d612607565b90508281036060840152612a5b818c612607565b90508281036080840152612a6f818b612607565b60a0840199909952505060c081019590955260e085019390935261010084019190915215156101208301526101409091015295945050505050565b602081016121068284612762565b60208082526025908201527f436f6e74657374496e7374616e63653a204f6e6c7920636f6e7465737420637260408201526432b0ba37b960d91b606082015260800190565b60208082526028908201527f436f6e74657374496e7374616e63653a204e6f7420696e207375626d697373696040820152676f6e20706861736560c01b606082015260800190565b60408101612b538285612762565b61228d6020830184612762565b600060208284031215612b7257600080fd5b8151801515811461228d57600080fd5b6020808252602a908201527f436f6e74657374496e7374616e63653a205375626d697373696f6e20646f6573604082015269081b9bdd08195e1a5cdd60b21b606082015260800190565b600181811c90821680612be057607f821691505b602082108103612c0057634e487b7160e01b600052602260045260246000fd5b50919050565b6020808252602b908201527f436f6e74657374496e7374616e63653a205375626d697373696f6e206465616460408201526a1b1a5b99481c185cdcd95960aa1b606082015260800190565b60208082526024908201527f436f6e74657374496e7374616e63653a204e6f7420696e20766f74696e6720706040820152636861736560e01b606082015260800190565b634e487b7160e01b600052601160045260246000fd5b600060018201612cbd57612cbd612c95565b5060010190565b601f82111561130f57600081815260208120601f850160051c81016020861015612ceb5750805b601f850160051c820191505b81811015612d0a57828155600101612cf7565b505050505050565b815167ffffffffffffffff811115612d2c57612d2c6128be565b612d4081612d3a8454612bcc565b84612cc4565b602080601f831160018114612d755760008415612d5d5750858301515b600019600386901b1c1916600185901b178555612d0a565b600085815260208120601f198616915b82811015612da457888601518255948401946001909101908401612d85565b5085821015612dc25787850151600019600388901b60f8161c191681555b5050505050600190811b01905550565b808202811582820484141761210657612106612c95565b600082612e0657634e487b7160e01b600052601260045260246000fd5b500490565b8181038181111561210657612106612c95565b634e487b7160e01b600052603260045260246000fd5b8082018082111561210657612106612c9556fea2646970667358221220687220685f0dc49c1abb0405323dd03b8031a824e6b5a0c7593cf2cf361c497964736f6c63430008130033a2646970667358221220a4ffc75ebfe08be251827f4f2d6e2a74e5d58eb41f98fe2461ae186fcac926cf64736f6c63430008130033","opcodes":"PUSH1 0x80 PUSH1 0x40 MSTORE PUSH10 0xD3C21BCECCEDA1000000 PUSH1 0x4 SSTORE PUSH7 0x4F94AE6AF8000 PUSH1 0x8 SSTORE CALLVALUE DUP1 ISZERO PUSH3 0x2A JUMPI PUSH1 0x0 DUP1 REVERT JUMPDEST POP PUSH1 0x40 MLOAD PUSH3 0x4D98 CODESIZE SUB DUP1 PUSH3 0x4D98 DUP4 CODECOPY DUP2 ADD PUSH1 0x40 DUP2 SWAP1 MSTORE PUSH3 0x4D SWAP2 PUSH3 0x1DE JUMP JUMPDEST PUSH3 0x58 CALLER PUSH3 0x171 JUMP JUMPDEST PUSH1 0x1 DUP1 SSTORE PUSH1 0x2 DUP1 SLOAD PUSH1 0xFF NOT AND SWAP1 SSTORE PUSH1 0x1 PUSH1 0x1 PUSH1 0xA0 SHL SUB DUP3 AND PUSH3 0xCD JUMPI PUSH1 0x40 MLOAD PUSH3 0x461BCD PUSH1 0xE5 SHL DUP2 MSTORE PUSH1 0x20 PUSH1 0x4 DUP3 ADD MSTORE PUSH1 0x22 PUSH1 0x24 DUP3 ADD MSTORE PUSH32 0x436F6E74657374466163746F72793A20496E76616C6964204445504520746F6B PUSH1 0x44 DUP3 ADD MSTORE PUSH2 0x32B7 PUSH1 0xF1 SHL PUSH1 0x64 DUP3 ADD MSTORE PUSH1 0x84 ADD JUMPDEST PUSH1 0x40 MLOAD DUP1 SWAP2 SUB SWAP1 REVERT JUMPDEST PUSH1 0x1 PUSH1 0x1 PUSH1 0xA0 SHL SUB DUP2 AND PUSH3 0x135 JUMPI PUSH1 0x40 MLOAD PUSH3 0x461BCD PUSH1 0xE5 SHL DUP2 MSTORE PUSH1 0x20 PUSH1 0x4 DUP3 ADD MSTORE PUSH1 0x27 PUSH1 0x24 DUP3 ADD MSTORE PUSH32 0x436F6E74657374466163746F72793A20496E76616C696420706C6174666F726D PUSH1 0x44 DUP3 ADD MSTORE PUSH7 0x81DD85B1B195D PUSH1 0xCA SHL PUSH1 0x64 DUP3 ADD MSTORE PUSH1 0x84 ADD PUSH3 0xC4 JUMP JUMPDEST PUSH1 0x2 DUP1 SLOAD PUSH2 0x100 PUSH1 0x1 PUSH1 0xA8 SHL SUB NOT AND PUSH2 0x100 PUSH1 0x1 PUSH1 0x1 PUSH1 0xA0 SHL SUB SWAP5 DUP6 AND MUL OR SWAP1 SSTORE PUSH1 0x3 DUP1 SLOAD PUSH1 0x1 PUSH1 0x1 PUSH1 0xA0 SHL SUB NOT AND SWAP2 SWAP1 SWAP3 AND OR SWAP1 SSTORE PUSH3 0x216 JUMP JUMPDEST PUSH1 0x0 DUP1 SLOAD PUSH1 0x1 PUSH1 0x1 PUSH1 0xA0 SHL SUB DUP4 DUP2 AND PUSH1 0x1 PUSH1 0x1 PUSH1 0xA0 SHL SUB NOT DUP4 AND DUP2 OR DUP5 SSTORE PUSH1 0x40 MLOAD SWAP2 SWAP1 SWAP3 AND SWAP3 DUP4 SWAP2 PUSH32 0x8BE0079C531659141344CD1FD0A4F28419497F9722A3DAAFE3B4186F6B6457E0 SWAP2 SWAP1 LOG3 POP POP JUMP JUMPDEST DUP1 MLOAD PUSH1 0x1 PUSH1 0x1 PUSH1 0xA0 SHL SUB DUP2 AND DUP2 EQ PUSH3 0x1D9 JUMPI PUSH1 0x0 DUP1 REVERT JUMPDEST SWAP2 SWAP1 POP JUMP JUMPDEST PUSH1 0x0 DUP1 PUSH1 0x40 DUP4 DUP6 SUB SLT ISZERO PUSH3 0x1F2 JUMPI PUSH1 0x0 DUP1 REVERT JUMPDEST PUSH3 0x1FD DUP4 PUSH3 0x1C1 JUMP JUMPDEST SWAP2 POP PUSH3 0x20D PUSH1 0x20 DUP5 ADD PUSH3 0x1C1 JUMP JUMPDEST SWAP1 POP SWAP3 POP SWAP3 SWAP1 POP JUMP JUMPDEST PUSH2 0x4B72 DUP1 PUSH3 0x226 PUSH1 0x0 CODECOPY PUSH1 0x0 RETURN INVALID PUSH1 0x80 PUSH1 0x40 MSTORE CALLVALUE DUP1 ISZERO PUSH3 0x11 JUMPI PUSH1 0x0 DUP1 REVERT JUMPDEST POP PUSH1 0x4 CALLDATASIZE LT PUSH3 0x1CC JUMPI PUSH1 0x0 CALLDATALOAD PUSH1 0xE0 SHR DUP1 PUSH4 0x782BE8DD GT PUSH3 0x10D JUMPI DUP1 PUSH4 0x9D7ED738 GT PUSH3 0xA3 JUMPI DUP1 PUSH4 0xAFAD27D4 GT PUSH3 0x7A JUMPI DUP1 PUSH4 0xAFAD27D4 EQ PUSH3 0x3A9 JUMPI DUP1 PUSH4 0xBE28377A EQ PUSH3 0x3C0 JUMPI DUP1 PUSH4 0xF2FDE38B EQ PUSH3 0x3E6 JUMPI DUP1 PUSH4 0xFA2AF9DA EQ PUSH3 0x3FD JUMPI PUSH1 0x0 DUP1 REVERT JUMPDEST DUP1 PUSH4 0x9D7ED738 EQ PUSH3 0x35C JUMPI DUP1 PUSH4 0xA0B55672 EQ PUSH3 0x388 JUMPI DUP1 PUSH4 0xADA4EF30 EQ PUSH3 0x392 JUMPI PUSH1 0x0 DUP1 REVERT JUMPDEST DUP1 PUSH4 0x8456CB59 GT PUSH3 0xE4 JUMPI DUP1 PUSH4 0x8456CB59 EQ PUSH3 0x31E JUMPI DUP1 PUSH4 0x8DA5CB5B EQ PUSH3 0x328 JUMPI DUP1 PUSH4 0x904B9F72 EQ PUSH3 0x33A JUMPI DUP1 PUSH4 0x92F83BC2 EQ PUSH3 0x351 JUMPI PUSH1 0x0 DUP1 REVERT JUMPDEST DUP1 PUSH4 0x782BE8DD EQ PUSH3 0x2A8 JUMPI DUP1 PUSH4 0x7EB938A3 EQ PUSH3 0x2D5 JUMPI DUP1 PUSH4 0x80246E4E EQ PUSH3 0x307 JUMPI PUSH1 0x0 DUP1 REVERT JUMPDEST DUP1 PUSH4 0x3F4BA83A GT PUSH3 0x183 JUMPI DUP1 PUSH4 0x5AD3BD7C GT PUSH3 0x15A JUMPI DUP1 PUSH4 0x5AD3BD7C EQ PUSH3 0x275 JUMPI DUP1 PUSH4 0x5C975ABB EQ PUSH3 0x27E JUMPI DUP1 PUSH4 0x64C3C166 EQ PUSH3 0x295 JUMPI DUP1 PUSH4 0x715018A6 EQ PUSH3 0x29E JUMPI PUSH1 0x0 DUP1 REVERT JUMPDEST DUP1 PUSH4 0x3F4BA83A EQ PUSH3 0x24A JUMPI DUP1 PUSH4 0x5312EA8E EQ PUSH3 0x254 JUMPI DUP1 PUSH4 0x539AA77F EQ PUSH3 0x26B JUMPI PUSH1 0x0 DUP1 REVERT JUMPDEST DUP1 PUSH4 0xCBAB4F7 EQ PUSH3 0x1D1 JUMPI DUP1 PUSH4 0x11CF23B5 EQ PUSH3 0x1FB JUMPI DUP1 PUSH4 0x15DF7CF9 EQ PUSH3 0x214 JUMPI DUP1 PUSH4 0x17B561AE EQ PUSH3 0x22B JUMPI DUP1 PUSH4 0x2089988F EQ PUSH3 0x235 JUMPI DUP1 PUSH4 0x2A7F2762 EQ PUSH3 0x240 JUMPI JUMPDEST PUSH1 0x0 DUP1 REVERT JUMPDEST PUSH3 0x1E8 PUSH3 0x1E2 CALLDATASIZE PUSH1 0x4 PUSH3 0x124E JUMP JUMPDEST PUSH3 0x411 JUMP JUMPDEST PUSH1 0x40 MLOAD SWAP1 DUP2 MSTORE PUSH1 0x20 ADD JUMPDEST PUSH1 0x40 MLOAD DUP1 SWAP2 SUB SWAP1 RETURN JUMPDEST PUSH3 0x212 PUSH3 0x20C CALLDATASIZE PUSH1 0x4 PUSH3 0x124E JUMP JUMPDEST PUSH3 0x435 JUMP JUMPDEST STOP JUMPDEST PUSH3 0x1E8 PUSH3 0x225 CALLDATASIZE PUSH1 0x4 PUSH3 0x1285 JUMP JUMPDEST PUSH3 0x4DB JUMP JUMPDEST PUSH3 0x1E8 PUSH1 0x5 SLOAD DUP2 JUMP JUMPDEST PUSH3 0x1E8 PUSH3 0x15180 DUP2 JUMP JUMPDEST PUSH3 0x1E8 PUSH1 0x8 SLOAD DUP2 JUMP JUMPDEST PUSH3 0x212 PUSH3 0x50D JUMP JUMPDEST PUSH3 0x212 PUSH3 0x265 CALLDATASIZE PUSH1 0x4 PUSH3 0x124E JUMP JUMPDEST PUSH3 0x523 JUMP JUMPDEST PUSH3 0x1E8 PUSH2 0x3E8 DUP2 JUMP JUMPDEST PUSH1 0x4 SLOAD PUSH3 0x1E8 JUMP JUMPDEST PUSH1 0x2 SLOAD PUSH1 0xFF AND PUSH1 0x40 MLOAD SWAP1 ISZERO ISZERO DUP2 MSTORE PUSH1 0x20 ADD PUSH3 0x1F2 JUMP JUMPDEST PUSH1 0x5 SLOAD PUSH3 0x1E8 JUMP JUMPDEST PUSH3 0x212 PUSH3 0x642 JUMP JUMPDEST PUSH1 0x5 SLOAD PUSH1 0x4 SLOAD PUSH1 0x8 SLOAD PUSH2 0x3E8 PUSH1 0x40 DUP1 MLOAD SWAP5 DUP6 MSTORE PUSH1 0x20 DUP6 ADD SWAP4 SWAP1 SWAP4 MSTORE SWAP2 DUP4 ADD MSTORE PUSH1 0x60 DUP3 ADD MSTORE PUSH1 0x80 ADD PUSH3 0x1F2 JUMP JUMPDEST PUSH1 0x2 SLOAD PUSH3 0x2EE SWAP1 PUSH2 0x100 SWAP1 DIV PUSH1 0x1 PUSH1 0x1 PUSH1 0xA0 SHL SUB AND DUP2 JUMP JUMPDEST PUSH1 0x40 MLOAD PUSH1 0x1 PUSH1 0x1 PUSH1 0xA0 SHL SUB SWAP1 SWAP2 AND DUP2 MSTORE PUSH1 0x20 ADD PUSH3 0x1F2 JUMP JUMPDEST PUSH3 0x212 PUSH3 0x318 CALLDATASIZE PUSH1 0x4 PUSH3 0x124E JUMP JUMPDEST PUSH3 0x658 JUMP JUMPDEST PUSH3 0x212 PUSH3 0x707 JUMP JUMPDEST PUSH1 0x0 SLOAD PUSH1 0x1 PUSH1 0x1 PUSH1 0xA0 SHL SUB AND PUSH3 0x2EE JUMP JUMPDEST PUSH3 0x2EE PUSH3 0x34B CALLDATASIZE PUSH1 0x4 PUSH3 0x124E JUMP JUMPDEST PUSH3 0x71B JUMP JUMPDEST PUSH3 0x1E8 PUSH3 0x93A80 DUP2 JUMP JUMPDEST PUSH3 0x2EE PUSH3 0x36D CALLDATASIZE PUSH1 0x4 PUSH3 0x124E JUMP JUMPDEST PUSH1 0x6 PUSH1 0x20 MSTORE PUSH1 0x0 SWAP1 DUP2 MSTORE PUSH1 0x40 SWAP1 KECCAK256 SLOAD PUSH1 0x1 PUSH1 0x1 PUSH1 0xA0 SHL SUB AND DUP2 JUMP JUMPDEST PUSH3 0x1E8 PUSH1 0x4 SLOAD DUP2 JUMP JUMPDEST PUSH3 0x212 PUSH3 0x3A3 CALLDATASIZE PUSH1 0x4 PUSH3 0x12B2 JUMP JUMPDEST PUSH3 0x79B JUMP JUMPDEST PUSH3 0x2EE PUSH3 0x3BA CALLDATASIZE PUSH1 0x4 PUSH3 0x137B JUMP JUMPDEST PUSH3 0x851 JUMP JUMPDEST PUSH3 0x3D7 PUSH3 0x3D1 CALLDATASIZE PUSH1 0x4 PUSH3 0x12B2 JUMP JUMPDEST PUSH3 0xEE9 JUMP JUMPDEST PUSH1 0x40 MLOAD PUSH3 0x1F2 SWAP2 SWAP1 PUSH3 0x1403 JUMP JUMPDEST PUSH3 0x212 PUSH3 0x3F7 CALLDATASIZE PUSH1 0x4 PUSH3 0x12B2 JUMP JUMPDEST PUSH3 0xF57 JUMP JUMPDEST PUSH1 0x3 SLOAD PUSH3 0x2EE SWAP1 PUSH1 0x1 PUSH1 0x1 PUSH1 0xA0 SHL SUB AND DUP2 JUMP JUMPDEST PUSH1 0x0 PUSH3 0x42F PUSH2 0x2710 PUSH3 0x428 DUP5 PUSH2 0x3E8 PUSH3 0xFD3 JUMP JUMPDEST SWAP1 PUSH3 0xFE8 JUMP JUMPDEST SWAP3 SWAP2 POP POP JUMP JUMPDEST PUSH3 0x43F PUSH3 0xFF6 JUMP JUMPDEST PUSH1 0x0 DUP2 GT PUSH3 0x495 JUMPI PUSH1 0x40 MLOAD PUSH3 0x461BCD PUSH1 0xE5 SHL DUP2 MSTORE PUSH1 0x20 PUSH1 0x4 DUP3 ADD MSTORE PUSH1 0x1D PUSH1 0x24 DUP3 ADD MSTORE PUSH32 0x436F6E74657374466163746F72793A20496E76616C6964207072696365000000 PUSH1 0x44 DUP3 ADD MSTORE PUSH1 0x64 ADD JUMPDEST PUSH1 0x40 MLOAD DUP1 SWAP2 SUB SWAP1 REVERT JUMPDEST PUSH1 0x8 DUP1 SLOAD SWAP1 DUP3 SWAP1 SSTORE PUSH1 0x40 DUP1 MLOAD DUP3 DUP2 MSTORE PUSH1 0x20 DUP2 ADD DUP5 SWAP1 MSTORE PUSH32 0xEAF078F1D5C2B260E96E4857071E22E5BA4FB9C3E4D8CA543D6674D4EF3F7118 SWAP2 ADD JUMPDEST PUSH1 0x40 MLOAD DUP1 SWAP2 SUB SWAP1 LOG1 POP POP JUMP JUMPDEST PUSH1 0x7 PUSH1 0x20 MSTORE DUP2 PUSH1 0x0 MSTORE PUSH1 0x40 PUSH1 0x0 KECCAK256 DUP2 DUP2 SLOAD DUP2 LT PUSH3 0x4F8 JUMPI PUSH1 0x0 DUP1 REVERT JUMPDEST SWAP1 PUSH1 0x0 MSTORE PUSH1 0x20 PUSH1 0x0 KECCAK256 ADD PUSH1 0x0 SWAP2 POP SWAP2 POP POP SLOAD DUP2 JUMP JUMPDEST PUSH3 0x517 PUSH3 0xFF6 JUMP JUMPDEST PUSH3 0x521 PUSH3 0x1052 JUMP JUMPDEST JUMP JUMPDEST PUSH3 0x52D PUSH3 0xFF6 JUMP JUMPDEST PUSH3 0x537 PUSH3 0x10A6 JUMP JUMPDEST PUSH1 0x2 SLOAD PUSH1 0x1 PUSH1 0x1 PUSH1 0xA0 SHL SUB PUSH2 0x100 SWAP1 SWAP2 DIV AND PUSH4 0xA9059CBB PUSH3 0x561 PUSH1 0x0 SLOAD PUSH1 0x1 PUSH1 0x1 PUSH1 0xA0 SHL SUB AND SWAP1 JUMP JUMPDEST PUSH1 0x40 MLOAD PUSH1 0x1 PUSH1 0x1 PUSH1 0xE0 SHL SUB NOT PUSH1 0xE0 DUP5 SWAP1 SHL AND DUP2 MSTORE PUSH1 0x1 PUSH1 0x1 PUSH1 0xA0 SHL SUB SWAP1 SWAP2 AND PUSH1 0x4 DUP3 ADD MSTORE PUSH1 0x24 DUP2 ADD DUP5 SWAP1 MSTORE PUSH1 0x44 ADD PUSH1 0x20 PUSH1 0x40 MLOAD DUP1 DUP4 SUB DUP2 PUSH1 0x0 DUP8 GAS CALL ISZERO DUP1 ISZERO PUSH3 0x5AF JUMPI RETURNDATASIZE PUSH1 0x0 DUP1 RETURNDATACOPY RETURNDATASIZE PUSH1 0x0 REVERT JUMPDEST POP POP POP POP PUSH1 0x40 MLOAD RETURNDATASIZE PUSH1 0x1F NOT PUSH1 0x1F DUP3 ADD AND DUP3 ADD DUP1 PUSH1 0x40 MSTORE POP DUP2 ADD SWAP1 PUSH3 0x5D5 SWAP2 SWAP1 PUSH3 0x1449 JUMP JUMPDEST PUSH3 0x635 JUMPI PUSH1 0x40 MLOAD PUSH3 0x461BCD PUSH1 0xE5 SHL DUP2 MSTORE PUSH1 0x20 PUSH1 0x4 DUP3 ADD MSTORE PUSH1 0x29 PUSH1 0x24 DUP3 ADD MSTORE PUSH32 0x436F6E74657374466163746F72793A20456D657267656E637920776974686472 PUSH1 0x44 DUP3 ADD MSTORE PUSH9 0x185DC819985A5B1959 PUSH1 0xBA SHL PUSH1 0x64 DUP3 ADD MSTORE PUSH1 0x84 ADD PUSH3 0x48C JUMP JUMPDEST PUSH3 0x63F PUSH1 0x1 DUP1 SSTORE JUMP JUMPDEST POP JUMP JUMPDEST PUSH3 0x64C PUSH3 0xFF6 JUMP JUMPDEST PUSH3 0x521 PUSH1 0x0 PUSH3 0x1101 JUMP JUMPDEST PUSH3 0x662 PUSH3 0xFF6 JUMP JUMPDEST PUSH1 0x0 DUP2 GT PUSH3 0x6C8 JUMPI PUSH1 0x40 MLOAD PUSH3 0x461BCD PUSH1 0xE5 SHL DUP2 MSTORE PUSH1 0x20 PUSH1 0x4 DUP3 ADD MSTORE PUSH1 0x2B PUSH1 0x24 DUP3 ADD MSTORE PUSH32 0x436F6E74657374466163746F72793A20496E76616C6964206D696E696D756D20 PUSH1 0x44 DUP3 ADD MSTORE PUSH11 0x1C1BDBDB08185B5BDD5B9D PUSH1 0xAA SHL PUSH1 0x64 DUP3 ADD MSTORE PUSH1 0x84 ADD PUSH3 0x48C JUMP JUMPDEST PUSH1 0x4 DUP1 SLOAD SWAP1 DUP3 SWAP1 SSTORE PUSH1 0x40 DUP1 MLOAD DUP3 DUP2 MSTORE PUSH1 0x20 DUP2 ADD DUP5 SWAP1 MSTORE PUSH32 0xCAD838AB7E525524E3A341FD264419475F0149F5BF93DD492E0C10595D0F61E6 SWAP2 ADD PUSH3 0x4CF JUMP JUMPDEST PUSH3 0x711 PUSH3 0xFF6 JUMP JUMPDEST PUSH3 0x521 PUSH3 0x1151 JUMP JUMPDEST PUSH1 0x0 PUSH1 0x5 SLOAD DUP3 LT PUSH3 0x77F JUMPI PUSH1 0x40 MLOAD PUSH3 0x461BCD PUSH1 0xE5 SHL DUP2 MSTORE PUSH1 0x20 PUSH1 0x4 DUP3 ADD MSTORE PUSH1 0x26 PUSH1 0x24 DUP3 ADD MSTORE PUSH32 0x436F6E74657374466163746F72793A20436F6E7465737420646F6573206E6F74 PUSH1 0x44 DUP3 ADD MSTORE PUSH6 0x8195E1A5CDD PUSH1 0xD2 SHL PUSH1 0x64 DUP3 ADD MSTORE PUSH1 0x84 ADD PUSH3 0x48C JUMP JUMPDEST POP PUSH1 0x0 SWAP1 DUP2 MSTORE PUSH1 0x6 PUSH1 0x20 MSTORE PUSH1 0x40 SWAP1 KECCAK256 SLOAD PUSH1 0x1 PUSH1 0x1 PUSH1 0xA0 SHL SUB AND SWAP1 JUMP JUMPDEST PUSH3 0x7A5 PUSH3 0xFF6 JUMP JUMPDEST DUP1 PUSH1 0x1 PUSH1 0x1 PUSH1 0xA0 SHL SUB DUP2 AND PUSH3 0x7FE JUMPI PUSH1 0x40 MLOAD PUSH3 0x461BCD PUSH1 0xE5 SHL DUP2 MSTORE PUSH1 0x20 PUSH1 0x4 DUP3 ADD MSTORE PUSH1 0x1F PUSH1 0x24 DUP3 ADD MSTORE PUSH32 0x436F6E74657374466163746F72793A20496E76616C6964206164647265737300 PUSH1 0x44 DUP3 ADD MSTORE PUSH1 0x64 ADD PUSH3 0x48C JUMP JUMPDEST PUSH1 0x3 DUP1 SLOAD PUSH1 0x1 PUSH1 0x1 PUSH1 0xA0 SHL SUB DUP5 DUP2 AND PUSH1 0x1 PUSH1 0x1 PUSH1 0xA0 SHL SUB NOT DUP4 AND DUP2 OR SWAP1 SWAP4 SSTORE PUSH1 0x40 MLOAD SWAP2 AND SWAP2 SWAP1 DUP3 SWAP1 PUSH32 0xF84F6B525C89A18C80BBBC0C62A7EB5390956D6B8432AB067B49963A98F8C38F SWAP1 PUSH1 0x0 SWAP1 LOG3 POP POP POP JUMP JUMPDEST PUSH1 0x0 PUSH3 0x85D PUSH3 0x10A6 JUMP JUMPDEST PUSH3 0x867 PUSH3 0x1191 JUMP JUMPDEST DUP6 PUSH1 0x0 DUP2 GT PUSH3 0x8CA JUMPI PUSH1 0x40 MLOAD PUSH3 0x461BCD PUSH1 0xE5 SHL DUP2 MSTORE PUSH1 0x20 PUSH1 0x4 DUP3 ADD MSTORE PUSH1 0x27 PUSH1 0x24 DUP3 ADD MSTORE PUSH32 0x436F6E74657374466163746F72793A20416D6F756E74206D7573742062652070 PUSH1 0x44 DUP3 ADD MSTORE PUSH7 0x6F736974697665 PUSH1 0xC8 SHL PUSH1 0x64 DUP3 ADD MSTORE PUSH1 0x84 ADD PUSH3 0x48C JUMP JUMPDEST PUSH1 0x1 DUP7 LT ISZERO DUP1 ISZERO PUSH3 0x8DE JUMPI POP PUSH2 0x3E8 DUP7 GT ISZERO JUMPDEST PUSH3 0x938 JUMPI PUSH1 0x40 MLOAD PUSH3 0x461BCD PUSH1 0xE5 SHL DUP2 MSTORE PUSH1 0x20 PUSH1 0x4 DUP3 ADD MSTORE PUSH1 0x23 PUSH1 0x24 DUP3 ADD MSTORE PUSH32 0x436F6E74657374466163746F72793A20496E76616C6964206D696E20656E7472 PUSH1 0x44 DUP3 ADD MSTORE PUSH3 0x696573 PUSH1 0xE8 SHL PUSH1 0x64 DUP3 ADD MSTORE PUSH1 0x84 ADD PUSH3 0x48C JUMP JUMPDEST PUSH3 0x15180 DUP6 LT ISZERO DUP1 ISZERO PUSH3 0x94F JUMPI POP PUSH3 0x93A80 DUP6 GT ISZERO JUMPDEST PUSH3 0x99D JUMPI PUSH1 0x40 MLOAD PUSH3 0x461BCD PUSH1 0xE5 SHL DUP2 MSTORE PUSH1 0x20 PUSH1 0x4 DUP3 ADD DUP2 SWAP1 MSTORE PUSH1 0x24 DUP3 ADD MSTORE PUSH32 0x436F6E74657374466163746F72793A20496E76616C6964206475726174696F6E PUSH1 0x44 DUP3 ADD MSTORE PUSH1 0x64 ADD PUSH3 0x48C JUMP JUMPDEST PUSH1 0x0 DUP5 MLOAD GT DUP1 ISZERO PUSH3 0x9B1 JUMPI POP PUSH1 0xC8 DUP5 MLOAD GT ISZERO JUMPDEST PUSH3 0x9FF JUMPI PUSH1 0x40 MLOAD PUSH3 0x461BCD PUSH1 0xE5 SHL DUP2 MSTORE PUSH1 0x20 PUSH1 0x4 DUP3 ADD MSTORE PUSH1 0x1D PUSH1 0x24 DUP3 ADD MSTORE PUSH32 0x436F6E74657374466163746F72793A20496E76616C6964207469746C65000000 PUSH1 0x44 DUP3 ADD MSTORE PUSH1 0x64 ADD PUSH3 0x48C JUMP JUMPDEST PUSH2 0x1F4 DUP4 MLOAD GT ISZERO PUSH3 0xA60 JUMPI PUSH1 0x40 MLOAD PUSH3 0x461BCD PUSH1 0xE5 SHL DUP2 MSTORE PUSH1 0x20 PUSH1 0x4 DUP3 ADD MSTORE PUSH1 0x24 DUP1 DUP3 ADD MSTORE PUSH32 0x436F6E74657374466163746F72793A204465736372697074696F6E20746F6F20 PUSH1 0x44 DUP3 ADD MSTORE PUSH4 0x6C6F6E67 PUSH1 0xE0 SHL PUSH1 0x64 DUP3 ADD MSTORE PUSH1 0x84 ADD PUSH3 0x48C JUMP JUMPDEST PUSH1 0x4 SLOAD DUP8 LT ISZERO PUSH3 0xAC7 JUMPI PUSH1 0x40 MLOAD PUSH3 0x461BCD PUSH1 0xE5 SHL DUP2 MSTORE PUSH1 0x20 PUSH1 0x4 DUP3 ADD MSTORE PUSH1 0x2A PUSH1 0x24 DUP3 ADD MSTORE PUSH32 0x436F6E74657374466163746F72793A20506F6F6C2062656C6F77206D696E696D PUSH1 0x44 DUP3 ADD MSTORE PUSH10 0x756D20314D2044455045 PUSH1 0xB0 SHL PUSH1 0x64 DUP3 ADD MSTORE PUSH1 0x84 ADD PUSH3 0x48C JUMP JUMPDEST PUSH1 0x0 PUSH3 0xADE PUSH2 0x2710 PUSH3 0x428 DUP11 PUSH2 0x3E8 PUSH3 0xFD3 JUMP JUMPDEST SWAP1 POP PUSH1 0x0 PUSH3 0xAEE DUP10 DUP4 PUSH3 0x11D9 JUMP JUMPDEST PUSH1 0x2 SLOAD PUSH1 0x40 MLOAD PUSH4 0x23B872DD PUSH1 0xE0 SHL DUP2 MSTORE CALLER PUSH1 0x4 DUP3 ADD MSTORE ADDRESS PUSH1 0x24 DUP3 ADD MSTORE PUSH1 0x44 DUP2 ADD DUP13 SWAP1 MSTORE SWAP2 SWAP3 POP PUSH2 0x100 SWAP1 DIV PUSH1 0x1 PUSH1 0x1 PUSH1 0xA0 SHL SUB AND SWAP1 PUSH4 0x23B872DD SWAP1 PUSH1 0x64 ADD PUSH1 0x20 PUSH1 0x40 MLOAD DUP1 DUP4 SUB DUP2 PUSH1 0x0 DUP8 GAS CALL ISZERO DUP1 ISZERO PUSH3 0xB4C JUMPI RETURNDATASIZE PUSH1 0x0 DUP1 RETURNDATACOPY RETURNDATASIZE PUSH1 0x0 REVERT JUMPDEST POP POP POP POP PUSH1 0x40 MLOAD RETURNDATASIZE PUSH1 0x1F NOT PUSH1 0x1F DUP3 ADD AND DUP3 ADD DUP1 PUSH1 0x40 MSTORE POP DUP2 ADD SWAP1 PUSH3 0xB72 SWAP2 SWAP1 PUSH3 0x1449 JUMP JUMPDEST PUSH3 0xBC0 JUMPI PUSH1 0x40 MLOAD PUSH3 0x461BCD PUSH1 0xE5 SHL DUP2 MSTORE PUSH1 0x20 PUSH1 0x4 DUP3 ADD MSTORE PUSH1 0x1F PUSH1 0x24 DUP3 ADD MSTORE PUSH32 0x436F6E74657374466163746F72793A205472616E73666572206661696C656400 PUSH1 0x44 DUP3 ADD MSTORE PUSH1 0x64 ADD PUSH3 0x48C JUMP JUMPDEST DUP2 ISZERO PUSH3 0xCAB JUMPI PUSH1 0x2 SLOAD PUSH1 0x3 SLOAD PUSH1 0x40 MLOAD PUSH4 0xA9059CBB PUSH1 0xE0 SHL DUP2 MSTORE PUSH1 0x1 PUSH1 0x1 PUSH1 0xA0 SHL SUB SWAP2 DUP3 AND PUSH1 0x4 DUP3 ADD MSTORE PUSH1 0x24 DUP2 ADD DUP6 SWAP1 MSTORE PUSH2 0x100 SWAP1 SWAP3 DIV AND SWAP1 PUSH4 0xA9059CBB SWAP1 PUSH1 0x44 ADD PUSH1 0x20 PUSH1 0x40 MLOAD DUP1 DUP4 SUB DUP2 PUSH1 0x0 DUP8 GAS CALL ISZERO DUP1 ISZERO PUSH3 0xC22 JUMPI RETURNDATASIZE PUSH1 0x0 DUP1 RETURNDATACOPY RETURNDATASIZE PUSH1 0x0 REVERT JUMPDEST POP POP POP POP PUSH1 0x40 MLOAD RETURNDATASIZE PUSH1 0x1F NOT PUSH1 0x1F DUP3 ADD AND DUP3 ADD DUP1 PUSH1 0x40 MSTORE POP DUP2 ADD SWAP1 PUSH3 0xC48 SWAP2 SWAP1 PUSH3 0x1449 JUMP JUMPDEST PUSH3 0xCAB JUMPI PUSH1 0x40 MLOAD PUSH3 0x461BCD PUSH1 0xE5 SHL DUP2 MSTORE PUSH1 0x20 PUSH1 0x4 DUP3 ADD MSTORE PUSH1 0x2C PUSH1 0x24 DUP3 ADD MSTORE PUSH32 0x436F6E74657374466163746F72793A20506C6174666F726D2066656520747261 PUSH1 0x44 DUP3 ADD MSTORE PUSH12 0x1B9CD9995C8819985A5B1959 PUSH1 0xA2 SHL PUSH1 0x64 DUP3 ADD MSTORE PUSH1 0x84 ADD PUSH3 0x48C JUMP JUMPDEST PUSH1 0x0 PUSH1 0x2 PUSH1 0x1 SWAP1 SLOAD SWAP1 PUSH2 0x100 EXP SWAP1 DIV PUSH1 0x1 PUSH1 0x1 PUSH1 0xA0 SHL SUB AND CALLER DUP4 DUP12 DUP12 DUP12 DUP12 PUSH1 0x40 MLOAD PUSH3 0xCD7 SWAP1 PUSH3 0x1240 JUMP JUMPDEST PUSH3 0xCE9 SWAP8 SWAP7 SWAP6 SWAP5 SWAP4 SWAP3 SWAP2 SWAP1 PUSH3 0x14B5 JUMP JUMPDEST PUSH1 0x40 MLOAD DUP1 SWAP2 SUB SWAP1 PUSH1 0x0 CREATE DUP1 ISZERO DUP1 ISZERO PUSH3 0xD06 JUMPI RETURNDATASIZE PUSH1 0x0 DUP1 RETURNDATACOPY RETURNDATASIZE PUSH1 0x0 REVERT JUMPDEST POP PUSH1 0x2 SLOAD PUSH1 0x40 MLOAD PUSH4 0xA9059CBB PUSH1 0xE0 SHL DUP2 MSTORE PUSH1 0x1 PUSH1 0x1 PUSH1 0xA0 SHL SUB DUP1 DUP5 AND PUSH1 0x4 DUP4 ADD MSTORE PUSH1 0x24 DUP3 ADD DUP7 SWAP1 MSTORE SWAP3 SWAP4 POP PUSH2 0x100 SWAP1 SWAP2 DIV SWAP1 SWAP2 AND SWAP1 PUSH4 0xA9059CBB SWAP1 PUSH1 0x44 ADD PUSH1 0x20 PUSH1 0x40 MLOAD DUP1 DUP4 SUB DUP2 PUSH1 0x0 DUP8 GAS CALL ISZERO DUP1 ISZERO PUSH3 0xD64 JUMPI RETURNDATASIZE PUSH1 0x0 DUP1 RETURNDATACOPY RETURNDATASIZE PUSH1 0x0 REVERT JUMPDEST POP POP POP POP PUSH1 0x40 MLOAD RETURNDATASIZE PUSH1 0x1F NOT PUSH1 0x1F DUP3 ADD AND DUP3 ADD DUP1 PUSH1 0x40 MSTORE POP DUP2 ADD SWAP1 PUSH3 0xD8A SWAP2 SWAP1 PUSH3 0x1449 JUMP JUMPDEST PUSH3 0xDE7 JUMPI PUSH1 0x40 MLOAD PUSH3 0x461BCD PUSH1 0xE5 SHL DUP2 MSTORE PUSH1 0x20 PUSH1 0x4 DUP3 ADD MSTORE PUSH1 0x26 PUSH1 0x24 DUP3 ADD MSTORE PUSH32 0x436F6E74657374466163746F72793A20436F6E746573742066756E64696E6720 PUSH1 0x44 DUP3 ADD MSTORE PUSH6 0x19985A5B1959 PUSH1 0xD2 SHL PUSH1 0x64 DUP3 ADD MSTORE PUSH1 0x84 ADD PUSH3 0x48C JUMP JUMPDEST PUSH1 0x5 DUP1 SLOAD PUSH1 0x0 DUP2 DUP2 MSTORE PUSH1 0x6 PUSH1 0x20 SWAP1 DUP2 MSTORE PUSH1 0x40 DUP1 DUP4 KECCAK256 DUP1 SLOAD PUSH1 0x1 PUSH1 0x1 PUSH1 0xA0 SHL SUB NOT AND PUSH1 0x1 PUSH1 0x1 PUSH1 0xA0 SHL SUB DUP9 AND OR SWAP1 SSTORE CALLER DUP4 MSTORE PUSH1 0x7 DUP3 MSTORE DUP3 KECCAK256 DUP1 SLOAD PUSH1 0x1 DUP2 DUP2 ADD DUP4 SSTORE SWAP2 DUP5 MSTORE SWAP2 SWAP1 SWAP3 KECCAK256 ADD DUP3 SWAP1 SSTORE SWAP2 SLOAD SWAP1 SWAP2 PUSH3 0xE42 SWAP2 SWAP1 PUSH3 0x11E7 JUMP JUMPDEST PUSH1 0x5 SSTORE PUSH1 0x40 DUP1 MLOAD DUP5 DUP2 MSTORE PUSH1 0x20 DUP2 ADD DUP13 SWAP1 MSTORE SWAP1 DUP2 ADD DUP11 SWAP1 MSTORE CALLER SWAP1 PUSH1 0x1 PUSH1 0x1 PUSH1 0xA0 SHL SUB DUP5 AND SWAP1 DUP4 SWAP1 PUSH32 0x7C851F5C6A4E6F4AFBED9A67C5DAEF4BC200867E239C64D2C711CFB851F6A5D SWAP1 PUSH1 0x60 ADD PUSH1 0x40 MLOAD DUP1 SWAP2 SUB SWAP1 LOG4 DUP1 PUSH32 0xB44D21D6AA5E66A69A34E93FD05973ECE923106133B622B45E63C9D37CBEF53 DUP6 PUSH1 0x40 MLOAD PUSH3 0xEC8 SWAP2 DUP2 MSTORE PUSH1 0x20 ADD SWAP1 JUMP JUMPDEST PUSH1 0x40 MLOAD DUP1 SWAP2 SUB SWAP1 LOG2 POP SWAP4 POP POP POP POP PUSH3 0xEE0 PUSH1 0x1 DUP1 SSTORE JUMP JUMPDEST SWAP6 SWAP5 POP POP POP POP POP JUMP JUMPDEST PUSH1 0x1 PUSH1 0x1 PUSH1 0xA0 SHL SUB DUP2 AND PUSH1 0x0 SWAP1 DUP2 MSTORE PUSH1 0x7 PUSH1 0x20 SWAP1 DUP2 MSTORE PUSH1 0x40 SWAP2 DUP3 SWAP1 KECCAK256 DUP1 SLOAD DUP4 MLOAD DUP2 DUP5 MUL DUP2 ADD DUP5 ADD SWAP1 SWAP5 MSTORE DUP1 DUP5 MSTORE PUSH1 0x60 SWAP4 SWAP3 DUP4 ADD DUP3 DUP3 DUP1 ISZERO PUSH3 0xF4B JUMPI PUSH1 0x20 MUL DUP3 ADD SWAP2 SWAP1 PUSH1 0x0 MSTORE PUSH1 0x20 PUSH1 0x0 KECCAK256 SWAP1 JUMPDEST DUP2 SLOAD DUP2 MSTORE PUSH1 0x20 ADD SWAP1 PUSH1 0x1 ADD SWAP1 DUP1 DUP4 GT PUSH3 0xF36 JUMPI JUMPDEST POP POP POP POP POP SWAP1 POP SWAP2 SWAP1 POP JUMP JUMPDEST PUSH3 0xF61 PUSH3 0xFF6 JUMP JUMPDEST PUSH1 0x1 PUSH1 0x1 PUSH1 0xA0 SHL SUB DUP2 AND PUSH3 0xFC8 JUMPI PUSH1 0x40 MLOAD PUSH3 0x461BCD PUSH1 0xE5 SHL DUP2 MSTORE PUSH1 0x20 PUSH1 0x4 DUP3 ADD MSTORE PUSH1 0x26 PUSH1 0x24 DUP3 ADD MSTORE PUSH32 0x4F776E61626C653A206E6577206F776E657220697320746865207A65726F2061 PUSH1 0x44 DUP3 ADD MSTORE PUSH6 0x646472657373 PUSH1 0xD0 SHL PUSH1 0x64 DUP3 ADD MSTORE PUSH1 0x84 ADD PUSH3 0x48C JUMP JUMPDEST PUSH3 0x63F DUP2 PUSH3 0x1101 JUMP JUMPDEST PUSH1 0x0 PUSH3 0xFE1 DUP3 DUP5 PUSH3 0x152C JUMP JUMPDEST SWAP4 SWAP3 POP POP POP JUMP JUMPDEST PUSH1 0x0 PUSH3 0xFE1 DUP3 DUP5 PUSH3 0x1546 JUMP JUMPDEST PUSH1 0x0 SLOAD PUSH1 0x1 PUSH1 0x1 PUSH1 0xA0 SHL SUB AND CALLER EQ PUSH3 0x521 JUMPI PUSH1 0x40 MLOAD PUSH3 0x461BCD PUSH1 0xE5 SHL DUP2 MSTORE PUSH1 0x20 PUSH1 0x4 DUP3 ADD DUP2 SWAP1 MSTORE PUSH1 0x24 DUP3 ADD MSTORE PUSH32 0x4F776E61626C653A2063616C6C6572206973206E6F7420746865206F776E6572 PUSH1 0x44 DUP3 ADD MSTORE PUSH1 0x64 ADD PUSH3 0x48C JUMP JUMPDEST PUSH3 0x105C PUSH3 0x11F5 JUMP JUMPDEST PUSH1 0x2 DUP1 SLOAD PUSH1 0xFF NOT AND SWAP1 SSTORE PUSH32 0x5DB9EE0A495BF2E6FF9C91A7834C1BA4FDD244A5E8AA4E537BD38AEAE4B073AA CALLER JUMPDEST PUSH1 0x40 MLOAD PUSH1 0x1 PUSH1 0x1 PUSH1 0xA0 SHL SUB SWAP1 SWAP2 AND DUP2 MSTORE PUSH1 0x20 ADD PUSH1 0x40 MLOAD DUP1 SWAP2 SUB SWAP1 LOG1 JUMP JUMPDEST PUSH1 0x2 PUSH1 0x1 SLOAD SUB PUSH3 0x10FA JUMPI PUSH1 0x40 MLOAD PUSH3 0x461BCD PUSH1 0xE5 SHL DUP2 MSTORE PUSH1 0x20 PUSH1 0x4 DUP3 ADD MSTORE PUSH1 0x1F PUSH1 0x24 DUP3 ADD MSTORE PUSH32 0x5265656E7472616E637947756172643A207265656E7472616E742063616C6C00 PUSH1 0x44 DUP3 ADD MSTORE PUSH1 0x64 ADD PUSH3 0x48C JUMP JUMPDEST PUSH1 0x2 PUSH1 0x1 SSTORE JUMP JUMPDEST PUSH1 0x0 DUP1 SLOAD PUSH1 0x1 PUSH1 0x1 PUSH1 0xA0 SHL SUB DUP4 DUP2 AND PUSH1 0x1 PUSH1 0x1 PUSH1 0xA0 SHL SUB NOT DUP4 AND DUP2 OR DUP5 SSTORE PUSH1 0x40 MLOAD SWAP2 SWAP1 SWAP3 AND SWAP3 DUP4 SWAP2 PUSH32 0x8BE0079C531659141344CD1FD0A4F28419497F9722A3DAAFE3B4186F6B6457E0 SWAP2 SWAP1 LOG3 POP POP JUMP JUMPDEST PUSH3 0x115B PUSH3 0x1191 JUMP JUMPDEST PUSH1 0x2 DUP1 SLOAD PUSH1 0xFF NOT AND PUSH1 0x1 OR SWAP1 SSTORE PUSH32 0x62E78CEA01BEE320CD4E420270B5EA74000D11B0C9F74754EBDBFC544B05A258 PUSH3 0x1089 CALLER SWAP1 JUMP JUMPDEST PUSH1 0x2 SLOAD PUSH1 0xFF AND ISZERO PUSH3 0x521 JUMPI PUSH1 0x40 MLOAD PUSH3 0x461BCD PUSH1 0xE5 SHL DUP2 MSTORE PUSH1 0x20 PUSH1 0x4 DUP3 ADD MSTORE PUSH1 0x10 PUSH1 0x24 DUP3 ADD MSTORE PUSH16 0x14185D5CD8589B194E881C185D5CD959 PUSH1 0x82 SHL PUSH1 0x44 DUP3 ADD MSTORE PUSH1 0x64 ADD PUSH3 0x48C JUMP JUMPDEST PUSH1 0x0 PUSH3 0xFE1 DUP3 DUP5 PUSH3 0x1569 JUMP JUMPDEST PUSH1 0x0 PUSH3 0xFE1 DUP3 DUP5 PUSH3 0x157F JUMP JUMPDEST PUSH1 0x2 SLOAD PUSH1 0xFF AND PUSH3 0x521 JUMPI PUSH1 0x40 MLOAD PUSH3 0x461BCD PUSH1 0xE5 SHL DUP2 MSTORE PUSH1 0x20 PUSH1 0x4 DUP3 ADD MSTORE PUSH1 0x14 PUSH1 0x24 DUP3 ADD MSTORE PUSH20 0x14185D5CD8589B194E881B9BDD081C185D5CD959 PUSH1 0x62 SHL PUSH1 0x44 DUP3 ADD MSTORE PUSH1 0x64 ADD PUSH3 0x48C JUMP JUMPDEST PUSH2 0x35A7 DUP1 PUSH3 0x1596 DUP4 CODECOPY ADD SWAP1 JUMP JUMPDEST PUSH1 0x0 PUSH1 0x20 DUP3 DUP5 SUB SLT ISZERO PUSH3 0x1261 JUMPI PUSH1 0x0 DUP1 REVERT JUMPDEST POP CALLDATALOAD SWAP2 SWAP1 POP JUMP JUMPDEST DUP1 CALLDATALOAD PUSH1 0x1 PUSH1 0x1 PUSH1 0xA0 SHL SUB DUP2 AND DUP2 EQ PUSH3 0x1280 JUMPI PUSH1 0x0 DUP1 REVERT JUMPDEST SWAP2 SWAP1 POP JUMP JUMPDEST PUSH1 0x0 DUP1 PUSH1 0x40 DUP4 DUP6 SUB SLT ISZERO PUSH3 0x1299 JUMPI PUSH1 0x0 DUP1 REVERT JUMPDEST PUSH3 0x12A4 DUP4 PUSH3 0x1268 JUMP JUMPDEST SWAP5 PUSH1 0x20 SWAP4 SWAP1 SWAP4 ADD CALLDATALOAD SWAP4 POP POP POP JUMP JUMPDEST PUSH1 0x0 PUSH1 0x20 DUP3 DUP5 SUB SLT ISZERO PUSH3 0x12C5 JUMPI PUSH1 0x0 DUP1 REVERT JUMPDEST PUSH3 0xFE1 DUP3 PUSH3 0x1268 JUMP JUMPDEST PUSH4 0x4E487B71 PUSH1 0xE0 SHL PUSH1 0x0 MSTORE PUSH1 0x41 PUSH1 0x4 MSTORE PUSH1 0x24 PUSH1 0x0 REVERT JUMPDEST PUSH1 0x0 DUP3 PUSH1 0x1F DUP4 ADD SLT PUSH3 0x12F8 JUMPI PUSH1 0x0 DUP1 REVERT JUMPDEST DUP2 CALLDATALOAD PUSH8 0xFFFFFFFFFFFFFFFF DUP1 DUP3 GT ISZERO PUSH3 0x1316 JUMPI PUSH3 0x1316 PUSH3 0x12D0 JUMP JUMPDEST PUSH1 0x40 MLOAD PUSH1 0x1F DUP4 ADD PUSH1 0x1F NOT SWAP1 DUP2 AND PUSH1 0x3F ADD AND DUP2 ADD SWAP1 DUP3 DUP3 GT DUP2 DUP4 LT OR ISZERO PUSH3 0x1341 JUMPI PUSH3 0x1341 PUSH3 0x12D0 JUMP JUMPDEST DUP2 PUSH1 0x40 MSTORE DUP4 DUP2 MSTORE DUP7 PUSH1 0x20 DUP6 DUP9 ADD ADD GT ISZERO PUSH3 0x135B JUMPI PUSH1 0x0 DUP1 REVERT JUMPDEST DUP4 PUSH1 0x20 DUP8 ADD PUSH1 0x20 DUP4 ADD CALLDATACOPY PUSH1 0x0 PUSH1 0x20 DUP6 DUP4 ADD ADD MSTORE DUP1 SWAP5 POP POP POP POP POP SWAP3 SWAP2 POP POP JUMP JUMPDEST PUSH1 0x0 DUP1 PUSH1 0x0 DUP1 PUSH1 0x0 PUSH1 0xA0 DUP7 DUP9 SUB SLT ISZERO PUSH3 0x1394 JUMPI PUSH1 0x0 DUP1 REVERT JUMPDEST DUP6 CALLDATALOAD SWAP5 POP PUSH1 0x20 DUP7 ADD CALLDATALOAD SWAP4 POP PUSH1 0x40 DUP7 ADD CALLDATALOAD SWAP3 POP PUSH1 0x60 DUP7 ADD CALLDATALOAD PUSH8 0xFFFFFFFFFFFFFFFF DUP1 DUP3 GT ISZERO PUSH3 0x13C2 JUMPI PUSH1 0x0 DUP1 REVERT JUMPDEST PUSH3 0x13D0 DUP10 DUP4 DUP11 ADD PUSH3 0x12E6 JUMP JUMPDEST SWAP4 POP PUSH1 0x80 DUP9 ADD CALLDATALOAD SWAP2 POP DUP1 DUP3 GT ISZERO PUSH3 0x13E7 JUMPI PUSH1 0x0 DUP1 REVERT JUMPDEST POP PUSH3 0x13F6 DUP9 DUP3 DUP10 ADD PUSH3 0x12E6 JUMP JUMPDEST SWAP2 POP POP SWAP3 SWAP6 POP SWAP3 SWAP6 SWAP1 SWAP4 POP JUMP JUMPDEST PUSH1 0x20 DUP1 DUP3 MSTORE DUP3 MLOAD DUP3 DUP3 ADD DUP2 SWAP1 MSTORE PUSH1 0x0 SWAP2 SWAP1 DUP5 DUP3 ADD SWAP1 PUSH1 0x40 DUP6 ADD SWAP1 DUP5 JUMPDEST DUP2 DUP2 LT ISZERO PUSH3 0x143D JUMPI DUP4 MLOAD DUP4 MSTORE SWAP3 DUP5 ADD SWAP3 SWAP2 DUP5 ADD SWAP2 PUSH1 0x1 ADD PUSH3 0x141F JUMP JUMPDEST POP SWAP1 SWAP7 SWAP6 POP POP POP POP POP POP JUMP JUMPDEST PUSH1 0x0 PUSH1 0x20 DUP3 DUP5 SUB SLT ISZERO PUSH3 0x145C JUMPI PUSH1 0x0 DUP1 REVERT JUMPDEST DUP2 MLOAD DUP1 ISZERO ISZERO DUP2 EQ PUSH3 0xFE1 JUMPI PUSH1 0x0 DUP1 REVERT JUMPDEST PUSH1 0x0 DUP2 MLOAD DUP1 DUP5 MSTORE PUSH1 0x0 JUMPDEST DUP2 DUP2 LT ISZERO PUSH3 0x1495 JUMPI PUSH1 0x20 DUP2 DUP6 ADD DUP2 ADD MLOAD DUP7 DUP4 ADD DUP3 ADD MSTORE ADD PUSH3 0x1477 JUMP JUMPDEST POP PUSH1 0x0 PUSH1 0x20 DUP3 DUP7 ADD ADD MSTORE PUSH1 0x20 PUSH1 0x1F NOT PUSH1 0x1F DUP4 ADD AND DUP6 ADD ADD SWAP2 POP POP SWAP3 SWAP2 POP POP JUMP JUMPDEST PUSH1 0x0 PUSH1 0x1 DUP1 PUSH1 0xA0 SHL SUB DUP1 DUP11 AND DUP4 MSTORE DUP1 DUP10 AND PUSH1 0x20 DUP5 ADD MSTORE POP DUP7 PUSH1 0x40 DUP4 ADD MSTORE DUP6 PUSH1 0x60 DUP4 ADD MSTORE DUP5 PUSH1 0x80 DUP4 ADD MSTORE PUSH1 0xE0 PUSH1 0xA0 DUP4 ADD MSTORE PUSH3 0x14F4 PUSH1 0xE0 DUP4 ADD DUP6 PUSH3 0x146D JUMP JUMPDEST DUP3 DUP2 SUB PUSH1 0xC0 DUP5 ADD MSTORE PUSH3 0x1508 DUP2 DUP6 PUSH3 0x146D JUMP JUMPDEST SWAP11 SWAP10 POP POP POP POP POP POP POP POP POP POP JUMP JUMPDEST PUSH4 0x4E487B71 PUSH1 0xE0 SHL PUSH1 0x0 MSTORE PUSH1 0x11 PUSH1 0x4 MSTORE PUSH1 0x24 PUSH1 0x0 REVERT JUMPDEST DUP1 DUP3 MUL DUP2 ISZERO DUP3 DUP3 DIV DUP5 EQ OR PUSH3 0x42F JUMPI PUSH3 0x42F PUSH3 0x1516 JUMP JUMPDEST PUSH1 0x0 DUP3 PUSH3 0x1564 JUMPI PUSH4 0x4E487B71 PUSH1 0xE0 SHL PUSH1 0x0 MSTORE PUSH1 0x12 PUSH1 0x4 MSTORE PUSH1 0x24 PUSH1 0x0 REVERT JUMPDEST POP DIV SWAP1 JUMP JUMPDEST DUP2 DUP2 SUB DUP2 DUP2 GT ISZERO PUSH3 0x42F JUMPI PUSH3 0x42F PUSH3 0x1516 JUMP JUMPDEST DUP1 DUP3 ADD DUP1 DUP3 GT ISZERO PUSH3 0x42F JUMPI PUSH3 0x42F PUSH3 0x1516 JUMP INVALID PUSH1 0x80 PUSH1 0x40 MSTORE PUSH7 0x4F94AE6AF8000 PUSH1 0x19 SSTORE CALLVALUE DUP1 ISZERO PUSH3 0x1C JUMPI PUSH1 0x0 DUP1 REVERT JUMPDEST POP PUSH1 0x40 MLOAD PUSH3 0x35A7 CODESIZE SUB DUP1 PUSH3 0x35A7 DUP4 CODECOPY DUP2 ADD PUSH1 0x40 DUP2 SWAP1 MSTORE PUSH3 0x3F SWAP2 PUSH3 0x4A8 JUMP JUMPDEST PUSH3 0x4A CALLER PUSH3 0x343 JUMP JUMPDEST PUSH1 0x1 DUP1 SSTORE PUSH1 0x2 DUP1 SLOAD PUSH1 0xFF NOT AND SWAP1 SSTORE PUSH1 0x1 PUSH1 0x1 PUSH1 0xA0 SHL SUB DUP8 AND PUSH3 0xC0 JUMPI PUSH1 0x40 MLOAD PUSH3 0x461BCD PUSH1 0xE5 SHL DUP2 MSTORE PUSH1 0x20 PUSH1 0x4 DUP3 ADD MSTORE PUSH1 0x23 PUSH1 0x24 DUP3 ADD MSTORE PUSH32 0x436F6E74657374496E7374616E63653A20496E76616C6964204445504520746F PUSH1 0x44 DUP3 ADD MSTORE PUSH3 0x35B2B7 PUSH1 0xE9 SHL PUSH1 0x64 DUP3 ADD MSTORE PUSH1 0x84 ADD JUMPDEST PUSH1 0x40 MLOAD DUP1 SWAP2 SUB SWAP1 REVERT JUMPDEST PUSH1 0x1 PUSH1 0x1 PUSH1 0xA0 SHL SUB DUP7 AND PUSH3 0x118 JUMPI PUSH1 0x40 MLOAD PUSH3 0x461BCD PUSH1 0xE5 SHL DUP2 MSTORE PUSH1 0x20 PUSH1 0x4 DUP3 ADD DUP2 SWAP1 MSTORE PUSH1 0x24 DUP3 ADD MSTORE PUSH32 0x436F6E74657374496E7374616E63653A20496E76616C69642063726561746F72 PUSH1 0x44 DUP3 ADD MSTORE PUSH1 0x64 ADD PUSH3 0xB7 JUMP JUMPDEST PUSH1 0x0 DUP6 GT PUSH3 0x17C JUMPI PUSH1 0x40 MLOAD PUSH3 0x461BCD PUSH1 0xE5 SHL DUP2 MSTORE PUSH1 0x20 PUSH1 0x4 DUP3 ADD MSTORE PUSH1 0x29 PUSH1 0x24 DUP3 ADD MSTORE PUSH32 0x436F6E74657374496E7374616E63653A20496E76616C6964206D656D6520706F PUSH1 0x44 DUP3 ADD MSTORE PUSH9 0x1BDB08185B5BDD5B9D PUSH1 0xBA SHL PUSH1 0x64 DUP3 ADD MSTORE PUSH1 0x84 ADD PUSH3 0xB7 JUMP JUMPDEST PUSH1 0x1 DUP5 LT ISZERO PUSH3 0x1DB JUMPI PUSH1 0x40 MLOAD PUSH3 0x461BCD PUSH1 0xE5 SHL DUP2 MSTORE PUSH1 0x20 PUSH1 0x4 DUP3 ADD MSTORE PUSH1 0x24 DUP1 DUP3 ADD MSTORE PUSH32 0x436F6E74657374496E7374616E63653A20496E76616C6964206D696E20656E74 PUSH1 0x44 DUP3 ADD MSTORE PUSH4 0x72696573 PUSH1 0xE0 SHL PUSH1 0x64 DUP3 ADD MSTORE PUSH1 0x84 ADD PUSH3 0xB7 JUMP JUMPDEST PUSH1 0x0 DUP4 GT PUSH3 0x237 JUMPI PUSH1 0x40 MLOAD PUSH3 0x461BCD PUSH1 0xE5 SHL DUP2 MSTORE PUSH1 0x20 PUSH1 0x4 DUP3 ADD MSTORE PUSH1 0x21 PUSH1 0x24 DUP3 ADD MSTORE PUSH32 0x436F6E74657374496E7374616E63653A20496E76616C6964206475726174696F PUSH1 0x44 DUP3 ADD MSTORE PUSH1 0x37 PUSH1 0xF9 SHL PUSH1 0x64 DUP3 ADD MSTORE PUSH1 0x84 ADD PUSH3 0xB7 JUMP JUMPDEST PUSH1 0x2 DUP1 SLOAD PUSH2 0x100 PUSH1 0x1 PUSH1 0xA8 SHL SUB NOT AND PUSH2 0x100 PUSH1 0x1 PUSH1 0x1 PUSH1 0xA0 SHL SUB DUP11 DUP2 AND SWAP2 SWAP1 SWAP2 MUL SWAP2 SWAP1 SWAP2 OR SWAP1 SWAP2 SSTORE PUSH1 0x3 DUP1 SLOAD PUSH1 0x1 PUSH1 0x1 PUSH1 0xA0 SHL SUB NOT AND SWAP2 DUP9 AND SWAP2 SWAP1 SWAP2 OR SWAP1 SSTORE PUSH1 0x4 DUP6 SWAP1 SSTORE PUSH1 0x6 DUP5 SWAP1 SSTORE PUSH1 0x7 DUP4 SWAP1 SSTORE PUSH1 0xA PUSH3 0x293 DUP4 DUP3 PUSH3 0x5E5 JUMP JUMPDEST POP PUSH1 0xB PUSH3 0x2A2 DUP3 DUP3 PUSH3 0x5E5 JUMP JUMPDEST POP PUSH1 0x0 PUSH3 0x2BF PUSH1 0x64 PUSH3 0x2B8 DUP7 PUSH1 0x3C PUSH3 0x393 JUMP JUMPDEST SWAP1 PUSH3 0x3AA JUMP JUMPDEST SWAP1 POP PUSH3 0x2CD TIMESTAMP DUP3 PUSH3 0x3B8 JUMP JUMPDEST PUSH1 0x8 SSTORE PUSH3 0x2DC TIMESTAMP DUP6 PUSH3 0x3B8 JUMP JUMPDEST PUSH1 0x9 SSTORE PUSH1 0xC DUP1 SLOAD PUSH1 0xFF NOT AND SWAP1 SSTORE PUSH1 0x40 DUP1 MLOAD DUP8 DUP2 MSTORE PUSH1 0x20 DUP2 ADD DUP8 SWAP1 MSTORE SWAP1 DUP2 ADD DUP6 SWAP1 MSTORE PUSH1 0x1 PUSH1 0x1 PUSH1 0xA0 SHL SUB DUP9 AND SWAP1 PUSH32 0xE88E8C4FEE89D9778B8507F3CCE3A1F8D3EE7C1707B40DD29178F53AEC760B9 SWAP1 PUSH1 0x60 ADD PUSH1 0x40 MLOAD DUP1 SWAP2 SUB SWAP1 LOG2 POP POP POP POP POP POP POP POP PUSH3 0x71A JUMP JUMPDEST PUSH1 0x0 DUP1 SLOAD PUSH1 0x1 PUSH1 0x1 PUSH1 0xA0 SHL SUB DUP4 DUP2 AND PUSH1 0x1 PUSH1 0x1 PUSH1 0xA0 SHL SUB NOT DUP4 AND DUP2 OR DUP5 SSTORE PUSH1 0x40 MLOAD SWAP2 SWAP1 SWAP3 AND SWAP3 DUP4 SWAP2 PUSH32 0x8BE0079C531659141344CD1FD0A4F28419497F9722A3DAAFE3B4186F6B6457E0 SWAP2 SWAP1 LOG3 POP POP JUMP JUMPDEST PUSH1 0x0 PUSH3 0x3A1 DUP3 DUP5 PUSH3 0x6C7 JUMP JUMPDEST SWAP1 POP JUMPDEST SWAP3 SWAP2 POP POP JUMP JUMPDEST PUSH1 0x0 PUSH3 0x3A1 DUP3 DUP5 PUSH3 0x6E1 JUMP JUMPDEST PUSH1 0x0 PUSH3 0x3A1 DUP3 DUP5 PUSH3 0x704 JUMP JUMPDEST DUP1 MLOAD PUSH1 0x1 PUSH1 0x1 PUSH1 0xA0 SHL SUB DUP2 AND DUP2 EQ PUSH3 0x3DE JUMPI PUSH1 0x0 DUP1 REVERT JUMPDEST SWAP2 SWAP1 POP JUMP JUMPDEST PUSH4 0x4E487B71 PUSH1 0xE0 SHL PUSH1 0x0 MSTORE PUSH1 0x41 PUSH1 0x4 MSTORE PUSH1 0x24 PUSH1 0x0 REVERT JUMPDEST PUSH1 0x0 DUP3 PUSH1 0x1F DUP4 ADD SLT PUSH3 0x40B JUMPI PUSH1 0x0 DUP1 REVERT JUMPDEST DUP2 MLOAD PUSH1 0x1 PUSH1 0x1 PUSH1 0x40 SHL SUB DUP1 DUP3 GT ISZERO PUSH3 0x428 JUMPI PUSH3 0x428 PUSH3 0x3E3 JUMP JUMPDEST PUSH1 0x40 MLOAD PUSH1 0x1F DUP4 ADD PUSH1 0x1F NOT SWAP1 DUP2 AND PUSH1 0x3F ADD AND DUP2 ADD SWAP1 DUP3 DUP3 GT DUP2 DUP4 LT OR ISZERO PUSH3 0x453 JUMPI PUSH3 0x453 PUSH3 0x3E3 JUMP JUMPDEST DUP2 PUSH1 0x40 MSTORE DUP4 DUP2 MSTORE PUSH1 0x20 SWAP3 POP DUP7 DUP4 DUP6 DUP9 ADD ADD GT ISZERO PUSH3 0x470 JUMPI PUSH1 0x0 DUP1 REVERT JUMPDEST PUSH1 0x0 SWAP2 POP JUMPDEST DUP4 DUP3 LT ISZERO PUSH3 0x494 JUMPI DUP6 DUP3 ADD DUP4 ADD MLOAD DUP2 DUP4 ADD DUP5 ADD MSTORE SWAP1 DUP3 ADD SWAP1 PUSH3 0x475 JUMP JUMPDEST PUSH1 0x0 SWAP4 DUP2 ADD SWAP1 SWAP3 ADD SWAP3 SWAP1 SWAP3 MSTORE SWAP5 SWAP4 POP POP POP POP JUMP JUMPDEST PUSH1 0x0 DUP1 PUSH1 0x0 DUP1 PUSH1 0x0 DUP1 PUSH1 0x0 PUSH1 0xE0 DUP9 DUP11 SUB SLT ISZERO PUSH3 0x4C4 JUMPI PUSH1 0x0 DUP1 REVERT JUMPDEST PUSH3 0x4CF DUP9 PUSH3 0x3C6 JUMP JUMPDEST SWAP7 POP PUSH3 0x4DF PUSH1 0x20 DUP10 ADD PUSH3 0x3C6 JUMP JUMPDEST PUSH1 0x40 DUP10 ADD MLOAD PUSH1 0x60 DUP11 ADD MLOAD PUSH1 0x80 DUP12 ADD MLOAD PUSH1 0xA0 DUP13 ADD MLOAD SWAP4 SWAP10 POP SWAP2 SWAP8 POP SWAP6 POP SWAP4 POP PUSH1 0x1 PUSH1 0x1 PUSH1 0x40 SHL SUB DUP1 DUP3 GT ISZERO PUSH3 0x513 JUMPI PUSH1 0x0 DUP1 REVERT JUMPDEST PUSH3 0x521 DUP12 DUP4 DUP13 ADD PUSH3 0x3F9 JUMP JUMPDEST SWAP4 POP PUSH1 0xC0 DUP11 ADD MLOAD SWAP2 POP DUP1 DUP3 GT ISZERO PUSH3 0x538 JUMPI PUSH1 0x0 DUP1 REVERT JUMPDEST POP PUSH3 0x547 DUP11 DUP3 DUP12 ADD PUSH3 0x3F9 JUMP JUMPDEST SWAP2 POP POP SWAP3 SWAP6 SWAP9 SWAP2 SWAP5 SWAP8 POP SWAP3 SWAP6 POP JUMP JUMPDEST PUSH1 0x1 DUP2 DUP2 SHR SWAP1 DUP3 AND DUP1 PUSH3 0x56B JUMPI PUSH1 0x7F DUP3 AND SWAP2 POP JUMPDEST PUSH1 0x20 DUP3 LT DUP2 SUB PUSH3 0x58C JUMPI PUSH4 0x4E487B71 PUSH1 0xE0 SHL PUSH1 0x0 MSTORE PUSH1 0x22 PUSH1 0x4 MSTORE PUSH1 0x24 PUSH1 0x0 REVERT JUMPDEST POP SWAP2 SWAP1 POP JUMP JUMPDEST PUSH1 0x1F DUP3 GT ISZERO PUSH3 0x5E0 JUMPI PUSH1 0x0 DUP2 DUP2 MSTORE PUSH1 0x20 DUP2 KECCAK256 PUSH1 0x1F DUP6 ADD PUSH1 0x5 SHR DUP2 ADD PUSH1 0x20 DUP7 LT ISZERO PUSH3 0x5BB JUMPI POP DUP1 JUMPDEST PUSH1 0x1F DUP6 ADD PUSH1 0x5 SHR DUP3 ADD SWAP2 POP JUMPDEST DUP2 DUP2 LT ISZERO PUSH3 0x5DC JUMPI DUP3 DUP2 SSTORE PUSH1 0x1 ADD PUSH3 0x5C7 JUMP JUMPDEST POP POP POP JUMPDEST POP POP POP JUMP JUMPDEST DUP2 MLOAD PUSH1 0x1 PUSH1 0x1 PUSH1 0x40 SHL SUB DUP2 GT ISZERO PUSH3 0x601 JUMPI PUSH3 0x601 PUSH3 0x3E3 JUMP JUMPDEST PUSH3 0x619 DUP2 PUSH3 0x612 DUP5 SLOAD PUSH3 0x556 JUMP JUMPDEST DUP5 PUSH3 0x592 JUMP JUMPDEST PUSH1 0x20 DUP1 PUSH1 0x1F DUP4 GT PUSH1 0x1 DUP2 EQ PUSH3 0x651 JUMPI PUSH1 0x0 DUP5 ISZERO PUSH3 0x638 JUMPI POP DUP6 DUP4 ADD MLOAD JUMPDEST PUSH1 0x0 NOT PUSH1 0x3 DUP7 SWAP1 SHL SHR NOT AND PUSH1 0x1 DUP6 SWAP1 SHL OR DUP6 SSTORE PUSH3 0x5DC JUMP JUMPDEST PUSH1 0x0 DUP6 DUP2 MSTORE PUSH1 0x20 DUP2 KECCAK256 PUSH1 0x1F NOT DUP7 AND SWAP2 JUMPDEST DUP3 DUP2 LT ISZERO PUSH3 0x682 JUMPI DUP9 DUP7 ADD MLOAD DUP3 SSTORE SWAP5 DUP5 ADD SWAP5 PUSH1 0x1 SWAP1 SWAP2 ADD SWAP1 DUP5 ADD PUSH3 0x661 JUMP JUMPDEST POP DUP6 DUP3 LT ISZERO PUSH3 0x6A1 JUMPI DUP8 DUP6 ADD MLOAD PUSH1 0x0 NOT PUSH1 0x3 DUP9 SWAP1 SHL PUSH1 0xF8 AND SHR NOT AND DUP2 SSTORE JUMPDEST POP POP POP POP POP PUSH1 0x1 SWAP1 DUP2 SHL ADD SWAP1 SSTORE POP JUMP JUMPDEST PUSH4 0x4E487B71 PUSH1 0xE0 SHL PUSH1 0x0 MSTORE PUSH1 0x11 PUSH1 0x4 MSTORE PUSH1 0x24 PUSH1 0x0 REVERT JUMPDEST DUP1 DUP3 MUL DUP2 ISZERO DUP3 DUP3 DIV DUP5 EQ OR PUSH3 0x3A4 JUMPI PUSH3 0x3A4 PUSH3 0x6B1 JUMP JUMPDEST PUSH1 0x0 DUP3 PUSH3 0x6FF JUMPI PUSH4 0x4E487B71 PUSH1 0xE0 SHL PUSH1 0x0 MSTORE PUSH1 0x12 PUSH1 0x4 MSTORE PUSH1 0x24 PUSH1 0x0 REVERT JUMPDEST POP DIV SWAP1 JUMP JUMPDEST DUP1 DUP3 ADD DUP1 DUP3 GT ISZERO PUSH3 0x3A4 JUMPI PUSH3 0x3A4 PUSH3 0x6B1 JUMP JUMPDEST PUSH2 0x2E7D DUP1 PUSH3 0x72A PUSH1 0x0 CODECOPY PUSH1 0x0 RETURN INVALID PUSH1 0x80 PUSH1 0x40 MSTORE CALLVALUE DUP1 ISZERO PUSH2 0x10 JUMPI PUSH1 0x0 DUP1 REVERT JUMPDEST POP PUSH1 0x4 CALLDATASIZE LT PUSH2 0x2A0 JUMPI PUSH1 0x0 CALLDATALOAD PUSH1 0xE0 SHR DUP1 PUSH4 0x8DA5CB5B GT PUSH2 0x167 JUMPI DUP1 PUSH4 0xB5D5B5FA GT PUSH2 0xCE JUMPI DUP1 PUSH4 0xE22F93C2 GT PUSH2 0x87 JUMPI DUP1 PUSH4 0xE22F93C2 EQ PUSH2 0x607 JUMPI DUP1 PUSH4 0xE3EB3B6F EQ PUSH2 0x646 JUMPI DUP1 PUSH4 0xED3C7DCA EQ PUSH2 0x64F JUMPI DUP1 PUSH4 0xF2FDE38B EQ PUSH2 0x658 JUMPI DUP1 PUSH4 0xF9C55115 EQ PUSH2 0x66B JUMPI DUP1 PUSH4 0xFC857D52 EQ PUSH2 0x674 JUMPI PUSH1 0x0 DUP1 REVERT JUMPDEST DUP1 PUSH4 0xB5D5B5FA EQ PUSH2 0x5B2 JUMPI DUP1 PUSH4 0xD46F96ED EQ PUSH2 0x5C5 JUMPI DUP1 PUSH4 0xD51DEFE3 EQ PUSH2 0x5D8 JUMPI DUP1 PUSH4 0xD629B0B7 EQ PUSH2 0x5E1 JUMPI DUP1 PUSH4 0xD6573CDB EQ PUSH2 0x5F0 JUMPI DUP1 PUSH4 0xD7B48503 EQ PUSH2 0x5F8 JUMPI PUSH1 0x0 DUP1 REVERT JUMPDEST DUP1 PUSH4 0xA643A3D5 GT PUSH2 0x120 JUMPI DUP1 PUSH4 0xA643A3D5 EQ PUSH2 0x515 JUMPI DUP1 PUSH4 0xA6E582A1 EQ PUSH2 0x528 JUMPI DUP1 PUSH4 0xA7B8614D EQ PUSH2 0x548 JUMPI DUP1 PUSH4 0xAD73349E EQ PUSH2 0x55B JUMPI DUP1 PUSH4 0xB1C9FE6E EQ PUSH2 0x585 JUMPI DUP1 PUSH4 0xB384ABEF EQ PUSH2 0x59F JUMPI PUSH1 0x0 DUP1 REVERT JUMPDEST DUP1 PUSH4 0x8DA5CB5B EQ PUSH2 0x4CB JUMPI DUP1 PUSH4 0x9B7E0180 EQ PUSH2 0x4DC JUMPI DUP1 PUSH4 0x9C1454D4 EQ PUSH2 0x4EF JUMPI DUP1 PUSH4 0x9C83FCF6 EQ PUSH2 0x4FC JUMPI DUP1 PUSH4 0x9CB81060 EQ PUSH2 0x504 JUMPI DUP1 PUSH4 0xA300E224 EQ PUSH2 0x50D JUMPI PUSH1 0x0 DUP1 REVERT JUMPDEST DUP1 PUSH4 0x5C975ABB GT PUSH2 0x20B JUMPI DUP1 PUSH4 0x7B0472F0 GT PUSH2 0x1C4 JUMPI DUP1 PUSH4 0x7B0472F0 EQ PUSH2 0x450 JUMPI DUP1 PUSH4 0x7C2D4577 EQ PUSH2 0x463 JUMPI DUP1 PUSH4 0x7EB938A3 EQ PUSH2 0x483 JUMPI DUP1 PUSH4 0x842E2981 EQ PUSH2 0x49B JUMPI DUP1 PUSH4 0x8456CB59 EQ PUSH2 0x4BB JUMPI DUP1 PUSH4 0x88CAA509 EQ PUSH2 0x4C3 JUMPI PUSH1 0x0 DUP1 REVERT JUMPDEST DUP1 PUSH4 0x5C975ABB EQ PUSH2 0x3E1 JUMPI DUP1 PUSH4 0x64791196 EQ PUSH2 0x3EC JUMPI DUP1 PUSH4 0x6EC02BE9 EQ PUSH2 0x42F JUMPI DUP1 PUSH4 0x6F4A2CD0 EQ PUSH2 0x438 JUMPI DUP1 PUSH4 0x715018A6 EQ PUSH2 0x440 JUMPI DUP1 PUSH4 0x7284E416 EQ PUSH2 0x448 JUMPI PUSH1 0x0 DUP1 REVERT JUMPDEST DUP1 PUSH4 0x34B6D081 GT PUSH2 0x25D JUMPI DUP1 PUSH4 0x34B6D081 EQ PUSH2 0x355 JUMPI DUP1 PUSH4 0x3E8686CC EQ PUSH2 0x35D JUMPI DUP1 PUSH4 0x3F4BA83A EQ PUSH2 0x37D JUMPI DUP1 PUSH4 0x42545825 EQ PUSH2 0x385 JUMPI DUP1 PUSH4 0x4A79D50C EQ PUSH2 0x3C3 JUMPI DUP1 PUSH4 0x58EF7454 EQ PUSH2 0x3D8 JUMPI PUSH1 0x0 DUP1 REVERT JUMPDEST DUP1 PUSH4 0x2D05D3F EQ PUSH2 0x2A5 JUMPI DUP1 PUSH4 0x36EE850 EQ PUSH2 0x2D5 JUMPI DUP1 PUSH4 0x11CF23B5 EQ PUSH2 0x2EC JUMPI DUP1 PUSH4 0x2A7F2762 EQ PUSH2 0x301 JUMPI DUP1 PUSH4 0x2BE5BF4C EQ PUSH2 0x30A JUMPI DUP1 PUSH4 0x3384C806 EQ PUSH2 0x335 JUMPI JUMPDEST PUSH1 0x0 DUP1 REVERT JUMPDEST PUSH1 0x3 SLOAD PUSH2 0x2B8 SWAP1 PUSH1 0x1 PUSH1 0x1 PUSH1 0xA0 SHL SUB AND DUP2 JUMP JUMPDEST PUSH1 0x40 MLOAD PUSH1 0x1 PUSH1 0x1 PUSH1 0xA0 SHL SUB SWAP1 SWAP2 AND DUP2 MSTORE PUSH1 0x20 ADD JUMPDEST PUSH1 0x40 MLOAD DUP1 SWAP2 SUB SWAP1 RETURN JUMPDEST PUSH2 0x2DE PUSH1 0x9 SLOAD DUP2 JUMP JUMPDEST PUSH1 0x40 MLOAD SWAP1 DUP2 MSTORE PUSH1 0x20 ADD PUSH2 0x2CC JUMP JUMPDEST PUSH2 0x2FF PUSH2 0x2FA CALLDATASIZE PUSH1 0x4 PUSH2 0x258D JUMP JUMPDEST PUSH2 0x694 JUMP JUMPDEST STOP JUMPDEST PUSH2 0x2DE PUSH1 0x19 SLOAD DUP2 JUMP JUMPDEST PUSH2 0x2DE PUSH2 0x318 CALLDATASIZE PUSH1 0x4 PUSH2 0x25C2 JUMP JUMPDEST PUSH1 0x15 PUSH1 0x20 SWAP1 DUP2 MSTORE PUSH1 0x0 SWAP3 DUP4 MSTORE PUSH1 0x40 DUP1 DUP5 KECCAK256 SWAP1 SWAP2 MSTORE SWAP1 DUP3 MSTORE SWAP1 KECCAK256 SLOAD DUP2 JUMP JUMPDEST PUSH2 0x2DE PUSH2 0x343 CALLDATASIZE PUSH1 0x4 PUSH2 0x25EC JUMP JUMPDEST PUSH1 0x13 PUSH1 0x20 MSTORE PUSH1 0x0 SWAP1 DUP2 MSTORE PUSH1 0x40 SWAP1 KECCAK256 SLOAD DUP2 JUMP JUMPDEST PUSH2 0x2FF PUSH2 0x6F6 JUMP JUMPDEST PUSH2 0x370 PUSH2 0x36B CALLDATASIZE PUSH1 0x4 PUSH2 0x258D JUMP JUMPDEST PUSH2 0x8E2 JUMP JUMPDEST PUSH1 0x40 MLOAD PUSH2 0x2CC SWAP2 SWAP1 PUSH2 0x264D JUMP JUMPDEST PUSH2 0x2FF PUSH2 0xC38 JUMP JUMPDEST PUSH2 0x3B3 PUSH2 0x393 CALLDATASIZE PUSH1 0x4 PUSH2 0x25C2 JUMP JUMPDEST PUSH1 0x12 PUSH1 0x20 SWAP1 DUP2 MSTORE PUSH1 0x0 SWAP3 DUP4 MSTORE PUSH1 0x40 DUP1 DUP5 KECCAK256 SWAP1 SWAP2 MSTORE SWAP1 DUP3 MSTORE SWAP1 KECCAK256 SLOAD PUSH1 0xFF AND DUP2 JUMP JUMPDEST PUSH1 0x40 MLOAD SWAP1 ISZERO ISZERO DUP2 MSTORE PUSH1 0x20 ADD PUSH2 0x2CC JUMP JUMPDEST PUSH2 0x3CB PUSH2 0xC48 JUMP JUMPDEST PUSH1 0x40 MLOAD PUSH2 0x2CC SWAP2 SWAP1 PUSH2 0x2739 JUMP JUMPDEST PUSH2 0x2DE PUSH1 0x6 SLOAD DUP2 JUMP JUMPDEST PUSH1 0x2 SLOAD PUSH1 0xFF AND PUSH2 0x3B3 JUMP JUMPDEST PUSH1 0x3 SLOAD PUSH1 0x4 SLOAD PUSH1 0x5 SLOAD PUSH1 0x6 SLOAD PUSH1 0xD SLOAD PUSH1 0xC SLOAD PUSH1 0x8 SLOAD PUSH1 0x9 SLOAD PUSH1 0x17 SLOAD PUSH1 0x18 SLOAD PUSH1 0x40 MLOAD PUSH2 0x2CC SWAP11 PUSH1 0x1 PUSH1 0x1 PUSH1 0xA0 SHL SUB AND SWAP10 SWAP9 SWAP8 SWAP7 SWAP6 PUSH1 0xFF SWAP1 DUP2 AND SWAP6 SWAP5 SWAP4 SWAP3 AND SWAP1 PUSH2 0x2784 JUMP JUMPDEST PUSH2 0x2DE PUSH1 0xD SLOAD DUP2 JUMP JUMPDEST PUSH2 0x2FF PUSH2 0xCD6 JUMP JUMPDEST PUSH2 0x2FF PUSH2 0xFA2 JUMP JUMPDEST PUSH2 0x3CB PUSH2 0xFB4 JUMP JUMPDEST PUSH2 0x2FF PUSH2 0x45E CALLDATASIZE PUSH1 0x4 PUSH2 0x27E9 JUMP JUMPDEST PUSH2 0xFC1 JUMP JUMPDEST PUSH2 0x476 PUSH2 0x471 CALLDATASIZE PUSH1 0x4 PUSH2 0x258D JUMP JUMPDEST PUSH2 0x1314 JUMP JUMPDEST PUSH1 0x40 MLOAD PUSH2 0x2CC SWAP2 SWAP1 PUSH2 0x280B JUMP JUMPDEST PUSH1 0x2 SLOAD PUSH2 0x2B8 SWAP1 PUSH2 0x100 SWAP1 DIV PUSH1 0x1 PUSH1 0x1 PUSH1 0xA0 SHL SUB AND DUP2 JUMP JUMPDEST PUSH2 0x4AE PUSH2 0x4A9 CALLDATASIZE PUSH1 0x4 PUSH2 0x25EC JUMP JUMPDEST PUSH2 0x13B6 JUMP JUMPDEST PUSH1 0x40 MLOAD PUSH2 0x2CC SWAP2 SWAP1 PUSH2 0x287A JUMP JUMPDEST PUSH2 0x2FF PUSH2 0x1422 JUMP JUMPDEST PUSH2 0x2DE PUSH1 0x5A DUP2 JUMP JUMPDEST PUSH1 0x0 SLOAD PUSH1 0x1 PUSH1 0x1 PUSH1 0xA0 SHL SUB AND PUSH2 0x2B8 JUMP JUMPDEST PUSH2 0x2DE PUSH2 0x4EA CALLDATASIZE PUSH1 0x4 PUSH2 0x25C2 JUMP JUMPDEST PUSH2 0x1432 JUMP JUMPDEST PUSH1 0x18 SLOAD PUSH2 0x3B3 SWAP1 PUSH1 0xFF AND DUP2 JUMP JUMPDEST PUSH2 0x2DE PUSH1 0x14 DUP2 JUMP JUMPDEST PUSH2 0x2DE PUSH1 0x7 SLOAD DUP2 JUMP JUMPDEST PUSH2 0x2FF PUSH2 0x1463 JUMP JUMPDEST PUSH2 0x2FF PUSH2 0x523 CALLDATASIZE PUSH1 0x4 PUSH2 0x2961 JUMP JUMPDEST PUSH2 0x16A8 JUMP JUMPDEST PUSH2 0x2DE PUSH2 0x536 CALLDATASIZE PUSH1 0x4 PUSH2 0x258D JUMP JUMPDEST PUSH1 0x10 PUSH1 0x20 MSTORE PUSH1 0x0 SWAP1 DUP2 MSTORE PUSH1 0x40 SWAP1 KECCAK256 SLOAD DUP2 JUMP JUMPDEST PUSH2 0x4AE PUSH2 0x556 CALLDATASIZE PUSH1 0x4 PUSH2 0x25EC JUMP JUMPDEST PUSH2 0x1966 JUMP JUMPDEST PUSH2 0x56E PUSH2 0x569 CALLDATASIZE PUSH1 0x4 PUSH2 0x258D JUMP JUMPDEST PUSH2 0x19D0 JUMP JUMPDEST PUSH1 0x40 MLOAD PUSH2 0x2CC SWAP12 SWAP11 SWAP10 SWAP9 SWAP8 SWAP7 SWAP6 SWAP5 SWAP4 SWAP3 SWAP2 SWAP1 PUSH2 0x2A0E JUMP JUMPDEST PUSH1 0xC SLOAD PUSH2 0x592 SWAP1 PUSH1 0xFF AND DUP2 JUMP JUMPDEST PUSH1 0x40 MLOAD PUSH2 0x2CC SWAP2 SWAP1 PUSH2 0x2AAA JUMP JUMPDEST PUSH2 0x2FF PUSH2 0x5AD CALLDATASIZE PUSH1 0x4 PUSH2 0x27E9 JUMP JUMPDEST PUSH2 0x1C53 JUMP JUMPDEST PUSH2 0x2DE PUSH2 0x5C0 CALLDATASIZE PUSH1 0x4 PUSH2 0x25C2 JUMP JUMPDEST PUSH2 0x20C2 JUMP JUMPDEST PUSH2 0x3B3 PUSH2 0x5D3 CALLDATASIZE PUSH1 0x4 PUSH2 0x25C2 JUMP JUMPDEST PUSH2 0x20DE JUMP JUMPDEST PUSH2 0x2DE PUSH1 0x17 SLOAD DUP2 JUMP JUMPDEST PUSH2 0x2DE PUSH8 0xDE0B6B3A7640000 DUP2 JUMP JUMPDEST PUSH2 0x2DE PUSH1 0x50 DUP2 JUMP JUMPDEST PUSH2 0x2DE PUSH8 0x8AC7230489E80000 DUP2 JUMP JUMPDEST PUSH2 0x61A PUSH2 0x615 CALLDATASIZE PUSH1 0x4 PUSH2 0x27E9 JUMP JUMPDEST PUSH2 0x210C JUMP JUMPDEST PUSH1 0x40 DUP1 MLOAD PUSH1 0x1 PUSH1 0x1 PUSH1 0xA0 SHL SUB SWAP1 SWAP6 AND DUP6 MSTORE PUSH1 0x20 DUP6 ADD SWAP4 SWAP1 SWAP4 MSTORE SWAP2 DUP4 ADD MSTORE ISZERO ISZERO PUSH1 0x60 DUP3 ADD MSTORE PUSH1 0x80 ADD PUSH2 0x2CC JUMP JUMPDEST PUSH2 0x2DE PUSH1 0x4 SLOAD DUP2 JUMP JUMPDEST PUSH2 0x2DE PUSH1 0x5 SLOAD DUP2 JUMP JUMPDEST PUSH2 0x2FF PUSH2 0x666 CALLDATASIZE PUSH1 0x4 PUSH2 0x25EC JUMP JUMPDEST PUSH2 0x215F JUMP JUMPDEST PUSH2 0x2DE PUSH1 0x8 SLOAD DUP2 JUMP JUMPDEST PUSH2 0x2DE PUSH2 0x682 CALLDATASIZE PUSH1 0x4 PUSH2 0x258D JUMP JUMPDEST PUSH1 0x11 PUSH1 0x20 MSTORE PUSH1 0x0 SWAP1 DUP2 MSTORE PUSH1 0x40 SWAP1 KECCAK256 SLOAD DUP2 JUMP JUMPDEST PUSH2 0x69C PUSH2 0x21D5 JUMP JUMPDEST PUSH1 0x0 DUP2 GT PUSH2 0x6F1 JUMPI PUSH1 0x40 MLOAD PUSH3 0x461BCD PUSH1 0xE5 SHL DUP2 MSTORE PUSH1 0x20 PUSH1 0x4 DUP3 ADD MSTORE PUSH1 0x1E PUSH1 0x24 DUP3 ADD MSTORE PUSH32 0x436F6E74657374496E7374616E63653A20496E76616C69642070726963650000 PUSH1 0x44 DUP3 ADD MSTORE PUSH1 0x64 ADD JUMPDEST PUSH1 0x40 MLOAD DUP1 SWAP2 SUB SWAP1 REVERT JUMPDEST PUSH1 0x19 SSTORE JUMP JUMPDEST PUSH1 0x3 SLOAD PUSH1 0x1 PUSH1 0x1 PUSH1 0xA0 SHL SUB AND CALLER EQ PUSH2 0x720 JUMPI PUSH1 0x40 MLOAD PUSH3 0x461BCD PUSH1 0xE5 SHL DUP2 MSTORE PUSH1 0x4 ADD PUSH2 0x6E8 SWAP1 PUSH2 0x2AB8 JUMP JUMPDEST PUSH1 0x0 PUSH1 0xC SLOAD PUSH1 0xFF AND PUSH1 0x3 DUP2 GT ISZERO PUSH2 0x739 JUMPI PUSH2 0x739 PUSH2 0x274C JUMP JUMPDEST EQ PUSH2 0x756 JUMPI PUSH1 0x40 MLOAD PUSH3 0x461BCD PUSH1 0xE5 SHL DUP2 MSTORE PUSH1 0x4 ADD PUSH2 0x6E8 SWAP1 PUSH2 0x2AFD JUMP JUMPDEST PUSH1 0x8 SLOAD TIMESTAMP LT ISZERO PUSH2 0x7BC JUMPI PUSH1 0x40 MLOAD PUSH3 0x461BCD PUSH1 0xE5 SHL DUP2 MSTORE PUSH1 0x20 PUSH1 0x4 DUP3 ADD MSTORE PUSH1 0x2B PUSH1 0x24 DUP3 ADD MSTORE PUSH32 0x436F6E74657374496E7374616E63653A205375626D697373696F6E2070686173 PUSH1 0x44 DUP3 ADD MSTORE PUSH11 0x19481B9BDD08195B991959 PUSH1 0xAA SHL PUSH1 0x64 DUP3 ADD MSTORE PUSH1 0x84 ADD PUSH2 0x6E8 JUMP JUMPDEST PUSH1 0x6 SLOAD PUSH1 0xD SLOAD LT PUSH2 0x813 JUMPI PUSH1 0xC DUP1 SLOAD PUSH1 0xFF NOT AND PUSH1 0x1 SWAP1 DUP2 OR SWAP1 SWAP2 SSTORE PUSH1 0x40 MLOAD PUSH32 0xEEB345FEA22465C927333E05D324EE5B476597701D8BE7E5D9AACC60E7AEFBAF SWAP2 PUSH2 0x809 SWAP2 PUSH1 0x0 SWAP2 SWAP1 PUSH2 0x2B45 JUMP JUMPDEST PUSH1 0x40 MLOAD DUP1 SWAP2 SUB SWAP1 LOG1 JUMP JUMPDEST PUSH1 0xC DUP1 SLOAD PUSH1 0xFF NOT AND PUSH1 0x3 OR SWAP1 SSTORE PUSH1 0x40 MLOAD PUSH1 0x1 DUP2 MSTORE PUSH32 0xC87F3801DDE012630E385A9936C4228B5817C67D8FD74705BC5BCF5C40E8F516 SWAP1 PUSH1 0x20 ADD PUSH1 0x40 MLOAD DUP1 SWAP2 SUB SWAP1 LOG1 PUSH1 0x4 SLOAD ISZERO PUSH2 0x8E0 JUMPI PUSH1 0x2 SLOAD PUSH1 0x3 SLOAD PUSH1 0x4 DUP1 SLOAD PUSH1 0x40 MLOAD PUSH4 0xA9059CBB PUSH1 0xE0 SHL DUP2 MSTORE PUSH1 0x1 PUSH1 0x1 PUSH1 0xA0 SHL SUB SWAP4 DUP5 AND SWAP3 DUP2 ADD SWAP3 SWAP1 SWAP3 MSTORE PUSH1 0x24 DUP3 ADD MSTORE PUSH2 0x100 SWAP1 SWAP3 DIV AND SWAP1 PUSH4 0xA9059CBB SWAP1 PUSH1 0x44 ADD PUSH1 0x20 PUSH1 0x40 MLOAD DUP1 DUP4 SUB DUP2 PUSH1 0x0 DUP8 GAS CALL ISZERO DUP1 ISZERO PUSH2 0x8BA JUMPI RETURNDATASIZE PUSH1 0x0 DUP1 RETURNDATACOPY RETURNDATASIZE PUSH1 0x0 REVERT JUMPDEST POP POP POP POP PUSH1 0x40 MLOAD RETURNDATASIZE PUSH1 0x1F NOT PUSH1 0x1F DUP3 ADD AND DUP3 ADD DUP1 PUSH1 0x40 MSTORE POP DUP2 ADD SWAP1 PUSH2 0x8DE SWAP2 SWAP1 PUSH2 0x2B60 JUMP JUMPDEST POP JUMPDEST JUMP JUMPDEST PUSH2 0x94A PUSH1 0x40 MLOAD DUP1 PUSH2 0x160 ADD PUSH1 0x40 MSTORE DUP1 PUSH1 0x0 PUSH1 0x1 PUSH1 0x1 PUSH1 0xA0 SHL SUB AND DUP2 MSTORE PUSH1 0x20 ADD PUSH1 0x60 DUP2 MSTORE PUSH1 0x20 ADD PUSH1 0x60 DUP2 MSTORE PUSH1 0x20 ADD PUSH1 0x60 DUP2 MSTORE PUSH1 0x20 ADD PUSH1 0x60 DUP2 MSTORE PUSH1 0x20 ADD PUSH1 0x0 DUP2 MSTORE PUSH1 0x20 ADD PUSH1 0x0 DUP2 MSTORE PUSH1 0x20 ADD PUSH1 0x0 DUP2 MSTORE PUSH1 0x20 ADD PUSH1 0x0 DUP2 MSTORE PUSH1 0x20 ADD PUSH1 0x0 ISZERO ISZERO DUP2 MSTORE PUSH1 0x20 ADD PUSH1 0x0 DUP2 MSTORE POP SWAP1 JUMP JUMPDEST PUSH1 0x0 DUP3 DUP2 MSTORE PUSH1 0xE PUSH1 0x20 MSTORE PUSH1 0x40 SWAP1 KECCAK256 PUSH1 0x9 ADD SLOAD PUSH1 0xFF AND PUSH2 0x97B JUMPI PUSH1 0x40 MLOAD PUSH3 0x461BCD PUSH1 0xE5 SHL DUP2 MSTORE PUSH1 0x4 ADD PUSH2 0x6E8 SWAP1 PUSH2 0x2B82 JUMP JUMPDEST PUSH1 0x0 DUP3 DUP2 MSTORE PUSH1 0xE PUSH1 0x20 SWAP1 DUP2 MSTORE PUSH1 0x40 SWAP2 DUP3 SWAP1 KECCAK256 DUP3 MLOAD PUSH2 0x160 DUP2 ADD SWAP1 SWAP4 MSTORE DUP1 SLOAD PUSH1 0x1 PUSH1 0x1 PUSH1 0xA0 SHL SUB AND DUP4 MSTORE PUSH1 0x1 DUP2 ADD DUP1 SLOAD SWAP2 SWAP3 DUP5 ADD SWAP2 PUSH2 0x9B8 SWAP1 PUSH2 0x2BCC JUMP JUMPDEST DUP1 PUSH1 0x1F ADD PUSH1 0x20 DUP1 SWAP2 DIV MUL PUSH1 0x20 ADD PUSH1 0x40 MLOAD SWAP1 DUP2 ADD PUSH1 0x40 MSTORE DUP1 SWAP3 SWAP2 SWAP1 DUP2 DUP2 MSTORE PUSH1 0x20 ADD DUP3 DUP1 SLOAD PUSH2 0x9E4 SWAP1 PUSH2 0x2BCC JUMP JUMPDEST DUP1 ISZERO PUSH2 0xA31 JUMPI DUP1 PUSH1 0x1F LT PUSH2 0xA06 JUMPI PUSH2 0x100 DUP1 DUP4 SLOAD DIV MUL DUP4 MSTORE SWAP2 PUSH1 0x20 ADD SWAP2 PUSH2 0xA31 JUMP JUMPDEST DUP3 ADD SWAP2 SWAP1 PUSH1 0x0 MSTORE PUSH1 0x20 PUSH1 0x0 KECCAK256 SWAP1 JUMPDEST DUP2 SLOAD DUP2 MSTORE SWAP1 PUSH1 0x1 ADD SWAP1 PUSH1 0x20 ADD DUP1 DUP4 GT PUSH2 0xA14 JUMPI DUP3 SWAP1 SUB PUSH1 0x1F AND DUP3 ADD SWAP2 JUMPDEST POP POP POP POP POP DUP2 MSTORE PUSH1 0x20 ADD PUSH1 0x2 DUP3 ADD DUP1 SLOAD PUSH2 0xA4A SWAP1 PUSH2 0x2BCC JUMP JUMPDEST DUP1 PUSH1 0x1F ADD PUSH1 0x20 DUP1 SWAP2 DIV MUL PUSH1 0x20 ADD PUSH1 0x40 MLOAD SWAP1 DUP2 ADD PUSH1 0x40 MSTORE DUP1 SWAP3 SWAP2 SWAP1 DUP2 DUP2 MSTORE PUSH1 0x20 ADD DUP3 DUP1 SLOAD PUSH2 0xA76 SWAP1 PUSH2 0x2BCC JUMP JUMPDEST DUP1 ISZERO PUSH2 0xAC3 JUMPI DUP1 PUSH1 0x1F LT PUSH2 0xA98 JUMPI PUSH2 0x100 DUP1 DUP4 SLOAD DIV MUL DUP4 MSTORE SWAP2 PUSH1 0x20 ADD SWAP2 PUSH2 0xAC3 JUMP JUMPDEST DUP3 ADD SWAP2 SWAP1 PUSH1 0x0 MSTORE PUSH1 0x20 PUSH1 0x0 KECCAK256 SWAP1 JUMPDEST DUP2 SLOAD DUP2 MSTORE SWAP1 PUSH1 0x1 ADD SWAP1 PUSH1 0x20 ADD DUP1 DUP4 GT PUSH2 0xAA6 JUMPI DUP3 SWAP1 SUB PUSH1 0x1F AND DUP3 ADD SWAP2 JUMPDEST POP POP POP POP POP DUP2 MSTORE PUSH1 0x20 ADD PUSH1 0x3 DUP3 ADD DUP1 SLOAD PUSH2 0xADC SWAP1 PUSH2 0x2BCC JUMP JUMPDEST DUP1 PUSH1 0x1F ADD PUSH1 0x20 DUP1 SWAP2 DIV MUL PUSH1 0x20 ADD PUSH1 0x40 MLOAD SWAP1 DUP2 ADD PUSH1 0x40 MSTORE DUP1 SWAP3 SWAP2 SWAP1 DUP2 DUP2 MSTORE PUSH1 0x20 ADD DUP3 DUP1 SLOAD PUSH2 0xB08 SWAP1 PUSH2 0x2BCC JUMP JUMPDEST DUP1 ISZERO PUSH2 0xB55 JUMPI DUP1 PUSH1 0x1F LT PUSH2 0xB2A JUMPI PUSH2 0x100 DUP1 DUP4 SLOAD DIV MUL DUP4 MSTORE SWAP2 PUSH1 0x20 ADD SWAP2 PUSH2 0xB55 JUMP JUMPDEST DUP3 ADD SWAP2 SWAP1 PUSH1 0x0 MSTORE PUSH1 0x20 PUSH1 0x0 KECCAK256 SWAP1 JUMPDEST DUP2 SLOAD DUP2 MSTORE SWAP1 PUSH1 0x1 ADD SWAP1 PUSH1 0x20 ADD DUP1 DUP4 GT PUSH2 0xB38 JUMPI DUP3 SWAP1 SUB PUSH1 0x1F AND DUP3 ADD SWAP2 JUMPDEST POP POP POP POP POP DUP2 MSTORE PUSH1 0x20 ADD PUSH1 0x4 DUP3 ADD DUP1 SLOAD PUSH2 0xB6E SWAP1 PUSH2 0x2BCC JUMP JUMPDEST DUP1 PUSH1 0x1F ADD PUSH1 0x20 DUP1 SWAP2 DIV MUL PUSH1 0x20 ADD PUSH1 0x40 MLOAD SWAP1 DUP2 ADD PUSH1 0x40 MSTORE DUP1 SWAP3 SWAP2 SWAP1 DUP2 DUP2 MSTORE PUSH1 0x20 ADD DUP3 DUP1 SLOAD PUSH2 0xB9A SWAP1 PUSH2 0x2BCC JUMP JUMPDEST DUP1 ISZERO PUSH2 0xBE7 JUMPI DUP1 PUSH1 0x1F LT PUSH2 0xBBC JUMPI PUSH2 0x100 DUP1 DUP4 SLOAD DIV MUL DUP4 MSTORE SWAP2 PUSH1 0x20 ADD SWAP2 PUSH2 0xBE7 JUMP JUMPDEST DUP3 ADD SWAP2 SWAP1 PUSH1 0x0 MSTORE PUSH1 0x20 PUSH1 0x0 KECCAK256 SWAP1 JUMPDEST DUP2 SLOAD DUP2 MSTORE SWAP1 PUSH1 0x1 ADD SWAP1 PUSH1 0x20 ADD DUP1 DUP4 GT PUSH2 0xBCA JUMPI DUP3 SWAP1 SUB PUSH1 0x1F AND DUP3 ADD SWAP2 JUMPDEST POP POP POP SWAP2 DUP4 MSTORE POP POP PUSH1 0x5 DUP3 ADD SLOAD PUSH1 0x20 DUP3 ADD MSTORE PUSH1 0x6 DUP3 ADD SLOAD PUSH1 0x40 DUP3 ADD MSTORE PUSH1 0x7 DUP3 ADD SLOAD PUSH1 0x60 DUP3 ADD MSTORE PUSH1 0x8 DUP3 ADD SLOAD PUSH1 0x80 DUP3 ADD MSTORE PUSH1 0x9 DUP3 ADD SLOAD PUSH1 0xFF AND ISZERO ISZERO PUSH1 0xA0 DUP3 ADD MSTORE PUSH1 0xA SWAP1 SWAP2 ADD SLOAD PUSH1 0xC0 SWAP1 SWAP2 ADD MSTORE SWAP3 SWAP2 POP POP JUMP JUMPDEST PUSH2 0xC40 PUSH2 0x21D5 JUMP JUMPDEST PUSH2 0x8E0 PUSH2 0x222F JUMP JUMPDEST PUSH1 0xA DUP1 SLOAD PUSH2 0xC55 SWAP1 PUSH2 0x2BCC JUMP JUMPDEST DUP1 PUSH1 0x1F ADD PUSH1 0x20 DUP1 SWAP2 DIV MUL PUSH1 0x20 ADD PUSH1 0x40 MLOAD SWAP1 DUP2 ADD PUSH1 0x40 MSTORE DUP1 SWAP3 SWAP2 SWAP1 DUP2 DUP2 MSTORE PUSH1 0x20 ADD DUP3 DUP1 SLOAD PUSH2 0xC81 SWAP1 PUSH2 0x2BCC JUMP JUMPDEST DUP1 ISZERO PUSH2 0xCCE JUMPI DUP1 PUSH1 0x1F LT PUSH2 0xCA3 JUMPI PUSH2 0x100 DUP1 DUP4 SLOAD DIV MUL DUP4 MSTORE SWAP2 PUSH1 0x20 ADD SWAP2 PUSH2 0xCCE JUMP JUMPDEST DUP3 ADD SWAP2 SWAP1 PUSH1 0x0 MSTORE PUSH1 0x20 PUSH1 0x0 KECCAK256 SWAP1 JUMPDEST DUP2 SLOAD DUP2 MSTORE SWAP1 PUSH1 0x1 ADD SWAP1 PUSH1 0x20 ADD DUP1 DUP4 GT PUSH2 0xCB1 JUMPI DUP3 SWAP1 SUB PUSH1 0x1F AND DUP3 ADD SWAP2 JUMPDEST POP POP POP POP POP DUP2 JUMP JUMPDEST PUSH1 0x2 PUSH1 0xC SLOAD PUSH1 0xFF AND PUSH1 0x3 DUP2 GT ISZERO PUSH2 0xCEF JUMPI PUSH2 0xCEF PUSH2 0x274C JUMP JUMPDEST EQ PUSH2 0xD47 JUMPI PUSH1 0x40 MLOAD PUSH3 0x461BCD PUSH1 0xE5 SHL DUP2 MSTORE PUSH1 0x20 PUSH1 0x4 DUP3 ADD MSTORE PUSH1 0x22 PUSH1 0x24 DUP3 ADD MSTORE PUSH32 0x436F6E74657374496E7374616E63653A20436F6E74657374206E6F7420656E64 PUSH1 0x44 DUP3 ADD MSTORE PUSH2 0x1959 PUSH1 0xF2 SHL PUSH1 0x64 DUP3 ADD MSTORE PUSH1 0x84 ADD PUSH2 0x6E8 JUMP JUMPDEST PUSH1 0x18 SLOAD PUSH1 0xFF AND ISZERO PUSH2 0xDAF JUMPI PUSH1 0x40 MLOAD PUSH3 0x461BCD PUSH1 0xE5 SHL DUP2 MSTORE PUSH1 0x20 PUSH1 0x4 DUP3 ADD MSTORE PUSH1 0x2C PUSH1 0x24 DUP3 ADD MSTORE PUSH32 0x436F6E74657374496E7374616E63653A205265776172647320616C7265616479 PUSH1 0x44 DUP3 ADD MSTORE PUSH12 0x8191A5CDD1C9A589D5D1959 PUSH1 0xA2 SHL PUSH1 0x64 DUP3 ADD MSTORE PUSH1 0x84 ADD PUSH2 0x6E8 JUMP JUMPDEST PUSH1 0x18 DUP1 SLOAD PUSH1 0xFF NOT AND PUSH1 0x1 OR SWAP1 SSTORE PUSH1 0x4 SLOAD PUSH1 0x0 SWAP1 PUSH2 0xDDA SWAP1 PUSH1 0x64 SWAP1 PUSH2 0xDD4 SWAP1 PUSH1 0xA PUSH2 0x2281 JUMP JUMPDEST SWAP1 PUSH2 0x2294 JUMP JUMPDEST SWAP1 POP PUSH1 0x0 PUSH2 0xDF3 DUP3 PUSH1 0x4 SLOAD PUSH2 0x22A0 SWAP1 SWAP2 SWAP1 PUSH4 0xFFFFFFFF AND JUMP JUMPDEST SWAP1 POP DUP1 ISZERO PUSH2 0xE8B JUMPI PUSH1 0x2 SLOAD PUSH1 0x17 SLOAD PUSH1 0x0 SWAP1 DUP2 MSTORE PUSH1 0xE PUSH1 0x20 MSTORE PUSH1 0x40 SWAP1 DUP2 SWAP1 KECCAK256 SLOAD SWAP1 MLOAD PUSH4 0xA9059CBB PUSH1 0xE0 SHL DUP2 MSTORE PUSH1 0x1 PUSH1 0x1 PUSH1 0xA0 SHL SUB SWAP2 DUP3 AND PUSH1 0x4 DUP3 ADD MSTORE PUSH1 0x24 DUP2 ADD DUP5 SWAP1 MSTORE PUSH2 0x100 SWAP1 SWAP3 DIV AND SWAP1 PUSH4 0xA9059CBB SWAP1 PUSH1 0x44 ADD PUSH1 0x20 PUSH1 0x40 MLOAD DUP1 DUP4 SUB DUP2 PUSH1 0x0 DUP8 GAS CALL ISZERO DUP1 ISZERO PUSH2 0xE65 JUMPI RETURNDATASIZE PUSH1 0x0 DUP1 RETURNDATACOPY RETURNDATASIZE PUSH1 0x0 REVERT JUMPDEST POP POP POP POP PUSH1 0x40 MLOAD RETURNDATASIZE PUSH1 0x1F NOT PUSH1 0x1F DUP3 ADD AND DUP3 ADD DUP1 PUSH1 0x40 MSTORE POP DUP2 ADD SWAP1 PUSH2 0xE89 SWAP2 SWAP1 PUSH2 0x2B60 JUMP JUMPDEST POP JUMPDEST PUSH1 0x0 PUSH2 0xEA8 PUSH1 0x64 PUSH2 0xDD4 PUSH1 0x14 PUSH1 0x5 SLOAD PUSH2 0x2281 SWAP1 SWAP2 SWAP1 PUSH4 0xFFFFFFFF AND JUMP JUMPDEST SWAP1 POP PUSH1 0x0 PUSH2 0xEC1 DUP3 PUSH1 0x5 SLOAD PUSH2 0x22A0 SWAP1 SWAP2 SWAP1 PUSH4 0xFFFFFFFF AND JUMP JUMPDEST SWAP1 POP DUP2 ISZERO PUSH2 0xF49 JUMPI PUSH1 0x2 SLOAD PUSH1 0x3 SLOAD PUSH1 0x40 MLOAD PUSH4 0xA9059CBB PUSH1 0xE0 SHL DUP2 MSTORE PUSH1 0x1 PUSH1 0x1 PUSH1 0xA0 SHL SUB SWAP2 DUP3 AND PUSH1 0x4 DUP3 ADD MSTORE PUSH1 0x24 DUP2 ADD DUP6 SWAP1 MSTORE PUSH2 0x100 SWAP1 SWAP3 DIV AND SWAP1 PUSH4 0xA9059CBB SWAP1 PUSH1 0x44 ADD PUSH1 0x20 PUSH1 0x40 MLOAD DUP1 DUP4 SUB DUP2 PUSH1 0x0 DUP8 GAS CALL ISZERO DUP1 ISZERO PUSH2 0xF23 JUMPI RETURNDATASIZE PUSH1 0x0 DUP1 RETURNDATACOPY RETURNDATASIZE PUSH1 0x0 REVERT JUMPDEST POP POP POP POP PUSH1 0x40 MLOAD RETURNDATASIZE PUSH1 0x1F NOT PUSH1 0x1F DUP3 ADD AND DUP3 ADD DUP1 PUSH1 0x40 MSTORE POP DUP2 ADD SWAP1 PUSH2 0xF47 SWAP2 SWAP1 PUSH2 0x2B60 JUMP JUMPDEST POP JUMPDEST DUP1 ISZERO PUSH2 0xF58 JUMPI PUSH2 0xF58 DUP2 PUSH2 0x22AC JUMP JUMPDEST PUSH1 0x17 SLOAD PUSH1 0x40 DUP1 MLOAD DUP6 DUP2 MSTORE PUSH1 0x20 DUP2 ADD DUP6 SWAP1 MSTORE SWAP1 DUP2 ADD DUP4 SWAP1 MSTORE PUSH32 0xF05B0B8458B89503CA56B18429A7B1ECD2F7F2D6D5EBA936DA3791B6B078BC78 SWAP1 PUSH1 0x60 ADD PUSH1 0x40 MLOAD DUP1 SWAP2 SUB SWAP1 LOG2 POP POP POP POP JUMP JUMPDEST PUSH2 0xFAA PUSH2 0x21D5 JUMP JUMPDEST PUSH2 0x8E0 PUSH1 0x0 PUSH2 0x240C JUMP JUMPDEST PUSH1 0xB DUP1 SLOAD PUSH2 0xC55 SWAP1 PUSH2 0x2BCC JUMP JUMPDEST PUSH1 0x0 PUSH1 0xC SLOAD PUSH1 0xFF AND PUSH1 0x3 DUP2 GT ISZERO PUSH2 0xFDA JUMPI PUSH2 0xFDA PUSH2 0x274C JUMP JUMPDEST EQ PUSH2 0xFF7 JUMPI PUSH1 0x40 MLOAD PUSH3 0x461BCD PUSH1 0xE5 SHL DUP2 MSTORE PUSH1 0x4 ADD PUSH2 0x6E8 SWAP1 PUSH2 0x2AFD JUMP JUMPDEST PUSH1 0x8 SLOAD TIMESTAMP GT ISZERO PUSH2 0x1019 JUMPI PUSH1 0x40 MLOAD PUSH3 0x461BCD PUSH1 0xE5 SHL DUP2 MSTORE PUSH1 0x4 ADD PUSH2 0x6E8 SWAP1 PUSH2 0x2C06 JUMP JUMPDEST PUSH1 0x0 DUP3 DUP2 MSTORE PUSH1 0xE PUSH1 0x20 MSTORE PUSH1 0x40 SWAP1 KECCAK256 PUSH1 0x9 ADD SLOAD DUP3 SWAP1 PUSH1 0xFF AND PUSH2 0x104C JUMPI PUSH1 0x40 MLOAD PUSH3 0x461BCD PUSH1 0xE5 SHL DUP2 MSTORE PUSH1 0x4 ADD PUSH2 0x6E8 SWAP1 PUSH2 0x2B82 JUMP JUMPDEST PUSH2 0x1054 PUSH2 0x245C JUMP JUMPDEST PUSH1 0x0 DUP3 GT PUSH2 0x10B2 JUMPI PUSH1 0x40 MLOAD PUSH3 0x461BCD PUSH1 0xE5 SHL DUP2 MSTORE PUSH1 0x20 PUSH1 0x4 DUP3 ADD MSTORE PUSH1 0x25 PUSH1 0x24 DUP3 ADD MSTORE PUSH32 0x436F6E74657374496E7374616E63653A20496E76616C6964207374616B652061 PUSH1 0x44 DUP3 ADD MSTORE PUSH5 0x1B5BDD5B9D PUSH1 0xDA SHL PUSH1 0x64 DUP3 ADD MSTORE PUSH1 0x84 ADD PUSH2 0x6E8 JUMP JUMPDEST PUSH1 0x2 SLOAD PUSH1 0x40 MLOAD PUSH4 0x23B872DD PUSH1 0xE0 SHL DUP2 MSTORE CALLER PUSH1 0x4 DUP3 ADD MSTORE ADDRESS PUSH1 0x24 DUP3 ADD MSTORE PUSH1 0x44 DUP2 ADD DUP5 SWAP1 MSTORE PUSH2 0x100 SWAP1 SWAP2 DIV PUSH1 0x1 PUSH1 0x1 PUSH1 0xA0 SHL SUB AND SWAP1 PUSH4 0x23B872DD SWAP1 PUSH1 0x64 ADD PUSH1 0x20 PUSH1 0x40 MLOAD DUP1 DUP4 SUB DUP2 PUSH1 0x0 DUP8 GAS CALL ISZERO DUP1 ISZERO PUSH2 0x110D JUMPI RETURNDATASIZE PUSH1 0x0 DUP1 RETURNDATACOPY RETURNDATASIZE PUSH1 0x0 REVERT JUMPDEST POP POP POP POP PUSH1 0x40 MLOAD RETURNDATASIZE PUSH1 0x1F NOT PUSH1 0x1F DUP3 ADD AND DUP3 ADD DUP1 PUSH1 0x40 MSTORE POP DUP2 ADD SWAP1 PUSH2 0x1131 SWAP2 SWAP1 PUSH2 0x2B60 JUMP JUMPDEST PUSH2 0x118C JUMPI PUSH1 0x40 MLOAD PUSH3 0x461BCD PUSH1 0xE5 SHL DUP2 MSTORE PUSH1 0x20 PUSH1 0x4 DUP3 ADD MSTORE PUSH1 0x26 PUSH1 0x24 DUP3 ADD MSTORE PUSH32 0x436F6E74657374496E7374616E63653A205374616B65207472616E7366657220 PUSH1 0x44 DUP3 ADD MSTORE PUSH6 0x19985A5B1959 PUSH1 0xD2 SHL PUSH1 0x64 DUP3 ADD MSTORE PUSH1 0x84 ADD PUSH2 0x6E8 JUMP JUMPDEST PUSH1 0x0 DUP4 DUP2 MSTORE PUSH1 0x14 PUSH1 0x20 SWAP1 DUP2 MSTORE PUSH1 0x40 DUP1 DUP4 KECCAK256 DUP2 MLOAD PUSH1 0x80 DUP2 ADD DUP4 MSTORE CALLER DUP1 DUP3 MSTORE DUP2 DUP6 ADD DUP9 DUP2 MSTORE TIMESTAMP DUP4 DUP7 ADD SWAP1 DUP2 MSTORE PUSH1 0x60 DUP5 ADD DUP9 DUP2 MSTORE DUP6 SLOAD PUSH1 0x1 DUP1 DUP3 ADD DUP9 SSTORE SWAP7 DUP11 MSTORE DUP9 DUP11 KECCAK256 SWAP6 MLOAD PUSH1 0x4 SWAP1 SWAP2 MUL SWAP1 SWAP6 ADD DUP1 SLOAD PUSH1 0x1 PUSH1 0x1 PUSH1 0xA0 SHL SUB NOT AND PUSH1 0x1 PUSH1 0x1 PUSH1 0xA0 SHL SUB SWAP1 SWAP7 AND SWAP6 SWAP1 SWAP6 OR DUP6 SSTORE SWAP2 MLOAD SWAP5 DUP5 ADD SWAP5 SWAP1 SWAP5 SSTORE SWAP3 MLOAD PUSH1 0x2 DUP4 ADD SSTORE SWAP2 MLOAD PUSH1 0x3 SWAP1 SWAP2 ADD DUP1 SLOAD PUSH1 0xFF NOT AND SWAP2 ISZERO ISZERO SWAP2 SWAP1 SWAP2 OR SWAP1 SSTORE DUP4 MSTORE PUSH1 0x15 DUP3 MSTORE DUP1 DUP4 KECCAK256 DUP7 DUP5 MSTORE SWAP1 SWAP2 MSTORE SWAP1 KECCAK256 SLOAD PUSH2 0x1235 SWAP1 DUP4 PUSH2 0x24B5 JUMP JUMPDEST CALLER PUSH1 0x0 DUP2 DUP2 MSTORE PUSH1 0x15 PUSH1 0x20 SWAP1 DUP2 MSTORE PUSH1 0x40 DUP1 DUP4 KECCAK256 DUP9 DUP5 MSTORE DUP3 MSTORE DUP1 DUP4 KECCAK256 SWAP5 SWAP1 SWAP5 SSTORE SWAP2 DUP2 MSTORE PUSH1 0x16 DUP3 MSTORE DUP3 DUP2 KECCAK256 DUP1 SLOAD PUSH1 0x1 DUP2 DUP2 ADD DUP4 SSTORE SWAP2 DUP4 MSTORE DUP4 DUP4 KECCAK256 ADD DUP8 SWAP1 SSTORE DUP7 DUP3 MSTORE PUSH1 0xE SWAP1 SWAP3 MSTORE SWAP2 SWAP1 SWAP2 KECCAK256 PUSH1 0x7 ADD SLOAD PUSH2 0x1289 SWAP2 PUSH2 0x24B5 JUMP JUMPDEST PUSH1 0x0 DUP5 DUP2 MSTORE PUSH1 0xE PUSH1 0x20 MSTORE PUSH1 0x40 SWAP1 KECCAK256 PUSH1 0x7 DUP2 ADD SWAP2 SWAP1 SWAP2 SSTORE PUSH1 0x8 ADD SLOAD PUSH2 0x12AD SWAP1 DUP4 PUSH2 0x24B5 JUMP JUMPDEST PUSH1 0x0 DUP5 DUP2 MSTORE PUSH1 0xE PUSH1 0x20 MSTORE PUSH1 0x40 SWAP1 KECCAK256 PUSH1 0x8 ADD SSTORE PUSH1 0x5 SLOAD PUSH2 0x12CC SWAP1 DUP4 PUSH2 0x24B5 JUMP JUMPDEST PUSH1 0x5 SSTORE PUSH1 0x40 MLOAD DUP3 DUP2 MSTORE CALLER SWAP1 DUP5 SWAP1 PUSH32 0xDF10BB3BCDBED673D1617AE247E30A091BD3041DF07C5DF494EBD136F0F118D0 SWAP1 PUSH1 0x20 ADD PUSH1 0x40 MLOAD DUP1 SWAP2 SUB SWAP1 LOG3 PUSH2 0x130F PUSH1 0x1 DUP1 SSTORE JUMP JUMPDEST POP POP POP JUMP JUMPDEST PUSH1 0x60 PUSH1 0x14 PUSH1 0x0 DUP4 DUP2 MSTORE PUSH1 0x20 ADD SWAP1 DUP2 MSTORE PUSH1 0x20 ADD PUSH1 0x0 KECCAK256 DUP1 SLOAD DUP1 PUSH1 0x20 MUL PUSH1 0x20 ADD PUSH1 0x40 MLOAD SWAP1 DUP2 ADD PUSH1 0x40 MSTORE DUP1 SWAP3 SWAP2 SWAP1 DUP2 DUP2 MSTORE PUSH1 0x20 ADD PUSH1 0x0 SWAP1 JUMPDEST DUP3 DUP3 LT ISZERO PUSH2 0x13AB JUMPI PUSH1 0x0 DUP5 DUP2 MSTORE PUSH1 0x20 SWAP1 DUP2 SWAP1 KECCAK256 PUSH1 0x40 DUP1 MLOAD PUSH1 0x80 DUP2 ADD DUP3 MSTORE PUSH1 0x4 DUP7 MUL SWAP1 SWAP3 ADD DUP1 SLOAD PUSH1 0x1 PUSH1 0x1 PUSH1 0xA0 SHL SUB AND DUP4 MSTORE PUSH1 0x1 DUP1 DUP3 ADD SLOAD DUP5 DUP7 ADD MSTORE PUSH1 0x2 DUP3 ADD SLOAD SWAP3 DUP5 ADD SWAP3 SWAP1 SWAP3 MSTORE PUSH1 0x3 ADD SLOAD PUSH1 0xFF AND ISZERO ISZERO PUSH1 0x60 DUP4 ADD MSTORE SWAP1 DUP4 MSTORE SWAP1 SWAP3 ADD SWAP2 ADD PUSH2 0x1349 JUMP JUMPDEST POP POP POP POP SWAP1 POP SWAP2 SWAP1 POP JUMP JUMPDEST PUSH1 0x1 PUSH1 0x1 PUSH1 0xA0 SHL SUB DUP2 AND PUSH1 0x0 SWAP1 DUP2 MSTORE PUSH1 0x16 PUSH1 0x20 SWAP1 DUP2 MSTORE PUSH1 0x40 SWAP2 DUP3 SWAP1 KECCAK256 DUP1 SLOAD DUP4 MLOAD DUP2 DUP5 MUL DUP2 ADD DUP5 ADD SWAP1 SWAP5 MSTORE DUP1 DUP5 MSTORE PUSH1 0x60 SWAP4 SWAP3 DUP4 ADD DUP3 DUP3 DUP1 ISZERO PUSH2 0x1416 JUMPI PUSH1 0x20 MUL DUP3 ADD SWAP2 SWAP1 PUSH1 0x0 MSTORE PUSH1 0x20 PUSH1 0x0 KECCAK256 SWAP1 JUMPDEST DUP2 SLOAD DUP2 MSTORE PUSH1 0x20 ADD SWAP1 PUSH1 0x1 ADD SWAP1 DUP1 DUP4 GT PUSH2 0x1402 JUMPI JUMPDEST POP POP POP POP POP SWAP1 POP SWAP2 SWAP1 POP JUMP JUMPDEST PUSH2 0x142A PUSH2 0x21D5 JUMP JUMPDEST PUSH2 0x8E0 PUSH2 0x24C1 JUMP JUMPDEST PUSH1 0xF PUSH1 0x20 MSTORE DUP2 PUSH1 0x0 MSTORE PUSH1 0x40 PUSH1 0x0 KECCAK256 DUP2 DUP2 SLOAD DUP2 LT PUSH2 0x144E JUMPI PUSH1 0x0 DUP1 REVERT JUMPDEST SWAP1 PUSH1 0x0 MSTORE PUSH1 0x20 PUSH1 0x0 KECCAK256 ADD PUSH1 0x0 SWAP2 POP SWAP2 POP POP SLOAD DUP2 JUMP JUMPDEST PUSH1 0x3 SLOAD PUSH1 0x1 PUSH1 0x1 PUSH1 0xA0 SHL SUB AND CALLER EQ PUSH2 0x148D JUMPI PUSH1 0x40 MLOAD PUSH3 0x461BCD PUSH1 0xE5 SHL DUP2 MSTORE PUSH1 0x4 ADD PUSH2 0x6E8 SWAP1 PUSH2 0x2AB8 JUMP JUMPDEST PUSH1 0x1 PUSH1 0xC SLOAD PUSH1 0xFF AND PUSH1 0x3 DUP2 GT ISZERO PUSH2 0x14A6 JUMPI PUSH2 0x14A6 PUSH2 0x274C JUMP JUMPDEST EQ PUSH2 0x14C3 JUMPI PUSH1 0x40 MLOAD PUSH3 0x461BCD PUSH1 0xE5 SHL DUP2 MSTORE PUSH1 0x4 ADD PUSH2 0x6E8 SWAP1 PUSH2 0x2C51 JUMP JUMPDEST PUSH1 0x9 SLOAD TIMESTAMP LT ISZERO PUSH2 0x1525 JUMPI PUSH1 0x40 MLOAD PUSH3 0x461BCD PUSH1 0xE5 SHL DUP2 MSTORE PUSH1 0x20 PUSH1 0x4 DUP3 ADD MSTORE PUSH1 0x27 PUSH1 0x24 DUP3 ADD MSTORE PUSH32 0x436F6E74657374496E7374616E63653A20566F74696E67207068617365206E6F PUSH1 0x44 DUP3 ADD MSTORE PUSH7 0x1D08195B991959 PUSH1 0xCA SHL PUSH1 0x64 DUP3 ADD MSTORE PUSH1 0x84 ADD PUSH2 0x6E8 JUMP JUMPDEST PUSH1 0xD SLOAD PUSH1 0x0 SUB PUSH2 0x15D6 JUMPI PUSH1 0xC DUP1 SLOAD PUSH1 0xFF NOT AND PUSH1 0x3 OR SWAP1 SSTORE PUSH1 0x40 MLOAD PUSH1 0x2 DUP2 MSTORE PUSH32 0xC87F3801DDE012630E385A9936C4228B5817C67D8FD74705BC5BCF5C40E8F516 SWAP1 PUSH1 0x20 ADD PUSH1 0x40 MLOAD DUP1 SWAP2 SUB SWAP1 LOG1 PUSH1 0x4 SLOAD ISZERO PUSH2 0x8E0 JUMPI PUSH1 0x2 SLOAD PUSH1 0x3 SLOAD PUSH1 0x4 DUP1 SLOAD PUSH1 0x40 MLOAD PUSH4 0xA9059CBB PUSH1 0xE0 SHL DUP2 MSTORE PUSH1 0x1 PUSH1 0x1 PUSH1 0xA0 SHL SUB SWAP4 DUP5 AND SWAP3 DUP2 ADD SWAP3 SWAP1 SWAP3 MSTORE PUSH1 0x24 DUP3 ADD MSTORE PUSH2 0x100 SWAP1 SWAP3 DIV AND SWAP1 PUSH4 0xA9059CBB SWAP1 PUSH1 0x44 ADD PUSH1 0x20 PUSH1 0x40 MLOAD DUP1 DUP4 SUB DUP2 PUSH1 0x0 DUP8 GAS CALL ISZERO DUP1 ISZERO PUSH2 0x8BA JUMPI RETURNDATASIZE PUSH1 0x0 DUP1 RETURNDATACOPY RETURNDATASIZE PUSH1 0x0 REVERT JUMPDEST PUSH1 0x0 DUP1 PUSH1 0x0 JUMPDEST PUSH1 0xD SLOAD DUP2 LT ISZERO PUSH2 0x1623 JUMPI PUSH1 0x0 DUP2 DUP2 MSTORE PUSH1 0x10 PUSH1 0x20 MSTORE PUSH1 0x40 SWAP1 KECCAK256 SLOAD DUP4 LT ISZERO PUSH2 0x1611 JUMPI PUSH1 0x0 DUP2 DUP2 MSTORE PUSH1 0x10 PUSH1 0x20 MSTORE PUSH1 0x40 SWAP1 KECCAK256 SLOAD SWAP3 POP SWAP1 POP DUP1 JUMPDEST DUP1 PUSH2 0x161B DUP2 PUSH2 0x2CAB JUMP JUMPDEST SWAP2 POP POP PUSH2 0x15DC JUMP JUMPDEST POP PUSH1 0x17 DUP2 SWAP1 SSTORE PUSH1 0xC DUP1 SLOAD PUSH1 0xFF NOT AND PUSH1 0x2 OR SWAP1 SSTORE PUSH1 0x40 MLOAD DUP2 SWAP1 PUSH32 0x7668F8223572B282777E316054AD01EE7917FADB1089878DA343CDC075B34B89 SWAP1 PUSH1 0x0 SWAP1 LOG2 PUSH32 0xEEB345FEA22465C927333E05D324EE5B476597701D8BE7E5D9AACC60E7AEFBAF PUSH1 0x1 PUSH1 0x2 PUSH1 0x40 MLOAD PUSH2 0x1694 SWAP3 SWAP2 SWAP1 PUSH2 0x2B45 JUMP JUMPDEST PUSH1 0x40 MLOAD DUP1 SWAP2 SUB SWAP1 LOG1 PUSH2 0x16A4 PUSH2 0xCD6 JUMP JUMPDEST POP POP JUMP JUMPDEST PUSH1 0x0 PUSH1 0xC SLOAD PUSH1 0xFF AND PUSH1 0x3 DUP2 GT ISZERO PUSH2 0x16C1 JUMPI PUSH2 0x16C1 PUSH2 0x274C JUMP JUMPDEST EQ PUSH2 0x16DE JUMPI PUSH1 0x40 MLOAD PUSH3 0x461BCD PUSH1 0xE5 SHL DUP2 MSTORE PUSH1 0x4 ADD PUSH2 0x6E8 SWAP1 PUSH2 0x2AFD JUMP JUMPDEST PUSH1 0x8 SLOAD TIMESTAMP GT ISZERO PUSH2 0x1700 JUMPI PUSH1 0x40 MLOAD PUSH3 0x461BCD PUSH1 0xE5 SHL DUP2 MSTORE PUSH1 0x4 ADD PUSH2 0x6E8 SWAP1 PUSH2 0x2C06 JUMP JUMPDEST PUSH2 0x1708 PUSH2 0x245C JUMP JUMPDEST PUSH1 0x0 DUP5 MLOAD GT PUSH2 0x1763 JUMPI PUSH1 0x40 MLOAD PUSH3 0x461BCD PUSH1 0xE5 SHL DUP2 MSTORE PUSH1 0x20 PUSH1 0x4 DUP3 ADD MSTORE PUSH1 0x21 PUSH1 0x24 DUP3 ADD MSTORE PUSH32 0x436F6E74657374496E7374616E63653A20496E76616C6964206D656D65205552 PUSH1 0x44 DUP3 ADD MSTORE PUSH1 0x13 PUSH1 0xFA SHL PUSH1 0x64 DUP3 ADD MSTORE PUSH1 0x84 ADD PUSH2 0x6E8 JUMP JUMPDEST PUSH1 0x0 DUP4 MLOAD GT PUSH2 0x17BF JUMPI PUSH1 0x40 MLOAD PUSH3 0x461BCD PUSH1 0xE5 SHL DUP2 MSTORE PUSH1 0x20 PUSH1 0x4 DUP3 ADD MSTORE PUSH1 0x22 PUSH1 0x24 DUP3 ADD MSTORE PUSH32 0x436F6E74657374496E7374616E63653A20496E76616C6964206D656D65207479 PUSH1 0x44 DUP3 ADD MSTORE PUSH2 0x7065 PUSH1 0xF0 SHL PUSH1 0x64 DUP3 ADD MSTORE PUSH1 0x84 ADD PUSH2 0x6E8 JUMP JUMPDEST PUSH1 0xD SLOAD PUSH1 0x40 DUP1 MLOAD PUSH2 0x160 DUP2 ADD DUP3 MSTORE CALLER DUP2 MSTORE PUSH1 0x20 DUP1 DUP3 ADD DUP9 DUP2 MSTORE DUP3 DUP5 ADD DUP9 SWAP1 MSTORE PUSH1 0x60 DUP4 ADD DUP8 SWAP1 MSTORE PUSH1 0x80 DUP4 ADD DUP7 SWAP1 MSTORE PUSH1 0x0 PUSH1 0xA0 DUP5 ADD DUP2 SWAP1 MSTORE PUSH1 0xC0 DUP5 ADD DUP2 SWAP1 MSTORE PUSH1 0xE0 DUP5 ADD DUP2 SWAP1 MSTORE PUSH2 0x100 DUP5 ADD DUP2 SWAP1 MSTORE PUSH1 0x1 PUSH2 0x120 DUP6 ADD DUP2 SWAP1 MSTORE TIMESTAMP PUSH2 0x140 DUP7 ADD MSTORE DUP7 DUP3 MSTORE PUSH1 0xE SWAP1 SWAP4 MSTORE SWAP4 SWAP1 SWAP4 KECCAK256 DUP3 MLOAD DUP2 SLOAD PUSH1 0x1 PUSH1 0x1 PUSH1 0xA0 SHL SUB NOT AND PUSH1 0x1 PUSH1 0x1 PUSH1 0xA0 SHL SUB SWAP1 SWAP2 AND OR DUP2 SSTORE SWAP3 MLOAD SWAP2 SWAP3 SWAP2 SWAP1 DUP3 ADD SWAP1 PUSH2 0x1857 SWAP1 DUP3 PUSH2 0x2D12 JUMP JUMPDEST POP PUSH1 0x40 DUP3 ADD MLOAD PUSH1 0x2 DUP3 ADD SWAP1 PUSH2 0x186C SWAP1 DUP3 PUSH2 0x2D12 JUMP JUMPDEST POP PUSH1 0x60 DUP3 ADD MLOAD PUSH1 0x3 DUP3 ADD SWAP1 PUSH2 0x1881 SWAP1 DUP3 PUSH2 0x2D12 JUMP JUMPDEST POP PUSH1 0x80 DUP3 ADD MLOAD PUSH1 0x4 DUP3 ADD SWAP1 PUSH2 0x1896 SWAP1 DUP3 PUSH2 0x2D12 JUMP JUMPDEST POP PUSH1 0xA0 DUP3 ADD MLOAD PUSH1 0x5 DUP3 ADD SSTORE PUSH1 0xC0 DUP3 ADD MLOAD PUSH1 0x6 DUP3 ADD SSTORE PUSH1 0xE0 DUP3 ADD MLOAD PUSH1 0x7 DUP3 ADD SSTORE PUSH2 0x100 DUP3 ADD MLOAD PUSH1 0x8 DUP3 ADD SSTORE PUSH2 0x120 DUP3 ADD MLOAD PUSH1 0x9 DUP3 ADD DUP1 SLOAD PUSH1 0xFF NOT AND SWAP2 ISZERO ISZERO SWAP2 SWAP1 SWAP2 OR SWAP1 SSTORE PUSH2 0x140 SWAP1 SWAP2 ADD MLOAD PUSH1 0xA SWAP1 SWAP2 ADD SSTORE CALLER PUSH1 0x0 SWAP1 DUP2 MSTORE PUSH1 0xF PUSH1 0x20 SWAP1 DUP2 MSTORE PUSH1 0x40 DUP3 KECCAK256 DUP1 SLOAD PUSH1 0x1 DUP2 DUP2 ADD DUP4 SSTORE SWAP2 DUP5 MSTORE SWAP2 SWAP1 SWAP3 KECCAK256 ADD DUP3 SWAP1 SSTORE PUSH1 0xD SLOAD PUSH2 0x1917 SWAP2 PUSH2 0x24B5 JUMP JUMPDEST PUSH1 0xD SSTORE PUSH1 0x40 MLOAD CALLER SWAP1 DUP3 SWAP1 PUSH32 0x3EE1452BCD5C79AB4EACA13D45C93CB39AD840132DE7455B5A98E622D1913CF2 SWAP1 PUSH2 0x194E SWAP1 DUP10 SWAP1 PUSH2 0x2739 JUMP JUMPDEST PUSH1 0x40 MLOAD DUP1 SWAP2 SUB SWAP1 LOG3 POP PUSH2 0x1960 PUSH1 0x1 DUP1 SSTORE JUMP JUMPDEST POP POP POP POP JUMP JUMPDEST PUSH1 0x1 PUSH1 0x1 PUSH1 0xA0 SHL SUB DUP2 AND PUSH1 0x0 SWAP1 DUP2 MSTORE PUSH1 0xF PUSH1 0x20 SWAP1 DUP2 MSTORE PUSH1 0x40 SWAP2 DUP3 SWAP1 KECCAK256 DUP1 SLOAD DUP4 MLOAD DUP2 DUP5 MUL DUP2 ADD DUP5 ADD SWAP1 SWAP5 MSTORE DUP1 DUP5 MSTORE PUSH1 0x60 SWAP4 SWAP3 DUP4 ADD DUP3 DUP3 DUP1 ISZERO PUSH2 0x1416 JUMPI PUSH1 0x20 MUL DUP3 ADD SWAP2 SWAP1 PUSH1 0x0 MSTORE PUSH1 0x20 PUSH1 0x0 KECCAK256 SWAP1 DUP2 SLOAD DUP2 MSTORE PUSH1 0x20 ADD SWAP1 PUSH1 0x1 ADD SWAP1 DUP1 DUP4 GT PUSH2 0x1402 JUMPI POP POP POP POP POP SWAP1 POP SWAP2 SWAP1 POP JUMP JUMPDEST PUSH1 0xE PUSH1 0x20 MSTORE PUSH1 0x0 SWAP1 DUP2 MSTORE PUSH1 0x40 SWAP1 KECCAK256 DUP1 SLOAD PUSH1 0x1 DUP3 ADD DUP1 SLOAD PUSH1 0x1 PUSH1 0x1 PUSH1 0xA0 SHL SUB SWAP1 SWAP3 AND SWAP3 SWAP2 PUSH2 0x19FC SWAP1 PUSH2 0x2BCC JUMP JUMPDEST DUP1 PUSH1 0x1F ADD PUSH1 0x20 DUP1 SWAP2 DIV MUL PUSH1 0x20 ADD PUSH1 0x40 MLOAD SWAP1 DUP2 ADD PUSH1 0x40 MSTORE DUP1 SWAP3 SWAP2 SWAP1 DUP2 DUP2 MSTORE PUSH1 0x20 ADD DUP3 DUP1 SLOAD PUSH2 0x1A28 SWAP1 PUSH2 0x2BCC JUMP JUMPDEST DUP1 ISZERO PUSH2 0x1A75 JUMPI DUP1 PUSH1 0x1F LT PUSH2 0x1A4A JUMPI PUSH2 0x100 DUP1 DUP4 SLOAD DIV MUL DUP4 MSTORE SWAP2 PUSH1 0x20 ADD SWAP2 PUSH2 0x1A75 JUMP JUMPDEST DUP3 ADD SWAP2 SWAP1 PUSH1 0x0 MSTORE PUSH1 0x20 PUSH1 0x0 KECCAK256 SWAP1 JUMPDEST DUP2 SLOAD DUP2 MSTORE SWAP1 PUSH1 0x1 ADD SWAP1 PUSH1 0x20 ADD DUP1 DUP4 GT PUSH2 0x1A58 JUMPI DUP3 SWAP1 SUB PUSH1 0x1F AND DUP3 ADD SWAP2 JUMPDEST POP POP POP POP POP SWAP1 DUP1 PUSH1 0x2 ADD DUP1 SLOAD PUSH2 0x1A8A SWAP1 PUSH2 0x2BCC JUMP JUMPDEST DUP1 PUSH1 0x1F ADD PUSH1 0x20 DUP1 SWAP2 DIV MUL PUSH1 0x20 ADD PUSH1 0x40 MLOAD SWAP1 DUP2 ADD PUSH1 0x40 MSTORE DUP1 SWAP3 SWAP2 SWAP1 DUP2 DUP2 MSTORE PUSH1 0x20 ADD DUP3 DUP1 SLOAD PUSH2 0x1AB6 SWAP1 PUSH2 0x2BCC JUMP JUMPDEST DUP1 ISZERO PUSH2 0x1B03 JUMPI DUP1 PUSH1 0x1F LT PUSH2 0x1AD8 JUMPI PUSH2 0x100 DUP1 DUP4 SLOAD DIV MUL DUP4 MSTORE SWAP2 PUSH1 0x20 ADD SWAP2 PUSH2 0x1B03 JUMP JUMPDEST DUP3 ADD SWAP2 SWAP1 PUSH1 0x0 MSTORE PUSH1 0x20 PUSH1 0x0 KECCAK256 SWAP1 JUMPDEST DUP2 SLOAD DUP2 MSTORE SWAP1 PUSH1 0x1 ADD SWAP1 PUSH1 0x20 ADD DUP1 DUP4 GT PUSH2 0x1AE6 JUMPI DUP3 SWAP1 SUB PUSH1 0x1F AND DUP3 ADD SWAP2 JUMPDEST POP POP POP POP POP SWAP1 DUP1 PUSH1 0x3 ADD DUP1 SLOAD PUSH2 0x1B18 SWAP1 PUSH2 0x2BCC JUMP JUMPDEST DUP1 PUSH1 0x1F ADD PUSH1 0x20 DUP1 SWAP2 DIV MUL PUSH1 0x20 ADD PUSH1 0x40 MLOAD SWAP1 DUP2 ADD PUSH1 0x40 MSTORE DUP1 SWAP3 SWAP2 SWAP1 DUP2 DUP2 MSTORE PUSH1 0x20 ADD DUP3 DUP1 SLOAD PUSH2 0x1B44 SWAP1 PUSH2 0x2BCC JUMP JUMPDEST DUP1 ISZERO PUSH2 0x1B91 JUMPI DUP1 PUSH1 0x1F LT PUSH2 0x1B66 JUMPI PUSH2 0x100 DUP1 DUP4 SLOAD DIV MUL DUP4 MSTORE SWAP2 PUSH1 0x20 ADD SWAP2 PUSH2 0x1B91 JUMP JUMPDEST DUP3 ADD SWAP2 SWAP1 PUSH1 0x0 MSTORE PUSH1 0x20 PUSH1 0x0 KECCAK256 SWAP1 JUMPDEST DUP2 SLOAD DUP2 MSTORE SWAP1 PUSH1 0x1 ADD SWAP1 PUSH1 0x20 ADD DUP1 DUP4 GT PUSH2 0x1B74 JUMPI DUP3 SWAP1 SUB PUSH1 0x1F AND DUP3 ADD SWAP2 JUMPDEST POP POP POP POP POP SWAP1 DUP1 PUSH1 0x4 ADD DUP1 SLOAD PUSH2 0x1BA6 SWAP1 PUSH2 0x2BCC JUMP JUMPDEST DUP1 PUSH1 0x1F ADD PUSH1 0x20 DUP1 SWAP2 DIV MUL PUSH1 0x20 ADD PUSH1 0x40 MLOAD SWAP1 DUP2 ADD PUSH1 0x40 MSTORE DUP1 SWAP3 SWAP2 SWAP1 DUP2 DUP2 MSTORE PUSH1 0x20 ADD DUP3 DUP1 SLOAD PUSH2 0x1BD2 SWAP1 PUSH2 0x2BCC JUMP JUMPDEST DUP1 ISZERO PUSH2 0x1C1F JUMPI DUP1 PUSH1 0x1F LT PUSH2 0x1BF4 JUMPI PUSH2 0x100 DUP1 DUP4 SLOAD DIV MUL DUP4 MSTORE SWAP2 PUSH1 0x20 ADD SWAP2 PUSH2 0x1C1F JUMP JUMPDEST DUP3 ADD SWAP2 SWAP1 PUSH1 0x0 MSTORE PUSH1 0x20 PUSH1 0x0 KECCAK256 SWAP1 JUMPDEST DUP2 SLOAD DUP2 MSTORE SWAP1 PUSH1 0x1 ADD SWAP1 PUSH1 0x20 ADD DUP1 DUP4 GT PUSH2 0x1C02 JUMPI DUP3 SWAP1 SUB PUSH1 0x1F AND DUP3 ADD SWAP2 JUMPDEST POP POP POP PUSH1 0x5 DUP5 ADD SLOAD PUSH1 0x6 DUP6 ADD SLOAD PUSH1 0x7 DUP7 ADD SLOAD PUSH1 0x8 DUP8 ADD SLOAD PUSH1 0x9 DUP9 ADD SLOAD PUSH1 0xA SWAP1 SWAP9 ADD SLOAD SWAP7 SWAP8 SWAP4 SWAP7 SWAP3 SWAP6 POP SWAP1 SWAP4 POP SWAP2 PUSH1 0xFF AND SWAP1 DUP12 JUMP JUMPDEST PUSH1 0x1 PUSH1 0xC SLOAD PUSH1 0xFF AND PUSH1 0x3 DUP2 GT ISZERO PUSH2 0x1C6C JUMPI PUSH2 0x1C6C PUSH2 0x274C JUMP JUMPDEST EQ PUSH2 0x1C89 JUMPI PUSH1 0x40 MLOAD PUSH3 0x461BCD PUSH1 0xE5 SHL DUP2 MSTORE PUSH1 0x4 ADD PUSH2 0x6E8 SWAP1 PUSH2 0x2C51 JUMP JUMPDEST PUSH1 0x9 SLOAD TIMESTAMP GT ISZERO PUSH2 0x1CEB JUMPI PUSH1 0x40 MLOAD PUSH3 0x461BCD PUSH1 0xE5 SHL DUP2 MSTORE PUSH1 0x20 PUSH1 0x4 DUP3 ADD MSTORE PUSH1 0x27 PUSH1 0x24 DUP3 ADD MSTORE PUSH32 0x436F6E74657374496E7374616E63653A20566F74696E6720646561646C696E65 PUSH1 0x44 DUP3 ADD MSTORE PUSH7 0x81C185CDCD959 PUSH1 0xCA SHL PUSH1 0x64 DUP3 ADD MSTORE PUSH1 0x84 ADD PUSH2 0x6E8 JUMP JUMPDEST PUSH1 0x0 DUP3 DUP2 MSTORE PUSH1 0xE PUSH1 0x20 MSTORE PUSH1 0x40 SWAP1 KECCAK256 PUSH1 0x9 ADD SLOAD DUP3 SWAP1 PUSH1 0xFF AND PUSH2 0x1D1E JUMPI PUSH1 0x40 MLOAD PUSH3 0x461BCD PUSH1 0xE5 SHL DUP2 MSTORE PUSH1 0x4 ADD PUSH2 0x6E8 SWAP1 PUSH2 0x2B82 JUMP JUMPDEST PUSH2 0x1D26 PUSH2 0x245C JUMP JUMPDEST PUSH1 0x19 SLOAD PUSH1 0x0 SWAP1 PUSH2 0x1D42 SWAP1 PUSH2 0xDD4 PUSH8 0xDE0B6B3A7640000 DUP1 PUSH2 0x2281 JUMP JUMPDEST SWAP1 POP DUP1 DUP4 LT ISZERO PUSH2 0x1DA0 JUMPI PUSH1 0x40 MLOAD PUSH3 0x461BCD PUSH1 0xE5 SHL DUP2 MSTORE PUSH1 0x20 PUSH1 0x4 DUP3 ADD MSTORE PUSH1 0x24 DUP1 DUP3 ADD MSTORE PUSH32 0x436F6E74657374496E7374616E63653A20566F746520616D6F756E7420746F6F PUSH1 0x44 DUP3 ADD MSTORE PUSH4 0x206C6F77 PUSH1 0xE0 SHL PUSH1 0x64 DUP3 ADD MSTORE PUSH1 0x84 ADD PUSH2 0x6E8 JUMP JUMPDEST PUSH1 0x19 SLOAD PUSH1 0x0 SWAP1 PUSH2 0x1DC4 SWAP1 PUSH2 0xDD4 PUSH8 0x8AC7230489E80000 PUSH8 0xDE0B6B3A7640000 PUSH2 0x2281 JUMP JUMPDEST SWAP1 POP DUP1 DUP5 GT ISZERO PUSH2 0x1E24 JUMPI PUSH1 0x40 MLOAD PUSH3 0x461BCD PUSH1 0xE5 SHL DUP2 MSTORE PUSH1 0x20 PUSH1 0x4 DUP3 ADD MSTORE PUSH1 0x25 PUSH1 0x24 DUP3 ADD MSTORE PUSH32 0x436F6E74657374496E7374616E63653A20566F746520616D6F756E7420746F6F PUSH1 0x44 DUP3 ADD MSTORE PUSH5 0x40D0D2CED PUSH1 0xDB SHL PUSH1 0x64 DUP3 ADD MSTORE PUSH1 0x84 ADD PUSH2 0x6E8 JUMP JUMPDEST CALLER PUSH1 0x0 SWAP1 DUP2 MSTORE PUSH1 0x12 PUSH1 0x20 SWAP1 DUP2 MSTORE PUSH1 0x40 DUP1 DUP4 KECCAK256 DUP9 DUP5 MSTORE SWAP1 SWAP2 MSTORE SWAP1 KECCAK256 SLOAD PUSH1 0xFF AND ISZERO PUSH2 0x1EAA JUMPI PUSH1 0x40 MLOAD PUSH3 0x461BCD PUSH1 0xE5 SHL DUP2 MSTORE PUSH1 0x20 PUSH1 0x4 DUP3 ADD MSTORE PUSH1 0x32 PUSH1 0x24 DUP3 ADD MSTORE PUSH32 0x436F6E74657374496E7374616E63653A20416C726561647920766F7465642066 PUSH1 0x44 DUP3 ADD MSTORE PUSH18 0x37B9103A3434B99039BAB136B4B9B9B4B7B7 PUSH1 0x71 SHL PUSH1 0x64 DUP3 ADD MSTORE PUSH1 0x84 ADD PUSH2 0x6E8 JUMP JUMPDEST PUSH1 0x2 SLOAD PUSH1 0x40 MLOAD PUSH4 0x23B872DD PUSH1 0xE0 SHL DUP2 MSTORE CALLER PUSH1 0x4 DUP3 ADD MSTORE ADDRESS PUSH1 0x24 DUP3 ADD MSTORE PUSH1 0x44 DUP2 ADD DUP7 SWAP1 MSTORE PUSH2 0x100 SWAP1 SWAP2 DIV PUSH1 0x1 PUSH1 0x1 PUSH1 0xA0 SHL SUB AND SWAP1 PUSH4 0x23B872DD SWAP1 PUSH1 0x64 ADD PUSH1 0x20 PUSH1 0x40 MLOAD DUP1 DUP4 SUB DUP2 PUSH1 0x0 DUP8 GAS CALL ISZERO DUP1 ISZERO PUSH2 0x1F05 JUMPI RETURNDATASIZE PUSH1 0x0 DUP1 RETURNDATACOPY RETURNDATASIZE PUSH1 0x0 REVERT JUMPDEST POP POP POP POP PUSH1 0x40 MLOAD RETURNDATASIZE PUSH1 0x1F NOT PUSH1 0x1F DUP3 ADD AND DUP3 ADD DUP1 PUSH1 0x40 MSTORE POP DUP2 ADD SWAP1 PUSH2 0x1F29 SWAP2 SWAP1 PUSH2 0x2B60 JUMP JUMPDEST PUSH2 0x1F83 JUMPI PUSH1 0x40 MLOAD PUSH3 0x461BCD PUSH1 0xE5 SHL DUP2 MSTORE PUSH1 0x20 PUSH1 0x4 DUP3 ADD MSTORE PUSH1 0x25 PUSH1 0x24 DUP3 ADD MSTORE PUSH32 0x436F6E74657374496E7374616E63653A20566F7465207472616E736665722066 PUSH1 0x44 DUP3 ADD MSTORE PUSH5 0x185A5B1959 PUSH1 0xDA SHL PUSH1 0x64 DUP3 ADD MSTORE PUSH1 0x84 ADD PUSH2 0x6E8 JUMP JUMPDEST CALLER PUSH1 0x0 SWAP1 DUP2 MSTORE PUSH1 0x12 PUSH1 0x20 SWAP1 DUP2 MSTORE PUSH1 0x40 DUP1 DUP4 KECCAK256 DUP9 DUP5 MSTORE DUP3 MSTORE DUP1 DUP4 KECCAK256 DUP1 SLOAD PUSH1 0xFF NOT AND PUSH1 0x1 SWAP1 DUP2 OR SWAP1 SWAP2 SSTORE PUSH1 0x10 SWAP1 SWAP3 MSTORE SWAP1 SWAP2 KECCAK256 SLOAD PUSH2 0x1FBD SWAP2 PUSH2 0x24B5 JUMP JUMPDEST PUSH1 0x0 DUP7 DUP2 MSTORE PUSH1 0x10 PUSH1 0x20 SWAP1 DUP2 MSTORE PUSH1 0x40 DUP1 DUP4 KECCAK256 SWAP4 SWAP1 SWAP4 SSTORE PUSH1 0x11 SWAP1 MSTORE KECCAK256 SLOAD PUSH2 0x1FE2 SWAP1 DUP6 PUSH2 0x24B5 JUMP JUMPDEST PUSH1 0x0 DUP7 DUP2 MSTORE PUSH1 0x11 PUSH1 0x20 SWAP1 DUP2 MSTORE PUSH1 0x40 DUP1 DUP4 KECCAK256 SWAP4 SWAP1 SWAP4 SSTORE CALLER DUP3 MSTORE PUSH1 0x13 SWAP1 MSTORE KECCAK256 SLOAD PUSH2 0x200A SWAP1 DUP6 PUSH2 0x24B5 JUMP JUMPDEST CALLER PUSH1 0x0 SWAP1 DUP2 MSTORE PUSH1 0x13 PUSH1 0x20 MSTORE PUSH1 0x40 SWAP1 KECCAK256 SSTORE PUSH1 0x5 SLOAD PUSH2 0x2027 SWAP1 DUP6 PUSH2 0x24B5 JUMP JUMPDEST PUSH1 0x5 SWAP1 DUP2 SSTORE PUSH1 0x0 DUP7 DUP2 MSTORE PUSH1 0xE PUSH1 0x20 MSTORE PUSH1 0x40 SWAP1 KECCAK256 ADD SLOAD PUSH2 0x2047 SWAP1 PUSH1 0x1 PUSH2 0x24B5 JUMP JUMPDEST PUSH1 0x0 DUP7 DUP2 MSTORE PUSH1 0xE PUSH1 0x20 MSTORE PUSH1 0x40 SWAP1 KECCAK256 PUSH1 0x5 DUP2 ADD SWAP2 SWAP1 SWAP2 SSTORE PUSH1 0x6 ADD SLOAD PUSH2 0x206B SWAP1 DUP6 PUSH2 0x24B5 JUMP JUMPDEST PUSH1 0x0 DUP7 DUP2 MSTORE PUSH1 0xE PUSH1 0x20 SWAP1 DUP2 MSTORE PUSH1 0x40 SWAP2 DUP3 SWAP1 KECCAK256 PUSH1 0x6 ADD SWAP3 SWAP1 SWAP3 SSTORE MLOAD DUP6 DUP2 MSTORE CALLER SWAP2 DUP8 SWAP2 PUSH32 0x2ACCE567DECA3AABF56327ADBB4524BD5318936EAEFA69E3A5208FFDA0CFEC09 SWAP2 ADD PUSH1 0x40 MLOAD DUP1 SWAP2 SUB SWAP1 LOG3 POP POP PUSH2 0x130F PUSH1 0x1 DUP1 SSTORE JUMP JUMPDEST PUSH1 0x16 PUSH1 0x20 MSTORE DUP2 PUSH1 0x0 MSTORE PUSH1 0x40 PUSH1 0x0 KECCAK256 DUP2 DUP2 SLOAD DUP2 LT PUSH2 0x144E JUMPI PUSH1 0x0 DUP1 REVERT JUMPDEST PUSH1 0x1 PUSH1 0x1 PUSH1 0xA0 SHL SUB DUP3 AND PUSH1 0x0 SWAP1 DUP2 MSTORE PUSH1 0x12 PUSH1 0x20 SWAP1 DUP2 MSTORE PUSH1 0x40 DUP1 DUP4 KECCAK256 DUP5 DUP5 MSTORE SWAP1 SWAP2 MSTORE SWAP1 KECCAK256 SLOAD PUSH1 0xFF AND JUMPDEST SWAP3 SWAP2 POP POP JUMP JUMPDEST PUSH1 0x14 PUSH1 0x20 MSTORE DUP2 PUSH1 0x0 MSTORE PUSH1 0x40 PUSH1 0x0 KECCAK256 DUP2 DUP2 SLOAD DUP2 LT PUSH2 0x2128 JUMPI PUSH1 0x0 DUP1 REVERT JUMPDEST PUSH1 0x0 SWAP2 DUP3 MSTORE PUSH1 0x20 SWAP1 SWAP2 KECCAK256 PUSH1 0x4 SWAP1 SWAP2 MUL ADD DUP1 SLOAD PUSH1 0x1 DUP3 ADD SLOAD PUSH1 0x2 DUP4 ADD SLOAD PUSH1 0x3 SWAP1 SWAP4 ADD SLOAD PUSH1 0x1 PUSH1 0x1 PUSH1 0xA0 SHL SUB SWAP1 SWAP3 AND SWAP5 POP SWAP3 POP PUSH1 0xFF AND DUP5 JUMP JUMPDEST PUSH2 0x2167 PUSH2 0x21D5 JUMP JUMPDEST PUSH1 0x1 PUSH1 0x1 PUSH1 0xA0 SHL SUB DUP2 AND PUSH2 0x21CC JUMPI PUSH1 0x40 MLOAD PUSH3 0x461BCD PUSH1 0xE5 SHL DUP2 MSTORE PUSH1 0x20 PUSH1 0x4 DUP3 ADD MSTORE PUSH1 0x26 PUSH1 0x24 DUP3 ADD MSTORE PUSH32 0x4F776E61626C653A206E6577206F776E657220697320746865207A65726F2061 PUSH1 0x44 DUP3 ADD MSTORE PUSH6 0x646472657373 PUSH1 0xD0 SHL PUSH1 0x64 DUP3 ADD MSTORE PUSH1 0x84 ADD PUSH2 0x6E8 JUMP JUMPDEST PUSH2 0x8DE DUP2 PUSH2 0x240C JUMP JUMPDEST PUSH1 0x0 SLOAD PUSH1 0x1 PUSH1 0x1 PUSH1 0xA0 SHL SUB AND CALLER EQ PUSH2 0x8E0 JUMPI PUSH1 0x40 MLOAD PUSH3 0x461BCD PUSH1 0xE5 SHL DUP2 MSTORE PUSH1 0x20 PUSH1 0x4 DUP3 ADD DUP2 SWAP1 MSTORE PUSH1 0x24 DUP3 ADD MSTORE PUSH32 0x4F776E61626C653A2063616C6C6572206973206E6F7420746865206F776E6572 PUSH1 0x44 DUP3 ADD MSTORE PUSH1 0x64 ADD PUSH2 0x6E8 JUMP JUMPDEST PUSH2 0x2237 PUSH2 0x24FE JUMP JUMPDEST PUSH1 0x2 DUP1 SLOAD PUSH1 0xFF NOT AND SWAP1 SSTORE PUSH32 0x5DB9EE0A495BF2E6FF9C91A7834C1BA4FDD244A5E8AA4E537BD38AEAE4B073AA CALLER JUMPDEST PUSH1 0x40 MLOAD PUSH1 0x1 PUSH1 0x1 PUSH1 0xA0 SHL SUB SWAP1 SWAP2 AND DUP2 MSTORE PUSH1 0x20 ADD PUSH1 0x40 MLOAD DUP1 SWAP2 SUB SWAP1 LOG1 JUMP JUMPDEST PUSH1 0x0 PUSH2 0x228D DUP3 DUP5 PUSH2 0x2DD2 JUMP JUMPDEST SWAP4 SWAP3 POP POP POP JUMP JUMPDEST PUSH1 0x0 PUSH2 0x228D DUP3 DUP5 PUSH2 0x2DE9 JUMP JUMPDEST PUSH1 0x0 PUSH2 0x228D DUP3 DUP5 PUSH2 0x2E0B JUMP JUMPDEST PUSH1 0x17 SLOAD PUSH1 0x0 SWAP1 DUP2 MSTORE PUSH1 0x14 PUSH1 0x20 MSTORE PUSH1 0x40 DUP2 KECCAK256 SWAP1 DUP1 JUMPDEST DUP3 SLOAD DUP2 LT ISZERO PUSH2 0x2313 JUMPI PUSH2 0x22FF DUP4 DUP3 DUP2 SLOAD DUP2 LT PUSH2 0x22DE JUMPI PUSH2 0x22DE PUSH2 0x2E1E JUMP JUMPDEST SWAP1 PUSH1 0x0 MSTORE PUSH1 0x20 PUSH1 0x0 KECCAK256 SWAP1 PUSH1 0x4 MUL ADD PUSH1 0x1 ADD SLOAD DUP4 PUSH2 0x24B5 SWAP1 SWAP2 SWAP1 PUSH4 0xFFFFFFFF AND JUMP JUMPDEST SWAP2 POP DUP1 PUSH2 0x230B DUP2 PUSH2 0x2CAB JUMP JUMPDEST SWAP2 POP POP PUSH2 0x22C0 JUMP JUMPDEST POP PUSH1 0x0 JUMPDEST DUP3 SLOAD DUP2 LT ISZERO PUSH2 0x1960 JUMPI PUSH1 0x0 DUP4 DUP3 DUP2 SLOAD DUP2 LT PUSH2 0x2334 JUMPI PUSH2 0x2334 PUSH2 0x2E1E JUMP JUMPDEST SWAP1 PUSH1 0x0 MSTORE PUSH1 0x20 PUSH1 0x0 KECCAK256 SWAP1 PUSH1 0x4 MUL ADD SWAP1 POP PUSH1 0x0 PUSH2 0x2361 DUP5 PUSH2 0xDD4 DUP5 PUSH1 0x1 ADD SLOAD DUP10 PUSH2 0x2281 SWAP1 SWAP2 SWAP1 PUSH4 0xFFFFFFFF AND JUMP JUMPDEST SWAP1 POP DUP1 ISZERO PUSH2 0x23F7 JUMPI PUSH1 0x2 SLOAD DUP3 SLOAD PUSH1 0x40 MLOAD PUSH4 0xA9059CBB PUSH1 0xE0 SHL DUP2 MSTORE PUSH1 0x1 PUSH1 0x1 PUSH1 0xA0 SHL SUB SWAP2 DUP3 AND PUSH1 0x4 DUP3 ADD MSTORE PUSH1 0x24 DUP2 ADD DUP5 SWAP1 MSTORE PUSH2 0x100 SWAP1 SWAP3 DIV AND SWAP1 PUSH4 0xA9059CBB SWAP1 PUSH1 0x44 ADD PUSH1 0x20 PUSH1 0x40 MLOAD DUP1 DUP4 SUB DUP2 PUSH1 0x0 DUP8 GAS CALL ISZERO DUP1 ISZERO PUSH2 0x23C2 JUMPI RETURNDATASIZE PUSH1 0x0 DUP1 RETURNDATACOPY RETURNDATASIZE PUSH1 0x0 REVERT JUMPDEST POP POP POP POP PUSH1 0x40 MLOAD RETURNDATASIZE PUSH1 0x1F NOT PUSH1 0x1F DUP3 ADD AND DUP3 ADD DUP1 PUSH1 0x40 MSTORE POP DUP2 ADD SWAP1 PUSH2 0x23E6 SWAP2 SWAP1 PUSH2 0x2B60 JUMP JUMPDEST POP PUSH1 0x3 DUP3 ADD DUP1 SLOAD PUSH1 0xFF NOT AND PUSH1 0x1 OR SWAP1 SSTORE JUMPDEST POP POP DUP1 DUP1 PUSH2 0x2404 SWAP1 PUSH2 0x2CAB JUMP JUMPDEST SWAP2 POP POP PUSH2 0x2317 JUMP JUMPDEST PUSH1 0x0 DUP1 SLOAD PUSH1 0x1 PUSH1 0x1 PUSH1 0xA0 SHL SUB DUP4 DUP2 AND PUSH1 0x1 PUSH1 0x1 PUSH1 0xA0 SHL SUB NOT DUP4 AND DUP2 OR DUP5 SSTORE PUSH1 0x40 MLOAD SWAP2 SWAP1 SWAP3 AND SWAP3 DUP4 SWAP2 PUSH32 0x8BE0079C531659141344CD1FD0A4F28419497F9722A3DAAFE3B4186F6B6457E0 SWAP2 SWAP1 LOG3 POP POP JUMP JUMPDEST PUSH1 0x2 PUSH1 0x1 SLOAD SUB PUSH2 0x24AE JUMPI PUSH1 0x40 MLOAD PUSH3 0x461BCD PUSH1 0xE5 SHL DUP2 MSTORE PUSH1 0x20 PUSH1 0x4 DUP3 ADD MSTORE PUSH1 0x1F PUSH1 0x24 DUP3 ADD MSTORE PUSH32 0x5265656E7472616E637947756172643A207265656E7472616E742063616C6C00 PUSH1 0x44 DUP3 ADD MSTORE PUSH1 0x64 ADD PUSH2 0x6E8 JUMP JUMPDEST PUSH1 0x2 PUSH1 0x1 SSTORE JUMP JUMPDEST PUSH1 0x0 PUSH2 0x228D DUP3 DUP5 PUSH2 0x2E34 JUMP JUMPDEST PUSH2 0x24C9 PUSH2 0x2547 JUMP JUMPDEST PUSH1 0x2 DUP1 SLOAD PUSH1 0xFF NOT AND PUSH1 0x1 OR SWAP1 SSTORE PUSH32 0x62E78CEA01BEE320CD4E420270B5EA74000D11B0C9F74754EBDBFC544B05A258 PUSH2 0x2264 CALLER SWAP1 JUMP JUMPDEST PUSH1 0x2 SLOAD PUSH1 0xFF AND PUSH2 0x8E0 JUMPI PUSH1 0x40 MLOAD PUSH3 0x461BCD PUSH1 0xE5 SHL DUP2 MSTORE PUSH1 0x20 PUSH1 0x4 DUP3 ADD MSTORE PUSH1 0x14 PUSH1 0x24 DUP3 ADD MSTORE PUSH20 0x14185D5CD8589B194E881B9BDD081C185D5CD959 PUSH1 0x62 SHL PUSH1 0x44 DUP3 ADD MSTORE PUSH1 0x64 ADD PUSH2 0x6E8 JUMP JUMPDEST PUSH1 0x2 SLOAD PUSH1 0xFF AND ISZERO PUSH2 0x8E0 JUMPI PUSH1 0x40 MLOAD PUSH3 0x461BCD PUSH1 0xE5 SHL DUP2 MSTORE PUSH1 0x20 PUSH1 0x4 DUP3 ADD MSTORE PUSH1 0x10 PUSH1 0x24 DUP3 ADD MSTORE PUSH16 0x14185D5CD8589B194E881C185D5CD959 PUSH1 0x82 SHL PUSH1 0x44 DUP3 ADD MSTORE PUSH1 0x64 ADD PUSH2 0x6E8 JUMP JUMPDEST PUSH1 0x0 PUSH1 0x20 DUP3 DUP5 SUB SLT ISZERO PUSH2 0x259F JUMPI PUSH1 0x0 DUP1 REVERT JUMPDEST POP CALLDATALOAD SWAP2 SWAP1 POP JUMP JUMPDEST DUP1 CALLDATALOAD PUSH1 0x1 PUSH1 0x1 PUSH1 0xA0 SHL SUB DUP2 AND DUP2 EQ PUSH2 0x25BD JUMPI PUSH1 0x0 DUP1 REVERT JUMPDEST SWAP2 SWAP1 POP JUMP JUMPDEST PUSH1 0x0 DUP1 PUSH1 0x40 DUP4 DUP6 SUB SLT ISZERO PUSH2 0x25D5 JUMPI PUSH1 0x0 DUP1 REVERT JUMPDEST PUSH2 0x25DE DUP4 PUSH2 0x25A6 JUMP JUMPDEST SWAP5 PUSH1 0x20 SWAP4 SWAP1 SWAP4 ADD CALLDATALOAD SWAP4 POP POP POP JUMP JUMPDEST PUSH1 0x0 PUSH1 0x20 DUP3 DUP5 SUB SLT ISZERO PUSH2 0x25FE JUMPI PUSH1 0x0 DUP1 REVERT JUMPDEST PUSH2 0x228D DUP3 PUSH2 0x25A6 JUMP JUMPDEST PUSH1 0x0 DUP2 MLOAD DUP1 DUP5 MSTORE PUSH1 0x0 JUMPDEST DUP2 DUP2 LT ISZERO PUSH2 0x262D JUMPI PUSH1 0x20 DUP2 DUP6 ADD DUP2 ADD MLOAD DUP7 DUP4 ADD DUP3 ADD MSTORE ADD PUSH2 0x2611 JUMP JUMPDEST POP PUSH1 0x0 PUSH1 0x20 DUP3 DUP7 ADD ADD MSTORE PUSH1 0x20 PUSH1 0x1F NOT PUSH1 0x1F DUP4 ADD AND DUP6 ADD ADD SWAP2 POP POP SWAP3 SWAP2 POP POP JUMP JUMPDEST PUSH1 0x20 DUP2 MSTORE PUSH2 0x2667 PUSH1 0x20 DUP3 ADD DUP4 MLOAD PUSH1 0x1 PUSH1 0x1 PUSH1 0xA0 SHL SUB AND SWAP1 MSTORE JUMP JUMPDEST PUSH1 0x0 PUSH1 0x20 DUP4 ADD MLOAD PUSH2 0x160 DUP1 PUSH1 0x40 DUP6 ADD MSTORE PUSH2 0x2685 PUSH2 0x180 DUP6 ADD DUP4 PUSH2 0x2607 JUMP JUMPDEST SWAP2 POP PUSH1 0x40 DUP6 ADD MLOAD PUSH1 0x1F NOT DUP1 DUP7 DUP6 SUB ADD PUSH1 0x60 DUP8 ADD MSTORE PUSH2 0x26A3 DUP5 DUP4 PUSH2 0x2607 JUMP JUMPDEST SWAP4 POP PUSH1 0x60 DUP8 ADD MLOAD SWAP2 POP DUP1 DUP7 DUP6 SUB ADD PUSH1 0x80 DUP8 ADD MSTORE PUSH2 0x26C0 DUP5 DUP4 PUSH2 0x2607 JUMP JUMPDEST SWAP4 POP PUSH1 0x80 DUP8 ADD MLOAD SWAP2 POP DUP1 DUP7 DUP6 SUB ADD PUSH1 0xA0 DUP8 ADD MSTORE POP PUSH2 0x26DE DUP4 DUP3 PUSH2 0x2607 JUMP JUMPDEST SWAP3 POP POP PUSH1 0xA0 DUP6 ADD MLOAD PUSH1 0xC0 DUP6 ADD MSTORE PUSH1 0xC0 DUP6 ADD MLOAD PUSH1 0xE0 DUP6 ADD MSTORE PUSH1 0xE0 DUP6 ADD MLOAD PUSH2 0x100 DUP2 DUP2 DUP8 ADD MSTORE DUP1 DUP8 ADD MLOAD SWAP2 POP POP PUSH2 0x120 DUP2 DUP2 DUP8 ADD MSTORE DUP1 DUP8 ADD MLOAD SWAP2 POP POP PUSH2 0x140 PUSH2 0x2728 DUP2 DUP8 ADD DUP4 ISZERO ISZERO SWAP1 MSTORE JUMP JUMPDEST SWAP6 SWAP1 SWAP6 ADD MLOAD SWAP4 ADD SWAP3 SWAP1 SWAP3 MSTORE POP SWAP2 SWAP1 POP JUMP JUMPDEST PUSH1 0x20 DUP2 MSTORE PUSH1 0x0 PUSH2 0x228D PUSH1 0x20 DUP4 ADD DUP5 PUSH2 0x2607 JUMP JUMPDEST PUSH4 0x4E487B71 PUSH1 0xE0 SHL PUSH1 0x0 MSTORE PUSH1 0x21 PUSH1 0x4 MSTORE PUSH1 0x24 PUSH1 0x0 REVERT JUMPDEST PUSH1 0x4 DUP2 LT PUSH2 0x2780 JUMPI PUSH4 0x4E487B71 PUSH1 0xE0 SHL PUSH1 0x0 MSTORE PUSH1 0x21 PUSH1 0x4 MSTORE PUSH1 0x24 PUSH1 0x0 REVERT JUMPDEST SWAP1 MSTORE JUMP JUMPDEST PUSH1 0x1 PUSH1 0x1 PUSH1 0xA0 SHL SUB DUP12 AND DUP2 MSTORE PUSH1 0x20 DUP2 ADD DUP11 SWAP1 MSTORE PUSH1 0x40 DUP2 ADD DUP10 SWAP1 MSTORE PUSH1 0x60 DUP2 ADD DUP9 SWAP1 MSTORE PUSH1 0x80 DUP2 ADD DUP8 SWAP1 MSTORE PUSH2 0x140 DUP2 ADD PUSH2 0x27BE PUSH1 0xA0 DUP4 ADD DUP9 PUSH2 0x2762 JUMP JUMPDEST DUP6 PUSH1 0xC0 DUP4 ADD MSTORE DUP5 PUSH1 0xE0 DUP4 ADD MSTORE DUP4 PUSH2 0x100 DUP4 ADD MSTORE DUP3 ISZERO ISZERO PUSH2 0x120 DUP4 ADD MSTORE SWAP12 SWAP11 POP POP POP POP POP POP POP POP POP POP POP JUMP JUMPDEST PUSH1 0x0 DUP1 PUSH1 0x40 DUP4 DUP6 SUB SLT ISZERO PUSH2 0x27FC JUMPI PUSH1 0x0 DUP1 REVERT JUMPDEST POP POP DUP1 CALLDATALOAD SWAP3 PUSH1 0x20 SWAP1 SWAP2 ADD CALLDATALOAD SWAP2 POP JUMP JUMPDEST PUSH1 0x20 DUP1 DUP3 MSTORE DUP3 MLOAD DUP3 DUP3 ADD DUP2 SWAP1 MSTORE PUSH1 0x0 SWAP2 SWAP1 PUSH1 0x40 SWAP1 DUP2 DUP6 ADD SWAP1 DUP7 DUP5 ADD DUP6 JUMPDEST DUP3 DUP2 LT ISZERO PUSH2 0x286D JUMPI DUP2 MLOAD DUP1 MLOAD PUSH1 0x1 PUSH1 0x1 PUSH1 0xA0 SHL SUB AND DUP6 MSTORE DUP7 DUP2 ADD MLOAD DUP8 DUP7 ADD MSTORE DUP6 DUP2 ADD MLOAD DUP7 DUP7 ADD MSTORE PUSH1 0x60 SWAP1 DUP2 ADD MLOAD ISZERO ISZERO SWAP1 DUP6 ADD MSTORE PUSH1 0x80 SWAP1 SWAP4 ADD SWAP3 SWAP1 DUP6 ADD SWAP1 PUSH1 0x1 ADD PUSH2 0x2828 JUMP JUMPDEST POP SWAP2 SWAP8 SWAP7 POP POP POP POP POP POP POP JUMP JUMPDEST PUSH1 0x20 DUP1 DUP3 MSTORE DUP3 MLOAD DUP3 DUP3 ADD DUP2 SWAP1 MSTORE PUSH1 0x0 SWAP2 SWAP1 DUP5 DUP3 ADD SWAP1 PUSH1 0x40 DUP6 ADD SWAP1 DUP5 JUMPDEST DUP2 DUP2 LT ISZERO PUSH2 0x28B2 JUMPI DUP4 MLOAD DUP4 MSTORE SWAP3 DUP5 ADD SWAP3 SWAP2 DUP5 ADD SWAP2 PUSH1 0x1 ADD PUSH2 0x2896 JUMP JUMPDEST POP SWAP1 SWAP7 SWAP6 POP POP POP POP POP POP JUMP JUMPDEST PUSH4 0x4E487B71 PUSH1 0xE0 SHL PUSH1 0x0 MSTORE PUSH1 0x41 PUSH1 0x4 MSTORE PUSH1 0x24 PUSH1 0x0 REVERT JUMPDEST PUSH1 0x0 DUP3 PUSH1 0x1F DUP4 ADD SLT PUSH2 0x28E5 JUMPI PUSH1 0x0 DUP1 REVERT JUMPDEST DUP2 CALLDATALOAD PUSH8 0xFFFFFFFFFFFFFFFF DUP1 DUP3 GT ISZERO PUSH2 0x2900 JUMPI PUSH2 0x2900 PUSH2 0x28BE JUMP JUMPDEST PUSH1 0x40 MLOAD PUSH1 0x1F DUP4 ADD PUSH1 0x1F NOT SWAP1 DUP2 AND PUSH1 0x3F ADD AND DUP2 ADD SWAP1 DUP3 DUP3 GT DUP2 DUP4 LT OR ISZERO PUSH2 0x2928 JUMPI PUSH2 0x2928 PUSH2 0x28BE JUMP JUMPDEST DUP2 PUSH1 0x40 MSTORE DUP4 DUP2 MSTORE DUP7 PUSH1 0x20 DUP6 DUP9 ADD ADD GT ISZERO PUSH2 0x2941 JUMPI PUSH1 0x0 DUP1 REVERT JUMPDEST DUP4 PUSH1 0x20 DUP8 ADD PUSH1 0x20 DUP4 ADD CALLDATACOPY PUSH1 0x0 PUSH1 0x20 DUP6 DUP4 ADD ADD MSTORE DUP1 SWAP5 POP POP POP POP POP SWAP3 SWAP2 POP POP JUMP JUMPDEST PUSH1 0x0 DUP1 PUSH1 0x0 DUP1 PUSH1 0x80 DUP6 DUP8 SUB SLT ISZERO PUSH2 0x2977 JUMPI PUSH1 0x0 DUP1 REVERT JUMPDEST DUP5 CALLDATALOAD PUSH8 0xFFFFFFFFFFFFFFFF DUP1 DUP3 GT ISZERO PUSH2 0x298F JUMPI PUSH1 0x0 DUP1 REVERT JUMPDEST PUSH2 0x299B DUP9 DUP4 DUP10 ADD PUSH2 0x28D4 JUMP JUMPDEST SWAP6 POP PUSH1 0x20 DUP8 ADD CALLDATALOAD SWAP2 POP DUP1 DUP3 GT ISZERO PUSH2 0x29B1 JUMPI PUSH1 0x0 DUP1 REVERT JUMPDEST PUSH2 0x29BD DUP9 DUP4 DUP10 ADD PUSH2 0x28D4 JUMP JUMPDEST SWAP5 POP PUSH1 0x40 DUP8 ADD CALLDATALOAD SWAP2 POP DUP1 DUP3 GT ISZERO PUSH2 0x29D3 JUMPI PUSH1 0x0 DUP1 REVERT JUMPDEST PUSH2 0x29DF DUP9 DUP4 DUP10 ADD PUSH2 0x28D4 JUMP JUMPDEST SWAP4 POP PUSH1 0x60 DUP8 ADD CALLDATALOAD SWAP2 POP DUP1 DUP3 GT ISZERO PUSH2 0x29F5 JUMPI PUSH1 0x0 DUP1 REVERT JUMPDEST POP PUSH2 0x2A02 DUP8 DUP3 DUP9 ADD PUSH2 0x28D4 JUMP JUMPDEST SWAP2 POP POP SWAP3 SWAP6 SWAP2 SWAP5 POP SWAP3 POP JUMP JUMPDEST PUSH1 0x1 PUSH1 0x1 PUSH1 0xA0 SHL SUB DUP13 AND DUP2 MSTORE PUSH2 0x160 PUSH1 0x20 DUP3 ADD DUP2 SWAP1 MSTORE PUSH1 0x0 SWAP1 PUSH2 0x2A33 DUP4 DUP3 ADD DUP15 PUSH2 0x2607 JUMP JUMPDEST SWAP1 POP DUP3 DUP2 SUB PUSH1 0x40 DUP5 ADD MSTORE PUSH2 0x2A47 DUP2 DUP14 PUSH2 0x2607 JUMP JUMPDEST SWAP1 POP DUP3 DUP2 SUB PUSH1 0x60 DUP5 ADD MSTORE PUSH2 0x2A5B DUP2 DUP13 PUSH2 0x2607 JUMP JUMPDEST SWAP1 POP DUP3 DUP2 SUB PUSH1 0x80 DUP5 ADD MSTORE PUSH2 0x2A6F DUP2 DUP12 PUSH2 0x2607 JUMP JUMPDEST PUSH1 0xA0 DUP5 ADD SWAP10 SWAP1 SWAP10 MSTORE POP POP PUSH1 0xC0 DUP2 ADD SWAP6 SWAP1 SWAP6 MSTORE PUSH1 0xE0 DUP6 ADD SWAP4 SWAP1 SWAP4 MSTORE PUSH2 0x100 DUP5 ADD SWAP2 SWAP1 SWAP2 MSTORE ISZERO ISZERO PUSH2 0x120 DUP4 ADD MSTORE PUSH2 0x140 SWAP1 SWAP2 ADD MSTORE SWAP6 SWAP5 POP POP POP POP POP JUMP JUMPDEST PUSH1 0x20 DUP2 ADD PUSH2 0x2106 DUP3 DUP5 PUSH2 0x2762 JUMP JUMPDEST PUSH1 0x20 DUP1 DUP3 MSTORE PUSH1 0x25 SWAP1 DUP3 ADD MSTORE PUSH32 0x436F6E74657374496E7374616E63653A204F6E6C7920636F6E74657374206372 PUSH1 0x40 DUP3 ADD MSTORE PUSH5 0x32B0BA37B9 PUSH1 0xD9 SHL PUSH1 0x60 DUP3 ADD MSTORE PUSH1 0x80 ADD SWAP1 JUMP JUMPDEST PUSH1 0x20 DUP1 DUP3 MSTORE PUSH1 0x28 SWAP1 DUP3 ADD MSTORE PUSH32 0x436F6E74657374496E7374616E63653A204E6F7420696E207375626D69737369 PUSH1 0x40 DUP3 ADD MSTORE PUSH8 0x6F6E207068617365 PUSH1 0xC0 SHL PUSH1 0x60 DUP3 ADD MSTORE PUSH1 0x80 ADD SWAP1 JUMP JUMPDEST PUSH1 0x40 DUP2 ADD PUSH2 0x2B53 DUP3 DUP6 PUSH2 0x2762 JUMP JUMPDEST PUSH2 0x228D PUSH1 0x20 DUP4 ADD DUP5 PUSH2 0x2762 JUMP JUMPDEST PUSH1 0x0 PUSH1 0x20 DUP3 DUP5 SUB SLT ISZERO PUSH2 0x2B72 JUMPI PUSH1 0x0 DUP1 REVERT JUMPDEST DUP2 MLOAD DUP1 ISZERO ISZERO DUP2 EQ PUSH2 0x228D JUMPI PUSH1 0x0 DUP1 REVERT JUMPDEST PUSH1 0x20 DUP1 DUP3 MSTORE PUSH1 0x2A SWAP1 DUP3 ADD MSTORE PUSH32 0x436F6E74657374496E7374616E63653A205375626D697373696F6E20646F6573 PUSH1 0x40 DUP3 ADD MSTORE PUSH10 0x81B9BDD08195E1A5CDD PUSH1 0xB2 SHL PUSH1 0x60 DUP3 ADD MSTORE PUSH1 0x80 ADD SWAP1 JUMP JUMPDEST PUSH1 0x1 DUP2 DUP2 SHR SWAP1 DUP3 AND DUP1 PUSH2 0x2BE0 JUMPI PUSH1 0x7F DUP3 AND SWAP2 POP JUMPDEST PUSH1 0x20 DUP3 LT DUP2 SUB PUSH2 0x2C00 JUMPI PUSH4 0x4E487B71 PUSH1 0xE0 SHL PUSH1 0x0 MSTORE PUSH1 0x22 PUSH1 0x4 MSTORE PUSH1 0x24 PUSH1 0x0 REVERT JUMPDEST POP SWAP2 SWAP1 POP JUMP JUMPDEST PUSH1 0x20 DUP1 DUP3 MSTORE PUSH1 0x2B SWAP1 DUP3 ADD MSTORE PUSH32 0x436F6E74657374496E7374616E63653A205375626D697373696F6E2064656164 PUSH1 0x40 DUP3 ADD MSTORE PUSH11 0x1B1A5B99481C185CDCD959 PUSH1 0xAA SHL PUSH1 0x60 DUP3 ADD MSTORE PUSH1 0x80 ADD SWAP1 JUMP JUMPDEST PUSH1 0x20 DUP1 DUP3 MSTORE PUSH1 0x24 SWAP1 DUP3 ADD MSTORE PUSH32 0x436F6E74657374496E7374616E63653A204E6F7420696E20766F74696E672070 PUSH1 0x40 DUP3 ADD MSTORE PUSH4 0x68617365 PUSH1 0xE0 SHL PUSH1 0x60 DUP3 ADD MSTORE PUSH1 0x80 ADD SWAP1 JUMP JUMPDEST PUSH4 0x4E487B71 PUSH1 0xE0 SHL PUSH1 0x0 MSTORE PUSH1 0x11 PUSH1 0x4 MSTORE PUSH1 0x24 PUSH1 0x0 REVERT JUMPDEST PUSH1 0x0 PUSH1 0x1 DUP3 ADD PUSH2 0x2CBD JUMPI PUSH2 0x2CBD PUSH2 0x2C95 JUMP JUMPDEST POP PUSH1 0x1 ADD SWAP1 JUMP JUMPDEST PUSH1 0x1F DUP3 GT ISZERO PUSH2 0x130F JUMPI PUSH1 0x0 DUP2 DUP2 MSTORE PUSH1 0x20 DUP2 KECCAK256 PUSH1 0x1F DUP6 ADD PUSH1 0x5 SHR DUP2 ADD PUSH1 0x20 DUP7 LT ISZERO PUSH2 0x2CEB JUMPI POP DUP1 JUMPDEST PUSH1 0x1F DUP6 ADD PUSH1 0x5 SHR DUP3 ADD SWAP2 POP JUMPDEST DUP2 DUP2 LT ISZERO PUSH2 0x2D0A JUMPI DUP3 DUP2 SSTORE PUSH1 0x1 ADD PUSH2 0x2CF7 JUMP JUMPDEST POP POP POP POP POP POP JUMP JUMPDEST DUP2 MLOAD PUSH8 0xFFFFFFFFFFFFFFFF DUP2 GT ISZERO PUSH2 0x2D2C JUMPI PUSH2 0x2D2C PUSH2 0x28BE JUMP JUMPDEST PUSH2 0x2D40 DUP2 PUSH2 0x2D3A DUP5 SLOAD PUSH2 0x2BCC JUMP JUMPDEST DUP5 PUSH2 0x2CC4 JUMP JUMPDEST PUSH1 0x20 DUP1 PUSH1 0x1F DUP4 GT PUSH1 0x1 DUP2 EQ PUSH2 0x2D75 JUMPI PUSH1 0x0 DUP5 ISZERO PUSH2 0x2D5D JUMPI POP DUP6 DUP4 ADD MLOAD JUMPDEST PUSH1 0x0 NOT PUSH1 0x3 DUP7 SWAP1 SHL SHR NOT AND PUSH1 0x1 DUP6 SWAP1 SHL OR DUP6 SSTORE PUSH2 0x2D0A JUMP JUMPDEST PUSH1 0x0 DUP6 DUP2 MSTORE PUSH1 0x20 DUP2 KECCAK256 PUSH1 0x1F NOT DUP7 AND SWAP2 JUMPDEST DUP3 DUP2 LT ISZERO PUSH2 0x2DA4 JUMPI DUP9 DUP7 ADD MLOAD DUP3 SSTORE SWAP5 DUP5 ADD SWAP5 PUSH1 0x1 SWAP1 SWAP2 ADD SWAP1 DUP5 ADD PUSH2 0x2D85 JUMP JUMPDEST POP DUP6 DUP3 LT ISZERO PUSH2 0x2DC2 JUMPI DUP8 DUP6 ADD MLOAD PUSH1 0x0 NOT PUSH1 0x3 DUP9 SWAP1 SHL PUSH1 0xF8 AND SHR NOT AND DUP2 SSTORE JUMPDEST POP POP POP POP POP PUSH1 0x1 SWAP1 DUP2 SHL ADD SWAP1 SSTORE POP JUMP JUMPDEST DUP1 DUP3 MUL DUP2 ISZERO DUP3 DUP3 DIV DUP5 EQ OR PUSH2 0x2106 JUMPI PUSH2 0x2106 PUSH2 0x2C95 JUMP JUMPDEST PUSH1 0x0 DUP3 PUSH2 0x2E06 JUMPI PUSH4 0x4E487B71 PUSH1 0xE0 SHL PUSH1 0x0 MSTORE PUSH1 0x12 PUSH1 0x4 MSTORE PUSH1 0x24 PUSH1 0x0 REVERT JUMPDEST POP DIV SWAP1 JUMP JUMPDEST DUP2 DUP2 SUB DUP2 DUP2 GT ISZERO PUSH2 0x2106 JUMPI PUSH2 0x2106 PUSH2 0x2C95 JUMP JUMPDEST PUSH4 0x4E487B71 PUSH1 0xE0 SHL PUSH1 0x0 MSTORE PUSH1 0x32 PUSH1 0x4 MSTORE PUSH1 0x24 PUSH1 0x0 REVERT JUMPDEST DUP1 DUP3 ADD DUP1 DUP3 GT ISZERO PUSH2 0x2106 JUMPI PUSH2 0x2106 PUSH2 0x2C95 JUMP INVALID LOG2 PUSH5 0x6970667358 0x22 SLT KECCAK256 PUSH9 0x7220685F0DC49C1ABB DIV SDIV ORIGIN RETURNDATASIZE 0xD0 EXTCODESIZE DUP1 BALANCE 0xA8 0x24 0xE6 0xB5 LOG0 0xC7 MSIZE EXTCODECOPY CALLCODE 0xCF CALLDATASIZE SHR 0x49 PUSH26 0x64736F6C63430008130033A2646970667358221220A4FFC75EBF 0xE0 DUP12 0xE2 MLOAD DUP3 PUSH32 0x4F2D6E2A74E5D58EB41F98FE2461AE186FCAC926CF64736F6C63430008130033 "},"methodIdentifiers":{"MAX_CONTEST_DURATION()":"92f83bc2","MIN_CONTEST_DURATION()":"2089988f","PLATFORM_FEE_BPS()":"539aa77f","calculatePlatformFee(uint256)":"0cbab4f7","contests(uint256)":"9d7ed738","createContest(uint256,uint256,uint256,string,string)":"afad27d4","depePriceUSD()":"2a7f2762","depeToken()":"7eb938a3","emergencyWithdraw(uint256)":"5312ea8e","getContest(uint256)":"904b9f72","getContestCount()":"64c3c166","getFactoryInfo()":"782be8dd","getMinPoolAmount()":"5ad3bd7c","getUserContests(address)":"be28377a","minPoolDEPE()":"a0b55672","owner()":"8da5cb5b","pause()":"8456cb59","paused()":"5c975abb","platformWallet()":"fa2af9da","renounceOwnership()":"715018a6","totalContests()":"17b561ae","transferOwnership(address)":"f2fde38b","unpause()":"3f4ba83a","updateDEPEPrice(uint256)":"11cf23b5","updateMinPoolDEPE(uint256)":"80246e4e","updatePlatformWallet(address)":"ada4ef30","userContests(address,uint256)":"15df7cf9"}}}}}