{
  "_format": "hh-sol-artifact-1",
  "contractName": "ContestInstance",
  "sourceName": "contracts/ContestInstance.sol",
  "abi": [
    {
      "inputs": [
        {
          "internalType": "address",
          "name": "_depeToken",
          "type": "address"
        },
        {
          "internalType": "address",
          "name": "_creator",
          "type": "address"
        },
        {
          "internalType": "uint256",
          "name": "_memePoolAmount",
          "type": "uint256"
        },
        {
          "internalType": "uint256",
          "name": "_minEntriesRequired",
          "type": "uint256"
        },
        {
          "internalType": "uint256",
          "name": "_duration",
          "type": "uint256"
        },
        {
          "internalType": "string",
          "name": "_title",
          "type": "string"
        },
        {
          "internalType": "string",
          "name": "_description",
          "type": "string"
        }
      ],
      "stateMutability": "nonpayable",
      "type": "constructor"
    },
    {
      "anonymous": false,
      "inputs": [
        {
          "indexed": true,
          "internalType": "address",
          "name": "creator",
          "type": "address"
        },
        {
          "indexed": false,
          "internalType": "uint256",
          "name": "memePoolAmount",
          "type": "uint256"
        },
        {
          "indexed": false,
          "internalType": "uint256",
          "name": "minEntriesRequired",
          "type": "uint256"
        },
        {
          "indexed": false,
          "internalType": "uint256",
          "name": "duration",
          "type": "uint256"
        }
      ],
      "name": "ContestCreated",
      "type": "event"
    },
    {
      "anonymous": false,
      "inputs": [
        {
          "indexed": false,
          "internalType": "uint256",
          "name": "reason",
          "type": "uint256"
        }
      ],
      "name": "ContestFailed",
      "type": "event"
    },
    {
      "anonymous": false,
      "inputs": [
        {
          "indexed": true,
          "internalType": "address",
          "name": "previousOwner",
          "type": "address"
        },
        {
          "indexed": true,
          "internalType": "address",
          "name": "newOwner",
          "type": "address"
        }
      ],
      "name": "OwnershipTransferred",
      "type": "event"
    },
    {
      "anonymous": false,
      "inputs": [
        {
          "indexed": false,
          "internalType": "address",
          "name": "account",
          "type": "address"
        }
      ],
      "name": "Paused",
      "type": "event"
    },
    {
      "anonymous": false,
      "inputs": [
        {
          "indexed": false,
          "internalType": "enum ContestInstance.ContestPhase",
          "name": "oldPhase",
          "type": "uint8"
        },
        {
          "indexed": false,
          "internalType": "enum ContestInstance.ContestPhase",
          "name": "newPhase",
          "type": "uint8"
        }
      ],
      "name": "PhaseChanged",
      "type": "event"
    },
    {
      "anonymous": false,
      "inputs": [
        {
          "indexed": true,
          "internalType": "uint256",
          "name": "submissionId",
          "type": "uint256"
        },
        {
          "indexed": false,
          "internalType": "uint256",
          "name": "memeWinnerReward",
          "type": "uint256"
        },
        {
          "indexed": false,
          "internalType": "uint256",
          "name": "contestCreatorReward",
          "type": "uint256"
        },
        {
          "indexed": false,
          "internalType": "uint256",
          "name": "stakersReward",
          "type": "uint256"
        }
      ],
      "name": "RewardsDistributed",
      "type": "event"
    },
    {
      "anonymous": false,
      "inputs": [
        {
          "indexed": true,
          "internalType": "uint256",
          "name": "submissionId",
          "type": "uint256"
        },
        {
          "indexed": true,
          "internalType": "address",
          "name": "staker",
          "type": "address"
        },
        {
          "indexed": false,
          "internalType": "uint256",
          "name": "amount",
          "type": "uint256"
        }
      ],
      "name": "StakePlaced",
      "type": "event"
    },
    {
      "anonymous": false,
      "inputs": [
        {
          "indexed": true,
          "internalType": "uint256",
          "name": "submissionId",
          "type": "uint256"
        },
        {
          "indexed": true,
          "internalType": "address",
          "name": "submitter",
          "type": "address"
        },
        {
          "indexed": false,
          "internalType": "string",
          "name": "memeUrl",
          "type": "string"
        }
      ],
      "name": "SubmissionAdded",
      "type": "event"
    },
    {
      "anonymous": false,
      "inputs": [
        {
          "indexed": false,
          "internalType": "address",
          "name": "account",
          "type": "address"
        }
      ],
      "name": "Unpaused",
      "type": "event"
    },
    {
      "anonymous": false,
      "inputs": [
        {
          "indexed": true,
          "internalType": "uint256",
          "name": "submissionId",
          "type": "uint256"
        },
        {
          "indexed": true,
          "internalType": "address",
          "name": "voter",
          "type": "address"
        },
        {
          "indexed": false,
          "internalType": "uint256",
          "name": "amount",
          "type": "uint256"
        }
      ],
      "name": "VoteCast",
      "type": "event"
    },
    {
      "anonymous": false,
      "inputs": [
        {
          "indexed": true,
          "internalType": "uint256",
          "name": "submissionId",
          "type": "uint256"
        }
      ],
      "name": "WinnerDetermined",
      "type": "event"
    },
    {
      "inputs": [],
      "name": "CONTEST_CREATOR_PERCENT",
      "outputs": [
        {
          "internalType": "uint256",
          "name": "",
          "type": "uint256"
        }
      ],
      "stateMutability": "view",
      "type": "function"
    },
    {
      "inputs": [],
      "name": "MAX_VOTE_USD",
      "outputs": [
        {
          "internalType": "uint256",
          "name": "",
          "type": "uint256"
        }
      ],
      "stateMutability": "view",
      "type": "function"
    },
    {
      "inputs": [],
      "name": "MEME_WINNER_PERCENT",
      "outputs": [
        {
          "internalType": "uint256",
          "name": "",
          "type": "uint256"
        }
      ],
      "stateMutability": "view",
      "type": "function"
    },
    {
      "inputs": [],
      "name": "MIN_VOTE_USD",
      "outputs": [
        {
          "internalType": "uint256",
          "name": "",
          "type": "uint256"
        }
      ],
      "stateMutability": "view",
      "type": "function"
    },
    {
      "inputs": [],
      "name": "STAKERS_PERCENT",
      "outputs": [
        {
          "internalType": "uint256",
          "name": "",
          "type": "uint256"
        }
      ],
      "stateMutability": "view",
      "type": "function"
    },
    {
      "inputs": [
        {
          "internalType": "string",
          "name": "memeUrl",
          "type": "string"
        },
        {
          "internalType": "string",
          "name": "memeType",
          "type": "string"
        },
        {
          "internalType": "string",
          "name": "submissionTitle",
          "type": "string"
        },
        {
          "internalType": "string",
          "name": "submissionDescription",
          "type": "string"
        }
      ],
      "name": "addSubmission",
      "outputs": [],
      "stateMutability": "nonpayable",
      "type": "function"
    },
    {
      "inputs": [],
      "name": "contestDuration",
      "outputs": [
        {
          "internalType": "uint256",
          "name": "",
          "type": "uint256"
        }
      ],
      "stateMutability": "view",
      "type": "function"
    },
    {
      "inputs": [],
      "name": "creator",
      "outputs": [
        {
          "internalType": "address",
          "name": "",
          "type": "address"
        }
      ],
      "stateMutability": "view",
      "type": "function"
    },
    {
      "inputs": [],
      "name": "depePriceUSD",
      "outputs": [
        {
          "internalType": "uint256",
          "name": "",
          "type": "uint256"
        }
      ],
      "stateMutability": "view",
      "type": "function"
    },
    {
      "inputs": [],
      "name": "depeToken",
      "outputs": [
        {
          "internalType": "address",
          "name": "",
          "type": "address"
        }
      ],
      "stateMutability": "view",
      "type": "function"
    },
    {
      "inputs": [],
      "name": "description",
      "outputs": [
        {
          "internalType": "string",
          "name": "",
          "type": "string"
        }
      ],
      "stateMutability": "view",
      "type": "function"
    },
    {
      "inputs": [],
      "name": "distributeRewards",
      "outputs": [],
      "stateMutability": "nonpayable",
      "type": "function"
    },
    {
      "inputs": [],
      "name": "endSubmissionPhase",
      "outputs": [],
      "stateMutability": "nonpayable",
      "type": "function"
    },
    {
      "inputs": [],
      "name": "endVotingPhase",
      "outputs": [],
      "stateMutability": "nonpayable",
      "type": "function"
    },
    {
      "inputs": [],
      "name": "getContestInfo",
      "outputs": [
        {
          "internalType": "address",
          "name": "contestCreator",
          "type": "address"
        },
        {
          "internalType": "uint256",
          "name": "contestMemePoolAmount",
          "type": "uint256"
        },
        {
          "internalType": "uint256",
          "name": "contestStakingPoolAmount",
          "type": "uint256"
        },
        {
          "internalType": "uint256",
          "name": "contestMinEntriesRequired",
          "type": "uint256"
        },
        {
          "internalType": "uint256",
          "name": "contestSubmissionCount",
          "type": "uint256"
        },
        {
          "internalType": "enum ContestInstance.ContestPhase",
          "name": "contestPhase",
          "type": "uint8"
        },
        {
          "internalType": "uint256",
          "name": "contestSubmissionDeadline",
          "type": "uint256"
        },
        {
          "internalType": "uint256",
          "name": "contestVotingDeadline",
          "type": "uint256"
        },
        {
          "internalType": "uint256",
          "name": "contestWinningSubmissionId",
          "type": "uint256"
        },
        {
          "internalType": "bool",
          "name": "contestRewardsDistributed",
          "type": "bool"
        }
      ],
      "stateMutability": "view",
      "type": "function"
    },
    {
      "inputs": [
        {
          "internalType": "uint256",
          "name": "submissionId",
          "type": "uint256"
        }
      ],
      "name": "getSubmission",
      "outputs": [
        {
          "components": [
            {
              "internalType": "address",
              "name": "submitter",
              "type": "address"
            },
            {
              "internalType": "string",
              "name": "memeUrl",
              "type": "string"
            },
            {
              "internalType": "string",
              "name": "memeType",
              "type": "string"
            },
            {
              "internalType": "string",
              "name": "title",
              "type": "string"
            },
            {
              "internalType": "string",
              "name": "description",
              "type": "string"
            },
            {
              "internalType": "uint256",
              "name": "voteCount",
              "type": "uint256"
            },
            {
              "internalType": "uint256",
              "name": "totalVoteAmount",
              "type": "uint256"
            },
            {
              "internalType": "uint256",
              "name": "stakeCount",
              "type": "uint256"
            },
            {
              "internalType": "uint256",
              "name": "totalStakeAmount",
              "type": "uint256"
            },
            {
              "internalType": "bool",
              "name": "exists",
              "type": "bool"
            },
            {
              "internalType": "uint256",
              "name": "createdAt",
              "type": "uint256"
            }
          ],
          "internalType": "struct ContestInstance.Submission",
          "name": "submission",
          "type": "tuple"
        }
      ],
      "stateMutability": "view",
      "type": "function"
    },
    {
      "inputs": [
        {
          "internalType": "uint256",
          "name": "submissionId",
          "type": "uint256"
        }
      ],
      "name": "getSubmissionStakes",
      "outputs": [
        {
          "components": [
            {
              "internalType": "address",
              "name": "staker",
              "type": "address"
            },
            {
              "internalType": "uint256",
              "name": "amount",
              "type": "uint256"
            },
            {
              "internalType": "uint256",
              "name": "timestamp",
              "type": "uint256"
            },
            {
              "internalType": "bool",
              "name": "claimed",
              "type": "bool"
            }
          ],
          "internalType": "struct ContestInstance.Stake[]",
          "name": "stakes",
          "type": "tuple[]"
        }
      ],
      "stateMutability": "view",
      "type": "function"
    },
    {
      "inputs": [
        {
          "internalType": "address",
          "name": "user",
          "type": "address"
        }
      ],
      "name": "getUserStakes",
      "outputs": [
        {
          "internalType": "uint256[]",
          "name": "submissionIds",
          "type": "uint256[]"
        }
      ],
      "stateMutability": "view",
      "type": "function"
    },
    {
      "inputs": [
        {
          "internalType": "address",
          "name": "user",
          "type": "address"
        }
      ],
      "name": "getUserSubmissions",
      "outputs": [
        {
          "internalType": "uint256[]",
          "name": "submissionIds",
          "type": "uint256[]"
        }
      ],
      "stateMutability": "view",
      "type": "function"
    },
    {
      "inputs": [
        {
          "internalType": "address",
          "name": "user",
          "type": "address"
        },
        {
          "internalType": "uint256",
          "name": "submissionId",
          "type": "uint256"
        }
      ],
      "name": "hasUserVoted",
      "outputs": [
        {
          "internalType": "bool",
          "name": "userHasVoted",
          "type": "bool"
        }
      ],
      "stateMutability": "view",
      "type": "function"
    },
    {
      "inputs": [
        {
          "internalType": "address",
          "name": "",
          "type": "address"
        },
        {
          "internalType": "uint256",
          "name": "",
          "type": "uint256"
        }
      ],
      "name": "hasVoted",
      "outputs": [
        {
          "internalType": "bool",
          "name": "",
          "type": "bool"
        }
      ],
      "stateMutability": "view",
      "type": "function"
    },
    {
      "inputs": [],
      "name": "memePoolAmount",
      "outputs": [
        {
          "internalType": "uint256",
          "name": "",
          "type": "uint256"
        }
      ],
      "stateMutability": "view",
      "type": "function"
    },
    {
      "inputs": [],
      "name": "minEntriesRequired",
      "outputs": [
        {
          "internalType": "uint256",
          "name": "",
          "type": "uint256"
        }
      ],
      "stateMutability": "view",
      "type": "function"
    },
    {
      "inputs": [],
      "name": "owner",
      "outputs": [
        {
          "internalType": "address",
          "name": "",
          "type": "address"
        }
      ],
      "stateMutability": "view",
      "type": "function"
    },
    {
      "inputs": [],
      "name": "pause",
      "outputs": [],
      "stateMutability": "nonpayable",
      "type": "function"
    },
    {
      "inputs": [],
      "name": "paused",
      "outputs": [
        {
          "internalType": "bool",
          "name": "",
          "type": "bool"
        }
      ],
      "stateMutability": "view",
      "type": "function"
    },
    {
      "inputs": [],
      "name": "phase",
      "outputs": [
        {
          "internalType": "enum ContestInstance.ContestPhase",
          "name": "",
          "type": "uint8"
        }
      ],
      "stateMutability": "view",
      "type": "function"
    },
    {
      "inputs": [],
      "name": "renounceOwnership",
      "outputs": [],
      "stateMutability": "nonpayable",
      "type": "function"
    },
    {
      "inputs": [],
      "name": "rewardsDistributed",
      "outputs": [
        {
          "internalType": "bool",
          "name": "",
          "type": "bool"
        }
      ],
      "stateMutability": "view",
      "type": "function"
    },
    {
      "inputs": [
        {
          "internalType": "uint256",
          "name": "submissionId",
          "type": "uint256"
        },
        {
          "internalType": "uint256",
          "name": "stakeAmount",
          "type": "uint256"
        }
      ],
      "name": "stake",
      "outputs": [],
      "stateMutability": "nonpayable",
      "type": "function"
    },
    {
      "inputs": [],
      "name": "stakingPoolAmount",
      "outputs": [
        {
          "internalType": "uint256",
          "name": "",
          "type": "uint256"
        }
      ],
      "stateMutability": "view",
      "type": "function"
    },
    {
      "inputs": [],
      "name": "submissionCount",
      "outputs": [
        {
          "internalType": "uint256",
          "name": "",
          "type": "uint256"
        }
      ],
      "stateMutability": "view",
      "type": "function"
    },
    {
      "inputs": [],
      "name": "submissionDeadline",
      "outputs": [
        {
          "internalType": "uint256",
          "name": "",
          "type": "uint256"
        }
      ],
      "stateMutability": "view",
      "type": "function"
    },
    {
      "inputs": [
        {
          "internalType": "uint256",
          "name": "",
          "type": "uint256"
        },
        {
          "internalType": "uint256",
          "name": "",
          "type": "uint256"
        }
      ],
      "name": "submissionStakes",
      "outputs": [
        {
          "internalType": "address",
          "name": "staker",
          "type": "address"
        },
        {
          "internalType": "uint256",
          "name": "amount",
          "type": "uint256"
        },
        {
          "internalType": "uint256",
          "name": "timestamp",
          "type": "uint256"
        },
        {
          "internalType": "bool",
          "name": "claimed",
          "type": "bool"
        }
      ],
      "stateMutability": "view",
      "type": "function"
    },
    {
      "inputs": [
        {
          "internalType": "uint256",
          "name": "",
          "type": "uint256"
        }
      ],
      "name": "submissionVoteAmount",
      "outputs": [
        {
          "internalType": "uint256",
          "name": "",
          "type": "uint256"
        }
      ],
      "stateMutability": "view",
      "type": "function"
    },
    {
      "inputs": [
        {
          "internalType": "uint256",
          "name": "",
          "type": "uint256"
        }
      ],
      "name": "submissionVotes",
      "outputs": [
        {
          "internalType": "uint256",
          "name": "",
          "type": "uint256"
        }
      ],
      "stateMutability": "view",
      "type": "function"
    },
    {
      "inputs": [
        {
          "internalType": "uint256",
          "name": "",
          "type": "uint256"
        }
      ],
      "name": "submissions",
      "outputs": [
        {
          "internalType": "address",
          "name": "submitter",
          "type": "address"
        },
        {
          "internalType": "string",
          "name": "memeUrl",
          "type": "string"
        },
        {
          "internalType": "string",
          "name": "memeType",
          "type": "string"
        },
        {
          "internalType": "string",
          "name": "title",
          "type": "string"
        },
        {
          "internalType": "string",
          "name": "description",
          "type": "string"
        },
        {
          "internalType": "uint256",
          "name": "voteCount",
          "type": "uint256"
        },
        {
          "internalType": "uint256",
          "name": "totalVoteAmount",
          "type": "uint256"
        },
        {
          "internalType": "uint256",
          "name": "stakeCount",
          "type": "uint256"
        },
        {
          "internalType": "uint256",
          "name": "totalStakeAmount",
          "type": "uint256"
        },
        {
          "internalType": "bool",
          "name": "exists",
          "type": "bool"
        },
        {
          "internalType": "uint256",
          "name": "createdAt",
          "type": "uint256"
        }
      ],
      "stateMutability": "view",
      "type": "function"
    },
    {
      "inputs": [],
      "name": "title",
      "outputs": [
        {
          "internalType": "string",
          "name": "",
          "type": "string"
        }
      ],
      "stateMutability": "view",
      "type": "function"
    },
    {
      "inputs": [
        {
          "internalType": "address",
          "name": "newOwner",
          "type": "address"
        }
      ],
      "name": "transferOwnership",
      "outputs": [],
      "stateMutability": "nonpayable",
      "type": "function"
    },
    {
      "inputs": [],
      "name": "unpause",
      "outputs": [],
      "stateMutability": "nonpayable",
      "type": "function"
    },
    {
      "inputs": [
        {
          "internalType": "uint256",
          "name": "_depePriceUSD",
          "type": "uint256"
        }
      ],
      "name": "updateDEPEPrice",
      "outputs": [],
      "stateMutability": "nonpayable",
      "type": "function"
    },
    {
      "inputs": [
        {
          "internalType": "address",
          "name": "",
          "type": "address"
        },
        {
          "internalType": "uint256",
          "name": "",
          "type": "uint256"
        }
      ],
      "name": "userStakeAmount",
      "outputs": [
        {
          "internalType": "uint256",
          "name": "",
          "type": "uint256"
        }
      ],
      "stateMutability": "view",
      "type": "function"
    },
    {
      "inputs": [
        {
          "internalType": "address",
          "name": "",
          "type": "address"
        },
        {
          "internalType": "uint256",
          "name": "",
          "type": "uint256"
        }
      ],
      "name": "userStakes",
      "outputs": [
        {
          "internalType": "uint256",
          "name": "",
          "type": "uint256"
        }
      ],
      "stateMutability": "view",
      "type": "function"
    },
    {
      "inputs": [
        {
          "internalType": "address",
          "name": "",
          "type": "address"
        },
        {
          "internalType": "uint256",
          "name": "",
          "type": "uint256"
        }
      ],
      "name": "userSubmissions",
      "outputs": [
        {
          "internalType": "uint256",
          "name": "",
          "type": "uint256"
        }
      ],
      "stateMutability": "view",
      "type": "function"
    },
    {
      "inputs": [
        {
          "internalType": "address",
          "name": "",
          "type": "address"
        }
      ],
      "name": "userVoteAmount",
      "outputs": [
        {
          "internalType": "uint256",
          "name": "",
          "type": "uint256"
        }
      ],
      "stateMutability": "view",
      "type": "function"
    },
    {
      "inputs": [
        {
          "internalType": "uint256",
          "name": "submissionId",
          "type": "uint256"
        },
        {
          "internalType": "uint256",
          "name": "voteAmount",
          "type": "uint256"
        }
      ],
      "name": "vote",
      "outputs": [],
      "stateMutability": "nonpayable",
      "type": "function"
    },
    {
      "inputs": [],
      "name": "votingDeadline",
      "outputs": [
        {
          "internalType": "uint256",
          "name": "",
          "type": "uint256"
        }
      ],
      "stateMutability": "view",
      "type": "function"
    },
    {
      "inputs": [],
      "name": "winningSubmissionId",
      "outputs": [
        {
          "internalType": "uint256",
          "name": "",
          "type": "uint256"
        }
      ],
      "stateMutability": "view",
      "type": "function"
    }
  ],
  "bytecode": "0x60806040526604f94ae6af80006019553480156200001c57600080fd5b50604051620035a7380380620035a78339810160408190526200003f91620004a8565b6200004a3362000343565b600180556002805460ff191690556001600160a01b038716620000c05760405162461bcd60e51b815260206004820152602360248201527f436f6e74657374496e7374616e63653a20496e76616c6964204445504520746f60448201526235b2b760e91b60648201526084015b60405180910390fd5b6001600160a01b038616620001185760405162461bcd60e51b815260206004820181905260248201527f436f6e74657374496e7374616e63653a20496e76616c69642063726561746f726044820152606401620000b7565b600085116200017c5760405162461bcd60e51b815260206004820152602960248201527f436f6e74657374496e7374616e63653a20496e76616c6964206d656d6520706f6044820152681bdb08185b5bdd5b9d60ba1b6064820152608401620000b7565b6001841015620001db5760405162461bcd60e51b8152602060048201526024808201527f436f6e74657374496e7374616e63653a20496e76616c6964206d696e20656e746044820152637269657360e01b6064820152608401620000b7565b60008311620002375760405162461bcd60e51b815260206004820152602160248201527f436f6e74657374496e7374616e63653a20496e76616c6964206475726174696f6044820152603760f91b6064820152608401620000b7565b60028054610100600160a81b0319166101006001600160a01b038a81169190910291909117909155600380546001600160a01b031916918816919091179055600485905560068490556007839055600a620002938382620005e5565b50600b620002a28282620005e5565b506000620002bf6064620002b886603c62000393565b90620003aa565b9050620002cd4282620003b8565b600855620002dc4285620003b8565b600955600c805460ff1916905560408051878152602081018790529081018590526001600160a01b038816907f0e88e8c4fee89d9778b8507f3cce3a1f8d3ee7c1707b40dd29178f53aec760b99060600160405180910390a250505050505050506200071a565b600080546001600160a01b038381166001600160a01b0319831681178455604051919092169283917f8be0079c531659141344cd1fd0a4f28419497f9722a3daafe3b4186f6b6457e09190a35050565b6000620003a18284620006c7565b90505b92915050565b6000620003a18284620006e1565b6000620003a1828462000704565b80516001600160a01b0381168114620003de57600080fd5b919050565b634e487b7160e01b600052604160045260246000fd5b600082601f8301126200040b57600080fd5b81516001600160401b0380821115620004285762000428620003e3565b604051601f8301601f19908116603f01168101908282118183101715620004535762000453620003e3565b816040528381526020925086838588010111156200047057600080fd5b600091505b8382101562000494578582018301518183018401529082019062000475565b600093810190920192909252949350505050565b600080600080600080600060e0888a031215620004c457600080fd5b620004cf88620003c6565b9650620004df60208901620003c6565b604089015160608a015160808b015160a08c0151939950919750955093506001600160401b03808211156200051357600080fd5b620005218b838c01620003f9565b935060c08a01519150808211156200053857600080fd5b50620005478a828b01620003f9565b91505092959891949750929550565b600181811c908216806200056b57607f821691505b6020821081036200058c57634e487b7160e01b600052602260045260246000fd5b50919050565b601f821115620005e057600081815260208120601f850160051c81016020861015620005bb5750805b601f850160051c820191505b81811015620005dc57828155600101620005c7565b5050505b505050565b81516001600160401b03811115620006015762000601620003e3565b620006198162000612845462000556565b8462000592565b602080601f831160018114620006515760008415620006385750858301515b600019600386901b1c1916600185901b178555620005dc565b600085815260208120601f198616915b82811015620006825788860151825594840194600190910190840162000661565b5085821015620006a15787850151600019600388901b60f8161c191681555b5050505050600190811b01905550565b634e487b7160e01b600052601160045260246000fd5b8082028115828204841417620003a457620003a4620006b1565b600082620006ff57634e487b7160e01b600052601260045260246000fd5b500490565b80820180821115620003a457620003a4620006b1565b612e7d806200072a6000396000f3fe608060405234801561001057600080fd5b50600436106102a05760003560e01c80638da5cb5b11610167578063b5d5b5fa116100ce578063e22f93c211610087578063e22f93c214610607578063e3eb3b6f14610646578063ed3c7dca1461064f578063f2fde38b14610658578063f9c551151461066b578063fc857d521461067457600080fd5b8063b5d5b5fa146105b2578063d46f96ed146105c5578063d51defe3146105d8578063d629b0b7146105e1578063d6573cdb146105f0578063d7b48503146105f857600080fd5b8063a643a3d511610120578063a643a3d514610515578063a6e582a114610528578063a7b8614d14610548578063ad73349e1461055b578063b1c9fe6e14610585578063b384abef1461059f57600080fd5b80638da5cb5b146104cb5780639b7e0180146104dc5780639c1454d4146104ef5780639c83fcf6146104fc5780639cb8106014610504578063a300e2241461050d57600080fd5b80635c975abb1161020b5780637b0472f0116101c45780637b0472f0146104505780637c2d4577146104635780637eb938a314610483578063842e29811461049b5780638456cb59146104bb57806388caa509146104c357600080fd5b80635c975abb146103e157806364791196146103ec5780636ec02be91461042f5780636f4a2cd014610438578063715018a6146104405780637284e4161461044857600080fd5b806334b6d0811161025d57806334b6d081146103555780633e8686cc1461035d5780633f4ba83a1461037d57806342545825146103855780634a79d50c146103c357806358ef7454146103d857600080fd5b806302d05d3f146102a5578063036ee850146102d557806311cf23b5146102ec5780632a7f2762146103015780632be5bf4c1461030a5780633384c80614610335575b600080fd5b6003546102b8906001600160a01b031681565b6040516001600160a01b0390911681526020015b60405180910390f35b6102de60095481565b6040519081526020016102cc565b6102ff6102fa36600461258d565b610694565b005b6102de60195481565b6102de6103183660046125c2565b601560209081526000928352604080842090915290825290205481565b6102de6103433660046125ec565b60136020526000908152604090205481565b6102ff6106f6565b61037061036b36600461258d565b6108e2565b6040516102cc919061264d565b6102ff610c38565b6103b36103933660046125c2565b601260209081526000928352604080842090915290825290205460ff1681565b60405190151581526020016102cc565b6103cb610c48565b6040516102cc9190612739565b6102de60065481565b60025460ff166103b3565b600354600454600554600654600d54600c546008546009546017546018546040516102cc9a6001600160a01b0316999897969560ff908116959493921690612784565b6102de600d5481565b6102ff610cd6565b6102ff610fa2565b6103cb610fb4565b6102ff61045e3660046127e9565b610fc1565b61047661047136600461258d565b611314565b6040516102cc919061280b565b6002546102b89061010090046001600160a01b031681565b6104ae6104a93660046125ec565b6113b6565b6040516102cc919061287a565b6102ff611422565b6102de605a81565b6000546001600160a01b03166102b8565b6102de6104ea3660046125c2565b611432565b6018546103b39060ff1681565b6102de601481565b6102de60075481565b6102ff611463565b6102ff610523366004612961565b6116a8565b6102de61053636600461258d565b60106020526000908152604090205481565b6104ae6105563660046125ec565b611966565b61056e61056936600461258d565b6119d0565b6040516102cc9b9a99989796959493929190612a0e565b600c546105929060ff1681565b6040516102cc9190612aaa565b6102ff6105ad3660046127e9565b611c53565b6102de6105c03660046125c2565b6120c2565b6103b36105d33660046125c2565b6120de565b6102de60175481565b6102de670de0b6b3a764000081565b6102de605081565b6102de678ac7230489e8000081565b61061a6106153660046127e9565b61210c565b604080516001600160a01b039095168552602085019390935291830152151560608201526080016102cc565b6102de60045481565b6102de60055481565b6102ff6106663660046125ec565b61215f565b6102de60085481565b6102de61068236600461258d565b60116020526000908152604090205481565b61069c6121d5565b600081116106f15760405162461bcd60e51b815260206004820152601e60248201527f436f6e74657374496e7374616e63653a20496e76616c6964207072696365000060448201526064015b60405180910390fd5b601955565b6003546001600160a01b031633146107205760405162461bcd60e51b81526004016106e890612ab8565b6000600c5460ff1660038111156107395761073961274c565b146107565760405162461bcd60e51b81526004016106e890612afd565b6008544210156107bc5760405162461bcd60e51b815260206004820152602b60248201527f436f6e74657374496e7374616e63653a205375626d697373696f6e207068617360448201526a19481b9bdd08195b99195960aa1b60648201526084016106e8565b600654600d541061081357600c805460ff191660019081179091556040517feeb345fea22465c927333e05d324ee5b476597701d8be7e5d9aacc60e7aefbaf916108099160009190612b45565b60405180910390a1565b600c805460ff19166003179055604051600181527fc87f3801dde012630e385a9936c4228b5817c67d8fd74705bc5bcf5c40e8f5169060200160405180910390a1600454156108e0576002546003546004805460405163a9059cbb60e01b81526001600160a01b03938416928101929092526024820152610100909204169063a9059cbb906044016020604051808303816000875af11580156108ba573d6000803e3d6000fd5b505050506040513d601f19601f820116820180604052508101906108de9190612b60565b505b565b61094a60405180610160016040528060006001600160a01b031681526020016060815260200160608152602001606081526020016060815260200160008152602001600081526020016000815260200160008152602001600015158152602001600081525090565b6000828152600e602052604090206009015460ff1661097b5760405162461bcd60e51b81526004016106e890612b82565b6000828152600e60209081526040918290208251610160810190935280546001600160a01b0316835260018101805491928401916109b890612bcc565b80601f01602080910402602001604051908101604052809291908181526020018280546109e490612bcc565b8015610a315780601f10610a0657610100808354040283529160200191610a31565b820191906000526020600020905b815481529060010190602001808311610a1457829003601f168201915b50505050508152602001600282018054610a4a90612bcc565b80601f0160208091040260200160405190810160405280929190818152602001828054610a7690612bcc565b8015610ac35780601f10610a9857610100808354040283529160200191610ac3565b820191906000526020600020905b815481529060010190602001808311610aa657829003601f168201915b50505050508152602001600382018054610adc90612bcc565b80601f0160208091040260200160405190810160405280929190818152602001828054610b0890612bcc565b8015610b555780601f10610b2a57610100808354040283529160200191610b55565b820191906000526020600020905b815481529060010190602001808311610b3857829003601f168201915b50505050508152602001600482018054610b6e90612bcc565b80601f0160208091040260200160405190810160405280929190818152602001828054610b9a90612bcc565b8015610be75780601f10610bbc57610100808354040283529160200191610be7565b820191906000526020600020905b815481529060010190602001808311610bca57829003601f168201915b505050918352505060058201546020820152600682015460408201526007820154606082015260088201546080820152600982015460ff16151560a0820152600a9091015460c09091015292915050565b610c406121d5565b6108e061222f565b600a8054610c5590612bcc565b80601f0160208091040260200160405190810160405280929190818152602001828054610c8190612bcc565b8015610cce5780601f10610ca357610100808354040283529160200191610cce565b820191906000526020600020905b815481529060010190602001808311610cb157829003601f168201915b505050505081565b6002600c5460ff166003811115610cef57610cef61274c565b14610d475760405162461bcd60e51b815260206004820152602260248201527f436f6e74657374496e7374616e63653a20436f6e74657374206e6f7420656e64604482015261195960f21b60648201526084016106e8565b60185460ff1615610daf5760405162461bcd60e51b815260206004820152602c60248201527f436f6e74657374496e7374616e63653a205265776172647320616c726561647960448201526b08191a5cdd1c9a589d5d195960a21b60648201526084016106e8565b6018805460ff19166001179055600454600090610dda90606490610dd490600a612281565b90612294565b90506000610df3826004546122a090919063ffffffff16565b90508015610e8b576002546017546000908152600e60205260409081902054905163a9059cbb60e01b81526001600160a01b03918216600482015260248101849052610100909204169063a9059cbb906044016020604051808303816000875af1158015610e65573d6000803e3d6000fd5b505050506040513d601f19601f82011682018060405250810190610e899190612b60565b505b6000610ea86064610dd4601460055461228190919063ffffffff16565b90506000610ec1826005546122a090919063ffffffff16565b90508115610f495760025460035460405163a9059cbb60e01b81526001600160a01b03918216600482015260248101859052610100909204169063a9059cbb906044016020604051808303816000875af1158015610f23573d6000803e3d6000fd5b505050506040513d601f19601f82011682018060405250810190610f479190612b60565b505b8015610f5857610f58816122ac565b60175460408051858152602081018590529081018390527ff05b0b8458b89503ca56b18429a7b1ecd2f7f2d6d5eba936da3791b6b078bc789060600160405180910390a250505050565b610faa6121d5565b6108e0600061240c565b600b8054610c5590612bcc565b6000600c5460ff166003811115610fda57610fda61274c565b14610ff75760405162461bcd60e51b81526004016106e890612afd565b6008544211156110195760405162461bcd60e51b81526004016106e890612c06565b6000828152600e6020526040902060090154829060ff1661104c5760405162461bcd60e51b81526004016106e890612b82565b61105461245c565b600082116110b25760405162461bcd60e51b815260206004820152602560248201527f436f6e74657374496e7374616e63653a20496e76616c6964207374616b6520616044820152641b5bdd5b9d60da1b60648201526084016106e8565b6002546040516323b872dd60e01b8152336004820152306024820152604481018490526101009091046001600160a01b0316906323b872dd906064016020604051808303816000875af115801561110d573d6000803e3d6000fd5b505050506040513d601f19601f820116820180604052508101906111319190612b60565b61118c5760405162461bcd60e51b815260206004820152602660248201527f436f6e74657374496e7374616e63653a205374616b65207472616e736665722060448201526519985a5b195960d21b60648201526084016106e8565b60008381526014602090815260408083208151608081018352338082528185018881524283860190815260608401888152855460018082018855968a52888a209551600490910290950180546001600160a01b0319166001600160a01b039096169590951785559151948401949094559251600283015591516003909101805460ff191691151591909117905583526015825280832086845290915290205461123590836124b5565b3360008181526015602090815260408083208884528252808320949094559181526016825282812080546001818101835591835283832001879055868252600e9092529190912060070154611289916124b5565b6000848152600e602052604090206007810191909155600801546112ad90836124b5565b6000848152600e60205260409020600801556005546112cc90836124b5565b600555604051828152339084907fdf10bb3bcdbed673d1617ae247e30a091bd3041df07c5df494ebd136f0f118d09060200160405180910390a361130f60018055565b505050565b606060146000838152602001908152602001600020805480602002602001604051908101604052809291908181526020016000905b828210156113ab576000848152602090819020604080516080810182526004860290920180546001600160a01b03168352600180820154848601526002820154928401929092526003015460ff16151560608301529083529092019101611349565b505050509050919050565b6001600160a01b03811660009081526016602090815260409182902080548351818402810184019094528084526060939283018282801561141657602002820191906000526020600020905b815481526020019060010190808311611402575b50505050509050919050565b61142a6121d5565b6108e06124c1565b600f602052816000526040600020818154811061144e57600080fd5b90600052602060002001600091509150505481565b6003546001600160a01b0316331461148d5760405162461bcd60e51b81526004016106e890612ab8565b6001600c5460ff1660038111156114a6576114a661274c565b146114c35760405162461bcd60e51b81526004016106e890612c51565b6009544210156115255760405162461bcd60e51b815260206004820152602760248201527f436f6e74657374496e7374616e63653a20566f74696e67207068617365206e6f6044820152661d08195b99195960ca1b60648201526084016106e8565b600d546000036115d657600c805460ff19166003179055604051600281527fc87f3801dde012630e385a9936c4228b5817c67d8fd74705bc5bcf5c40e8f5169060200160405180910390a1600454156108e0576002546003546004805460405163a9059cbb60e01b81526001600160a01b03938416928101929092526024820152610100909204169063a9059cbb906044016020604051808303816000875af11580156108ba573d6000803e3d6000fd5b60008060005b600d54811015611623576000818152601060205260409020548310156116115760008181526010602052604090205492509050805b8061161b81612cab565b9150506115dc565b506017819055600c805460ff1916600217905560405181907f7668f8223572b282777e316054ad01ee7917fadb1089878da343cdc075b34b8990600090a27feeb345fea22465c927333e05d324ee5b476597701d8be7e5d9aacc60e7aefbaf60016002604051611694929190612b45565b60405180910390a16116a4610cd6565b5050565b6000600c5460ff1660038111156116c1576116c161274c565b146116de5760405162461bcd60e51b81526004016106e890612afd565b6008544211156117005760405162461bcd60e51b81526004016106e890612c06565b61170861245c565b60008451116117635760405162461bcd60e51b815260206004820152602160248201527f436f6e74657374496e7374616e63653a20496e76616c6964206d656d652055526044820152601360fa1b60648201526084016106e8565b60008351116117bf5760405162461bcd60e51b815260206004820152602260248201527f436f6e74657374496e7374616e63653a20496e76616c6964206d656d65207479604482015261706560f01b60648201526084016106e8565b600d54604080516101608101825233815260208082018881528284018890526060830187905260808301869052600060a0840181905260c0840181905260e0840181905261010084018190526001610120850181905242610140860152868252600e90935293909320825181546001600160a01b0319166001600160a01b039091161781559251919291908201906118579082612d12565b506040820151600282019061186c9082612d12565b50606082015160038201906118819082612d12565b50608082015160048201906118969082612d12565b5060a0820151600582015560c0820151600682015560e08201516007820155610100820151600882015561012082015160098201805460ff191691151591909117905561014090910151600a90910155336000908152600f6020908152604082208054600181810183559184529190922001829055600d54611917916124b5565b600d55604051339082907f3ee1452bcd5c79ab4eaca13d45c93cb39ad840132de7455b5a98e622d1913cf29061194e908990612739565b60405180910390a35061196060018055565b50505050565b6001600160a01b0381166000908152600f602090815260409182902080548351818402810184019094528084526060939283018282801561141657602002820191906000526020600020908154815260200190600101908083116114025750505050509050919050565b600e60205260009081526040902080546001820180546001600160a01b0390921692916119fc90612bcc565b80601f0160208091040260200160405190810160405280929190818152602001828054611a2890612bcc565b8015611a755780601f10611a4a57610100808354040283529160200191611a75565b820191906000526020600020905b815481529060010190602001808311611a5857829003601f168201915b505050505090806002018054611a8a90612bcc565b80601f0160208091040260200160405190810160405280929190818152602001828054611ab690612bcc565b8015611b035780601f10611ad857610100808354040283529160200191611b03565b820191906000526020600020905b815481529060010190602001808311611ae657829003601f168201915b505050505090806003018054611b1890612bcc565b80601f0160208091040260200160405190810160405280929190818152602001828054611b4490612bcc565b8015611b915780601f10611b6657610100808354040283529160200191611b91565b820191906000526020600020905b815481529060010190602001808311611b7457829003601f168201915b505050505090806004018054611ba690612bcc565b80601f0160208091040260200160405190810160405280929190818152602001828054611bd290612bcc565b8015611c1f5780601f10611bf457610100808354040283529160200191611c1f565b820191906000526020600020905b815481529060010190602001808311611c0257829003601f168201915b50505060058401546006850154600786015460088701546009880154600a90980154969793969295509093509160ff16908b565b6001600c5460ff166003811115611c6c57611c6c61274c565b14611c895760405162461bcd60e51b81526004016106e890612c51565b600954421115611ceb5760405162461bcd60e51b815260206004820152602760248201527f436f6e74657374496e7374616e63653a20566f74696e6720646561646c696e65604482015266081c185cdcd95960ca1b60648201526084016106e8565b6000828152600e6020526040902060090154829060ff16611d1e5760405162461bcd60e51b81526004016106e890612b82565b611d2661245c565b601954600090611d4290610dd4670de0b6b3a764000080612281565b905080831015611da05760405162461bcd60e51b8152602060048201526024808201527f436f6e74657374496e7374616e63653a20566f746520616d6f756e7420746f6f604482015263206c6f7760e01b60648201526084016106e8565b601954600090611dc490610dd4678ac7230489e80000670de0b6b3a7640000612281565b905080841115611e245760405162461bcd60e51b815260206004820152602560248201527f436f6e74657374496e7374616e63653a20566f746520616d6f756e7420746f6f604482015264040d0d2ced60db1b60648201526084016106e8565b33600090815260126020908152604080832088845290915290205460ff1615611eaa5760405162461bcd60e51b815260206004820152603260248201527f436f6e74657374496e7374616e63653a20416c726561647920766f746564206660448201527137b9103a3434b99039bab136b4b9b9b4b7b760711b60648201526084016106e8565b6002546040516323b872dd60e01b8152336004820152306024820152604481018690526101009091046001600160a01b0316906323b872dd906064016020604051808303816000875af1158015611f05573d6000803e3d6000fd5b505050506040513d601f19601f82011682018060405250810190611f299190612b60565b611f835760405162461bcd60e51b815260206004820152602560248201527f436f6e74657374496e7374616e63653a20566f7465207472616e736665722066604482015264185a5b195960da1b60648201526084016106e8565b3360009081526012602090815260408083208884528252808320805460ff19166001908117909155601090925290912054611fbd916124b5565b600086815260106020908152604080832093909355601190522054611fe290856124b5565b60008681526011602090815260408083209390935533825260139052205461200a90856124b5565b3360009081526013602052604090205560055461202790856124b5565b60059081556000868152600e6020526040902001546120479060016124b5565b6000868152600e6020526040902060058101919091556006015461206b90856124b5565b6000868152600e60209081526040918290206006019290925551858152339187917f2acce567deca3aabf56327adbb4524bd5318936eaefa69e3a5208ffda0cfec09910160405180910390a3505061130f60018055565b6016602052816000526040600020818154811061144e57600080fd5b6001600160a01b038216600090815260126020908152604080832084845290915290205460ff165b92915050565b6014602052816000526040600020818154811061212857600080fd5b600091825260209091206004909102018054600182015460028301546003909301546001600160a01b039092169450925060ff1684565b6121676121d5565b6001600160a01b0381166121cc5760405162461bcd60e51b815260206004820152602660248201527f4f776e61626c653a206e6577206f776e657220697320746865207a65726f206160448201526564647265737360d01b60648201526084016106e8565b6108de8161240c565b6000546001600160a01b031633146108e05760405162461bcd60e51b815260206004820181905260248201527f4f776e61626c653a2063616c6c6572206973206e6f7420746865206f776e657260448201526064016106e8565b6122376124fe565b6002805460ff191690557f5db9ee0a495bf2e6ff9c91a7834c1ba4fdd244a5e8aa4e537bd38aeae4b073aa335b6040516001600160a01b03909116815260200160405180910390a1565b600061228d8284612dd2565b9392505050565b600061228d8284612de9565b600061228d8284612e0b565b601754600090815260146020526040812090805b8254811015612313576122ff8382815481106122de576122de612e1e565b906000526020600020906004020160010154836124b590919063ffffffff16565b91508061230b81612cab565b9150506122c0565b5060005b825481101561196057600083828154811061233457612334612e1e565b90600052602060002090600402019050600061236184610dd484600101548961228190919063ffffffff16565b905080156123f757600254825460405163a9059cbb60e01b81526001600160a01b03918216600482015260248101849052610100909204169063a9059cbb906044016020604051808303816000875af11580156123c2573d6000803e3d6000fd5b505050506040513d601f19601f820116820180604052508101906123e69190612b60565b5060038201805460ff191660011790555b5050808061240490612cab565b915050612317565b600080546001600160a01b038381166001600160a01b0319831681178455604051919092169283917f8be0079c531659141344cd1fd0a4f28419497f9722a3daafe3b4186f6b6457e09190a35050565b6002600154036124ae5760405162461bcd60e51b815260206004820152601f60248201527f5265656e7472616e637947756172643a207265656e7472616e742063616c6c0060448201526064016106e8565b6002600155565b600061228d8284612e34565b6124c9612547565b6002805460ff191660011790557f62e78cea01bee320cd4e420270b5ea74000d11b0c9f74754ebdbfc544b05a2586122643390565b60025460ff166108e05760405162461bcd60e51b815260206004820152601460248201527314185d5cd8589b194e881b9bdd081c185d5cd95960621b60448201526064016106e8565b60025460ff16156108e05760405162461bcd60e51b815260206004820152601060248201526f14185d5cd8589b194e881c185d5cd95960821b60448201526064016106e8565b60006020828403121561259f57600080fd5b5035919050565b80356001600160a01b03811681146125bd57600080fd5b919050565b600080604083850312156125d557600080fd5b6125de836125a6565b946020939093013593505050565b6000602082840312156125fe57600080fd5b61228d826125a6565b6000815180845260005b8181101561262d57602081850181015186830182015201612611565b506000602082860101526020601f19601f83011685010191505092915050565b602081526126676020820183516001600160a01b03169052565b60006020830151610160806040850152612685610180850183612607565b91506040850151601f19808685030160608701526126a38483612607565b935060608701519150808685030160808701526126c08483612607565b935060808701519150808685030160a0870152506126de8382612607565b92505060a085015160c085015260c085015160e085015260e08501516101008181870152808701519150506101208181870152808701519150506101406127288187018315159052565b959095015193019290925250919050565b60208152600061228d6020830184612607565b634e487b7160e01b600052602160045260246000fd5b6004811061278057634e487b7160e01b600052602160045260246000fd5b9052565b6001600160a01b038b168152602081018a905260408101899052606081018890526080810187905261014081016127be60a0830188612762565b8560c08301528460e0830152836101008301528215156101208301529b9a5050505050505050505050565b600080604083850312156127fc57600080fd5b50508035926020909101359150565b602080825282518282018190526000919060409081850190868401855b8281101561286d57815180516001600160a01b031685528681015187860152858101518686015260609081015115159085015260809093019290850190600101612828565b5091979650505050505050565b6020808252825182820181905260009190848201906040850190845b818110156128b257835183529284019291840191600101612896565b50909695505050505050565b634e487b7160e01b600052604160045260246000fd5b600082601f8301126128e557600080fd5b813567ffffffffffffffff80821115612900576129006128be565b604051601f8301601f19908116603f01168101908282118183101715612928576129286128be565b8160405283815286602085880101111561294157600080fd5b836020870160208301376000602085830101528094505050505092915050565b6000806000806080858703121561297757600080fd5b843567ffffffffffffffff8082111561298f57600080fd5b61299b888389016128d4565b955060208701359150808211156129b157600080fd5b6129bd888389016128d4565b945060408701359150808211156129d357600080fd5b6129df888389016128d4565b935060608701359150808211156129f557600080fd5b50612a02878288016128d4565b91505092959194509250565b6001600160a01b038c16815261016060208201819052600090612a338382018e612607565b90508281036040840152612a47818d612607565b90508281036060840152612a5b818c612607565b90508281036080840152612a6f818b612607565b60a0840199909952505060c081019590955260e085019390935261010084019190915215156101208301526101409091015295945050505050565b602081016121068284612762565b60208082526025908201527f436f6e74657374496e7374616e63653a204f6e6c7920636f6e7465737420637260408201526432b0ba37b960d91b606082015260800190565b60208082526028908201527f436f6e74657374496e7374616e63653a204e6f7420696e207375626d697373696040820152676f6e20706861736560c01b606082015260800190565b60408101612b538285612762565b61228d6020830184612762565b600060208284031215612b7257600080fd5b8151801515811461228d57600080fd5b6020808252602a908201527f436f6e74657374496e7374616e63653a205375626d697373696f6e20646f6573604082015269081b9bdd08195e1a5cdd60b21b606082015260800190565b600181811c90821680612be057607f821691505b602082108103612c0057634e487b7160e01b600052602260045260246000fd5b50919050565b6020808252602b908201527f436f6e74657374496e7374616e63653a205375626d697373696f6e206465616460408201526a1b1a5b99481c185cdcd95960aa1b606082015260800190565b60208082526024908201527f436f6e74657374496e7374616e63653a204e6f7420696e20766f74696e6720706040820152636861736560e01b606082015260800190565b634e487b7160e01b600052601160045260246000fd5b600060018201612cbd57612cbd612c95565b5060010190565b601f82111561130f57600081815260208120601f850160051c81016020861015612ceb5750805b601f850160051c820191505b81811015612d0a57828155600101612cf7565b505050505050565b815167ffffffffffffffff811115612d2c57612d2c6128be565b612d4081612d3a8454612bcc565b84612cc4565b602080601f831160018114612d755760008415612d5d5750858301515b600019600386901b1c1916600185901b178555612d0a565b600085815260208120601f198616915b82811015612da457888601518255948401946001909101908401612d85565b5085821015612dc25787850151600019600388901b60f8161c191681555b5050505050600190811b01905550565b808202811582820484141761210657612106612c95565b600082612e0657634e487b7160e01b600052601260045260246000fd5b500490565b8181038181111561210657612106612c95565b634e487b7160e01b600052603260045260246000fd5b8082018082111561210657612106612c9556fea2646970667358221220687220685f0dc49c1abb0405323dd03b8031a824e6b5a0c7593cf2cf361c497964736f6c63430008130033",
  "linkReferences": {},
  "deployedLinkReferences": {}
}